{"contracts/MonoSwapRouter.sol":{"MonoSwapRouter":{"abi":[{"inputs":[{"internalType":"address","name":"_factory","type":"address"},{"internalType":"address","name":"_WETH","type":"address"}],"stateMutability":"nonpayable","type":"constructor"},{"inputs":[],"name":"WETH","outputs":[{"internalType":"address","name":"","type":"address"}],"stateMutability":"view","type":"function"},{"inputs":[{"internalType":"address","name":"tokenA","type":"address"},{"internalType":"address","name":"tokenB","type":"address"},{"internalType":"uint256","name":"amountADesired","type":"uint256"},{"internalType":"uint256","name":"amountBDesired","type":"uint256"},{"internalType":"uint256","name":"amountAMin","type":"uint256"},{"internalType":"uint256","name":"amountBMin","type":"uint256"},{"internalType":"address","name":"to","type":"address"}],"name":"addLiquidity","outputs":[{"internalType":"uint256","name":"_amountA","type":"uint256"},{"internalType":"uint256","name":"_amountB","type":"uint256"},{"internalType":"uint256","name":"_liquidity","type":"uint256"}],"stateMutability":"nonpayable","type":"function"},{"inputs":[{"internalType":"address","name":"token","type":"address"},{"internalType":"uint256","name":"amountTokenDesired","type":"uint256"},{"internalType":"uint256","name":"amountTokenMin","type":"uint256"},{"internalType":"uint256","name":"amountETHMin","type":"uint256"},{"internalType":"address","name":"to","type":"address"},{"internalType":"uint256","name":"deadline","type":"uint256"}],"name":"addLiquidityETH","outputs":[{"internalType":"uint256","name":"amountToken","type":"uint256"},{"internalType":"uint256","name":"amountETH","type":"uint256"},{"internalType":"uint256","name":"liquidity","type":"uint256"}],"stateMutability":"payable","type":"function"},{"inputs":[],"name":"factory","outputs":[{"internalType":"contract MonoSwapFactory","name":"","type":"address"}],"stateMutability":"view","type":"function"},{"inputs":[{"internalType":"address","name":"tokenA","type":"address"},{"internalType":"address","name":"tokenB","type":"address"},{"internalType":"uint256","name":"liquidity","type":"uint256"},{"internalType":"uint256","name":"amountAMin","type":"uint256"},{"internalType":"uint256","name":"amountBMin","type":"uint256"},{"internalType":"address","name":"to","type":"address"}],"name":"removeLiquidity","outputs":[{"internalType":"uint256","name":"amountA","type":"uint256"},{"internalType":"uint256","name":"amountB","type":"uint256"}],"stateMutability":"nonpayable","type":"function"},{"inputs":[{"internalType":"uint256","name":"amountOutMin","type":"uint256"},{"internalType":"address[]","name":"path","type":"address[]"},{"internalType":"address","name":"to","type":"address"},{"internalType":"uint256","name":"deadline","type":"uint256"}],"name":"swapExactETHForTokens","outputs":[{"internalType":"uint256[]","name":"amounts","type":"uint256[]"}],"stateMutability":"payable","type":"function"},{"inputs":[{"internalType":"uint256","name":"amountIn","type":"uint256"},{"internalType":"uint256","name":"amountOutMin","type":"uint256"},{"internalType":"address[]","name":"path","type":"address[]"},{"internalType":"address","name":"to","type":"address"},{"internalType":"uint256","name":"deadline","type":"uint256"}],"name":"swapExactTokensForETH","outputs":[{"internalType":"uint256[]","name":"amounts","type":"uint256[]"}],"stateMutability":"nonpayable","type":"function"},{"inputs":[{"internalType":"uint256","name":"amountIn","type":"uint256"},{"internalType":"uint256","name":"amountOutMin","type":"uint256"},{"internalType":"address[]","name":"path","type":"address[]"},{"internalType":"address","name":"to","type":"address"},{"internalType":"uint256","name":"deadline","type":"uint256"}],"name":"swapExactTokensForTokens","outputs":[{"internalType":"uint256[]","name":"amounts","type":"uint256[]"}],"stateMutability":"nonpayable","type":"function"},{"stateMutability":"payable","type":"receive"}],"evm":{"bytecode":{"linkReferences":{},"object":"60c034620000f557601f62002bab38819003918201601f19168301916001600160401b03831184841017620000fa578084926040948552833981010312620000f5576200005a6020620000528362000110565b920162000110565b6001600160a01b0390911660805260a052604051612a859081620001268239608051818181610147015281816108ee01528181610bd901528181610c760152818161102b0152818161181e015281816121ce0152612699015260a051818181601b0152818161011901528181610f5001528181610fe20152818161122201528181611269015281816112e70152818161135901526117850152f35b600080fd5b634e487b7160e01b600052604160045260246000fd5b51906001600160a01b0382168203620000f55756fe60806040526004361015610061575b361561001957600080fd5b7f00000000000000000000000000000000000000000000000000000000000000006001600160a01b0316330361004b57005b634e487b7160e01b600052600160045260246000fd5b6000803560e01c806318cbafe51461173557806338ed1739146116fb5780637ff36ab514610f7f578063ad5c464814610f3a578063c0e3ee6b14610c08578063c45a015514610bc3578063ca3d6539146108855763f305d719146100c5575061000e565b60c0366003190112610882576100d9611cb5565b6001600160a01b036084358181160361049f576100fa4260a4351015611d6b565b60405163e6a4390560e01b81526001600160a01b0383811660048301527f0000000000000000000000000000000000000000000000000000000000000000908116602483015260209085907f000000000000000000000000000000000000000000000000000000000000000085168385604481845afa948515610877578395610858575b50858516156107e1575b50848416610197811515611e28565b6040516323b872dd60e01b8152336004820152306024808301919091528035604483018190523499909891979082169589959193908890829060649082908b5af1908115610752578c916107c4575b5015610780571690813b1561077157604051630d0e30db60e41b81528a9081816004818e885af180156107755761075d575b505060405163095ea7b360e01b8082526001600160a01b0383166004830152602482018a90529087816044818f8b5af1908115610752578c91610735575b50156106f1576040519081526001600160a01b039190911660048201526024810189905285816044818d865af180156106c95761029a918b916106d4575b50611e8c565b60408051630240bc6b60e21b81529081600481865afa9081156106c9578a908b92610697575b506001600160701b038091169081158061068d575b156104c65750505084908410806000146104bf5787905b156104b657604489915b8b6040519586948593634e6a20ed60e11b855260048501528b8401525af19081156104ab578891610479575b50935b841561042657508534116103f5575b808510610364575b50505061036090604051938493846040919493926060820195825260208201520152565b0390f35b61039e8792610374878694611f59565b60405163a9059cbb60e01b8152336004820152602481019190915293849283919082906044820190565b03925af180156103ea57610360949596506103bc575b85949361033c565b816103db92903d106103e3575b6103d38183611de7565b810190611e74565b5038806103b4565b503d6103c9565b6040513d88823e3d90fd5b868080806104038a34611f59565b81811561041d575b3390f1610334576040513d88823e3d90fd5b506108fc61040b565b8360276084926040519262461bcd60e51b845260048401528201527f4d6f6e6f537761703a20494e53554646494349454e545f4c495155494449545960448201526617d3525395115160ca1b6064820152fd5b90508381813d83116104a4575b6104908183611de7565b8101031261049f575138610322565b600080fd5b503d610486565b6040513d8a823e3d90fd5b604488916102f6565b88906102ec565b6104e1906104d8838d9c95969c611f10565b94168094611f39565b928284116105ce57505050604435811061057e578490965b841080156105775787905b1561056e57604489915b8b6040519586948593634e6a20ed60e11b855260048501528b8401525af19081156104ab578891610541575b5093610325565b90508381813d8311610567575b6105588183611de7565b8101031261049f57513861053a565b503d61054e565b6044889161050e565b8890610504565b60405162461bcd60e51b8152600481018690526023818801527f4d6f6e6f537761703a20494e53554646494349454e545f544f4b454e5f414d4f60448201526215539560ea1b6064820152608490fd5b82999a93506105e0906105e593611f10565b611f39565b90811161064b5760643581106105fd578490976104f9565b60405162461bcd60e51b8152600481018690526021818801527f4d6f6e6f537761703a20494e53554646494349454e545f4554485f414d4f554e6044820152601560fa1b6064820152608490fd5b606486866040519162461bcd60e51b83528160048401528201527f4d6f6e6f537761703a204558434553534956455f494e5055545f414d4f554e546044820152fd5b50808316156102d5565b90506106bb915060403d6040116106c2575b6106b38183611de7565b810190611eec565b90386102c0565b503d6106a9565b6040513d8c823e3d90fd5b6106eb9150873d89116103e3576103d38183611de7565b38610294565b60405162461bcd60e51b815260048101889052601f818a01527f4d6f6e6f537761703a20544f4b454e5f415050524f56414c5f4641494c4544006044820152606490fd5b61074c9150883d8a116103e3576103d38183611de7565b38610256565b6040513d8e823e3d90fd5b61076690611da1565b610771578938610218565b8980fd5b6040513d84823e3d90fd5b60405162461bcd60e51b815260048101889052601f818a01527f4d6f6e6f537761703a20544f4b454e5f5452414e534645525f4641494c4544006044820152606490fd5b6107db9150883d8a116103e3576103d38183611de7565b386101e6565b6040516364e329cb60e11b81526001600160a01b0388811660048301528316602482015291945083908290604490829086905af190811561077557829161082b575b509238610188565b61084b9150833d8511610851575b6108438183611de7565b810190611e09565b38610823565b503d610839565b610870919550843d8611610851576108438183611de7565b933861017e565b6040513d85823e3d90fd5b80fd5b50346108825760e03660031901126108825761089f611cb5565b6108a7611ccb565b606435916044359160c4356001600160a01b038181169384830361049f5760405163e6a4390560e01b81526001600160a01b038281166004830152851660248201526020947f0000000000000000000000000000000000000000000000000000000000000000841692908683604481875afa938415610b2e5789938c95610ba4575b5085851615610b39575b506040516323b872dd60e01b8082523360048301526001600160a01b03861660248301526044820194909452918790839060649082908f908a165af1908115610b2e576109bb9388938c93610b11575b506040519081523360048201526001600160a01b03861660248201526044810192909252909283919082908d90889083906064820190565b0393165af18015610b0657610ae9575b50169060405193634e6a20ed60e11b855285600486015286602486015283856044818b875af19485156104ab578895610aba575b5060843585101580610aae575b15610a70573003610a3b5750505061036090604051938493846040919493926060820195825260208201520152565b60405163a9059cbb60e01b81526001600160a01b0390911660048201526024810184905290829082908189816044810161039e565b60405162461bcd60e51b8152600481018590526016602482015275494e53554646494349454e545f4c495155494449545960501b6044820152606490fd5b5060a435851015610a0c565b9094508381813d8311610ae2575b610ad28183611de7565b8101031261049f575193386109ff565b503d610ac8565b610aff90853d87116103e3576103d38183611de7565b50386109cb565b6040513d8b823e3d90fd5b610b2790853d87116103e3576103d38183611de7565b5038610983565b6040513d8d823e3d90fd5b6040516364e329cb60e11b81526001600160a01b038481166004830152831660248201529194509092508690839060449082908e905af180156106c95788928b91610b87575b509238610933565b610b9e9150873d8911610851576108438183611de7565b38610b7f565b610bbc919550883d8a11610851576108438183611de7565b9338610929565b50346108825780600319360112610882576040517f00000000000000000000000000000000000000000000000000000000000000006001600160a01b03168152602090f35b50346108825760c036600319011261088257610c22611cb5565b90610c2b611ccb565b60a435926001600160a01b038085169260443592919084870361049f5760405163e6a4390560e01b81526001600160a01b0384811660048301528216602482015260209485826044817f000000000000000000000000000000000000000000000000000000000000000088165afa9182156104ab578892610f1b575b50838216918215610ee5576040516323b872dd60e01b81523360048201526001600160a01b039190911660248201526044810182905286816064818c875af18015610b06576040928a9796959492602492610ec8575b5083519a8b938492639c8f9f2360e01b845260048401525af1958615610ebd5784978597610e7f575b5060643588101580610e73575b15610e38573003610d4e575b60408787878351928352820152f35b60405163a9059cbb60e01b8082526001600160a01b038a16600483015260248201899052949890938990879086906044908290859089165af1938415610e2b57610dca9688968a96610e0e575b506040519081526001600160a01b03909316600484015260248301949094529094859384929183906044820190565b0393165af18015610e035760409550610de6575b808080610d3f565b610dfc90823d84116103e3576103d38183611de7565b5038610dde565b6040513d87823e3d90fd5b610e2490883d8a116103e3576103d38183611de7565b5038610d9b565b50604051903d90823e3d90fd5b60405162461bcd60e51b8152600481018790526013602482015272125394d551919250d251539517d05353d55395606a1b6044820152606490fd5b50608435871015610d33565b975095506040873d604011610eb5575b81610e9c60409383611de7565b81010312610eb1578487519701519538610d26565b8380fd5b3d9150610e8f565b6040513d86823e3d90fd5b610ede908a3d8c116103e3576103d38183611de7565b5038610cfd565b60405162461bcd60e51b815260048101889052600e60248201526d1410525497d393d517d193d5539160921b6044820152606490fd5b610f33919250863d8811610851576108438183611de7565b9038610ca7565b50346108825780600319360112610882576040517f00000000000000000000000000000000000000000000000000000000000000006001600160a01b03168152602090f35b5060803660031901126108825760243567ffffffffffffffff81116116f757610fac903690600401611c84565b916044356001600160a01b038116900361049f57610fce426064351015611d6b565b82156116e357611014610fe083611f8c565b7f00000000000000000000000000000000000000000000000000000000000000006001600160a01b03908116911614611fa0565b61102060028414611fe5565b3415611692576000917f00000000000000000000000000000000000000000000000000000000000000006001600160a01b031661105c82611f8c565b9460011015908161167e5760206110a896611078828601611f8c565b60405163e6a4390560e01b81526001600160a01b0392831660048201529116602482015296879081906044820190565b0381845afa958615610ebd57849661165d575b506001600160a01b038616156115cf575b506110e16001600160a01b0386161515611e28565b60408051630240bc6b60e21b81529190826004816001600160a01b038a165afa908115610ebd57849285926115ab575b506001600160701b038316158061159a575b611555576040519561113487611dcb565b6002875260403660208901373461114a88612049565b526115415761115884611f8c565b90611541576001600160a01b0361117160208601611f8c565b166001600160a01b0390911610918215611533576001600160701b03815b16921561152c57505b6111a185612049565b51906103e591828102928184041490151715611518576001600160701b036111ca911682611f10565b916103e890818102918183041490151715611518576111f392916111ed9161207a565b90611f39565b6111fc84612056565b52600435936112168561120e86612056565b511015612087565b61121f84612049565b517f00000000000000000000000000000000000000000000000000000000000000006001600160a01b03163b15610eb157604051630d0e30db60e41b8152908490829060049082907f00000000000000000000000000000000000000000000000000000000000000006001600160a01b03165af18015610ebd57908491611500575b50506112e260206112b186612049565b5160405163095ea7b360e01b81526001600160a01b0385166004820152602481019190915291829081906044820190565b0381877f00000000000000000000000000000000000000000000000000000000000000006001600160a01b03165af1908115610ebd5791611330611398979260209487916114e95750611e8c565b61133986612049565b51604051634326434960e01b815260048101919091526001600160a01b037f0000000000000000000000000000000000000000000000000000000000000000166024820152604481019290925290958691908290869082906064820190565b03926001600160a01b03165af180156107755782939483916114b1575b5060209161141a916113c687612056565b526001600160a01b03906113db908401611f8c565b166113e586612056565b5160405163a9059cbb60e01b8152604480356001600160a01b0316600483015260248201929092529485938492839190820190565b03925af19182156114a55791611486575b5015611441576103609060405191829182611d30565b60405162461bcd60e51b815260206004820152601960248201527f4d6f6e6f537761703a205452414e534645525f4641494c4544000000000000006044820152606490fd5b61149f915060203d6020116103e3576103d38183611de7565b3861142b565b604051903d90823e3d90fd5b9250506020823d6020116114e1575b816114cd60209383611de7565b8101031261049f57905182919060206113b5565b3d91506114c0565b6106eb9150853d87116103e3576103d38183611de7565b61150990611da1565b6115145782386112a1565b8280fd5b634e487b7160e01b85526011600452602485fd5b9050611198565b6001600160701b038261118f565b634e487b7160e01b85526032600452602485fd5b60405162461bcd60e51b815260206004820181905260248201527f4d6f6e6f537761703a20494e53554646494349454e545f4c49515549444954596044820152606490fd5b506001600160701b03821615611123565b9092506115c7915060403d6040116106c2576106b38183611de7565b909138611111565b94505061162460206115e083611f8c565b6000966115ee838601611f8c565b6040516364e329cb60e11b81526001600160a01b0393841660048201529216602483015290928391908290879082906044820190565b03925af190811561087757839161163e575b5093386110cc565b611657915060203d602011610851576108438183611de7565b38611636565b61167791965060203d602011610851576108438183611de7565b94386110bb565b634e487b7160e01b84526032600452602484fd5b60405162461bcd60e51b815260206004820152602360248201527f4d6f6e6f537761703a20494e53554646494349454e545f494e5055545f414d4f60448201526215539560ea1b6064820152608490fd5b634e487b7160e01b81526032600452602490fd5b5080fd5b50346108825761036061172961172461171336611ce1565b959095949194939293421115611d6b565b612132565b60405191829182611d30565b50346108825761175761174736611ce1565b9693929195909496421115611d6b565b6000198501858111611c70579061177b6117766117b394938884611f66565b611f8c565b6001600160a01b037f000000000000000000000000000000000000000000000000000000000000000081169490929183168514611fa0565b6117bf60028814611fe5565b8615611541576117ce81611f8c565b966001101561154157611819602080986117e9828501611f8c565b60405163e6a4390560e01b81526001600160a01b0392831660048201529116602482015291829081906044820190565b0381867f0000000000000000000000000000000000000000000000000000000000000000165afa9081156103ea578691611c53575b508281169261185e8415156120df565b6040519961186b8b611dcb565b60028b526040368b8d013761187f8b612049565b5260408051630240bc6b60e21b81529081600481885afa80156104ab5788918991611c32575b506001600160701b0390818316151580611c27575b6118c39061212b565b8b84806118da6118d28a611f8c565b938a01611f8c565b16911610928315611c205782815b169315611c185750905b6118fb8d612049565b51916103e592838102938185041490151715611c045761191c911682611f10565b916103e890818102918183041490151715611bf05761193f92916111ed9161207a565b6119488b612056565b526119568561120e8c612056565b86896119a18c6119708561196989611f8c565b1691612049565b516040516323b872dd60e01b8152336004820152306024820152604481019190915293849283919082906064820190565b03925af180156104ab5791611a0193918b93611bd3575b506119c285611f8c565b166119cc8c612049565b5160405163095ea7b360e01b81526001600160a01b0390931660048401526024830152909283919082908a9082906044820190565b03925af180156103ea5791889391611a679593611bb6575b5086611a2e611a278c612049565b5192611f8c565b604051634326434960e01b815260048101939093526001600160a01b031660248301526044820193909352938492839182906064820190565b03925af1908115610877578391611b89575b50611a8386612056565b52611a8d85612056565b51813b15611514578291602483926040519485938492632e1a7d4d60e01b845260048401525af1801561077557611b7a575b508080808094611ace88612056565b51905af1903d15611b74573d9067ffffffffffffffff8211611b605760405191611b01601f8201601f1916860184611de7565b8252833d92013e5b15611b1c57604051806103608482611d30565b6064906040519062461bcd60e51b82526004820152601d60248201527f4d6f6e6f537761703a204554485f5452414e534645525f4641494c45440000006044820152fd5b634e487b7160e01b81526041600452602490fd5b50611b09565b611b8390611da1565b38611abf565b90508481813d8311611baf575b611ba08183611de7565b81010312611514575138611a79565b503d611b96565b611bcc90853d87116103e3576103d38183611de7565b5038611a19565b611be990843d86116103e3576103d38183611de7565b50386119b8565b634e487b7160e01b8a52601160045260248afd5b634e487b7160e01b8b52601160045260248bfd5b9050906118f2565b82826118e8565b5080821615156118ba565b9050611c4d915060403d6040116106c2576106b38183611de7565b386118a5565b611c6a9150883d8a11610851576108438183611de7565b3861184e565b634e487b7160e01b84526011600452602484fd5b9181601f8401121561049f5782359167ffffffffffffffff831161049f576020808501948460051b01011161049f57565b600435906001600160a01b038216820361049f57565b602435906001600160a01b038216820361049f57565b60a060031982011261049f5760043591602435916044359067ffffffffffffffff821161049f57611d1491600401611c84565b90916064356001600160a01b038116810361049f579060843590565b6020908160408183019282815285518094520193019160005b828110611d57575050505090565b835185529381019392810192600101611d49565b15611d7257565b60405162461bcd60e51b81526020600482015260076024820152661156141254915160ca1b6044820152606490fd5b67ffffffffffffffff8111611db557604052565b634e487b7160e01b600052604160045260246000fd5b6060810190811067ffffffffffffffff821117611db557604052565b90601f8019910116810190811067ffffffffffffffff821117611db557604052565b9081602091031261049f57516001600160a01b038116810361049f5790565b15611e2f57565b60405162461bcd60e51b815260206004820152601e60248201527f4d6f6e6f537761703a20504149525f4352454154494f4e5f4641494c454400006044820152606490fd5b9081602091031261049f5751801515810361049f5790565b15611e9357565b60405162461bcd60e51b815260206004820152601e60248201527f4d6f6e6f537761703a20574554485f415050524f56414c5f4641494c454400006044820152606490fd5b51906001600160701b038216820361049f57565b919082604091031261049f57611f0d6020611f0684611ed8565b9301611ed8565b90565b81810292918115918404141715611f2357565b634e487b7160e01b600052601160045260246000fd5b8115611f43570490565b634e487b7160e01b600052601260045260246000fd5b91908203918211611f2357565b9190811015611f765760051b0190565b634e487b7160e01b600052603260045260246000fd5b356001600160a01b038116810361049f5790565b15611fa757565b60405162461bcd60e51b815260206004820152601660248201527509adedcdea6eec2e07440929cac82989288bea082a8960531b6044820152606490fd5b15611fec57565b60405162461bcd60e51b815260206004820152601d60248201527f4d6f6e6f537761703a20494e56414c49445f504154485f4c454e4754480000006044820152606490fd5b67ffffffffffffffff8111611db55760051b60200190565b805115611f765760200190565b805160011015611f765760400190565b8051821015611f765760209160051b010190565b91908201809211611f2357565b1561208e57565b60405162461bcd60e51b8152602060048201526024808201527f4d6f6e6f537761703a20494e53554646494349454e545f4f55545055545f414d60448201526313d5539560e21b6064820152608490fd5b156120e657565b60405162461bcd60e51b815260206004820152601960248201527f4d6f6e6f537761703a20504149525f4e4f545f455849535453000000000000006044820152606490fd5b1561155557565b92919394906121446002841015611fa0565b61214d83612031565b61215a6040519182611de7565b838152601f1961216985612031565b01366020830137809461217b82612049565b5260028414612620575060005b6000198401848111611f2357811015612575576121a9611776828689611f66565b600182018211611f235760206121ca916117e961177660018601898c611f66565b03817f00000000000000000000000000000000000000000000000000000000000000006001600160a01b03165afa90811561245e57600091612556575b5061221c6001600160a01b03821615156120df565b60408051630240bc6b60e21b815290816004816001600160a01b0386165afa90811561245e576000908192612534575b506001600160701b0391828216151580612529575b61226a9061212b565b612278611776868a8d611f66565b6001600160a01b03612291611776600189018c8f611f66565b166001600160a01b03909116109182156125225783815b16921561251b57505b6122bb858a612066565b51906103e5938285810204851483151715611f23576122dd9116848302611f10565b916103e88181810204811482151715611f2357612300946111ed9302910261207a565b61230d6001840188612066565b528115612487575b60009060206123726001600160a01b03612333611776878b8e611f66565b1661233e868b612066565b5160405163095ea7b360e01b81526001600160a01b0386166004820152602481019190915294859283919082906044820190565b03925af190811561245e576123f09260209261246a575b506123948489612066565b51906123a4611776868a8d611f66565b60006123b3600188018c612066565b51604051634326434960e01b815260048101959095526001600160a01b039092166024850152604484019190915291938492839182906064820190565b03926001600160a01b03165af190811561245e5760009161242c575b5061241a6001830187612066565b526000198114611f2357600101612188565b906020823d602011612456575b8161244660209383611de7565b810103126108825750513861240c565b3d9150612439565b6040513d6000823e3d90fd5b61248090833d85116103e3576103d38183611de7565b5038612389565b8415611f765760009060206124e16001600160a01b036124a68b611f8c565b166124b08a612049565b516040516323b872dd60e01b8152336004820152306024820152604481019190915294859283919082906064820190565b03925af191821561245e576000926124fc575b509050612315565b6125149060203d6020116103e3576103d38183611de7565b50386124f4565b90506122b1565b83826122a8565b508083161515612261565b905061254f915060403d6040116106c2576106b38183611de7565b903861224c565b61256f915060203d602011610851576108438183611de7565b38612207565b50929490939291600019810190808211611f23576125f4946125b6611776846125be946125a860209961120e848f612066565b6001600160a01b0394611f66565b169187612066565b5160405163a9059cbb60e01b81526001600160a01b03909316600484015260248301529092839190829060009082906044820190565b03925af1801561245e576126055750565b61261d9060203d6020116103e3576103d38183611de7565b50565b949091959280945015611f765761263681611f8c565b9360011015611f765761268591602082019161265183611f8c565b60405163e6a4390560e01b81526001600160a01b039788166004808301919091529790911660248201529384906044820190565b6001600160a01b03959160209183919003817f000000000000000000000000000000000000000000000000000000000000000089165afa90811561245e57600091612a30575b50848116906126db8215156120df565b60408051630240bc6b60e21b815290818a81865afa801561245e576000918291612a0f575b506001600160701b0390818316151580612a04575b61271e9061212b565b61272786611f8c565b89806127328b611f8c565b169116109283156129fd5782815b1693156129f55750905b6127538c612049565b51916103e5928381029381850414901517156129e057612774911682611f10565b916103e8908181029181830414901517156129cb57916111ed61279d926128019796959461207a565b6127a68b612056565b526127b48561120e8c612056565b6020876127c085611f8c565b166127ca8c612049565b51604080516323b872dd60e01b815233818f0190815230602082015291820192909252909687929183916000918391606090910190565b03925af190811561245e57612867946020926129ae575b508761282385611f8c565b1661282d8c612049565b516040805163095ea7b360e01b81526001600160a01b03909416848e01908152602081019290925292968793849260009284929190910190565b03925af192831561245e57602093612991575b50612887611a278a612049565b60408051634326434960e01b8152808b019485526001600160a01b03909216602085015283019490945283918290600090829060600103925af190811561245e5760009161295d575b50916128ed6020949261292f96946128e789612056565b52611f8c565b169060006128fa87612056565b516040805163a9059cbb60e01b81526001600160a01b0390941695840195865260208601919091529195869485938492910190565b03925af1801561245e57612941575090565b6129599060203d6020116103e3576103d38183611de7565b5090565b906020823d602011612989575b8161297760209383611de7565b810103126108825750516128ed6128d0565b3d915061296a565b6129a790843d86116103e3576103d38183611de7565b503861287a565b6129c490833d85116103e3576103d38183611de7565b5038612818565b60118b634e487b7160e01b6000525260246000fd5b60118c634e487b7160e01b6000525260246000fd5b90509061274a565b8282612740565b508082161515612715565b9050612a2a915060403d6040116106c2576106b38183611de7565b38612700565b612a49915060203d602011610851576108438183611de7565b386126cb56fea2646970667358221220a2723ccee20fe1178d3d67a6e5a47a44ca76ef637b3807920ce20a65d70da54164736f6c63430008140033","opcodes":"PUSH1 0xC0 CALLVALUE PUSH3 0xF5 JUMPI PUSH1 0x1F PUSH3 0x2BAB CODESIZE DUP2 SWAP1 SUB SWAP2 DUP3 ADD PUSH1 0x1F NOT AND DUP4 ADD SWAP2 PUSH1 0x1 PUSH1 0x1 PUSH1 0x40 SHL SUB DUP4 GT DUP5 DUP5 LT OR PUSH3 0xFA JUMPI DUP1 DUP5 SWAP3 PUSH1 0x40 SWAP5 DUP6 MSTORE DUP4 CODECOPY DUP2 ADD SUB SLT PUSH3 0xF5 JUMPI PUSH3 0x5A PUSH1 0x20 PUSH3 0x52 DUP4 PUSH3 0x110 JUMP JUMPDEST SWAP3 ADD PUSH3 0x110 JUMP JUMPDEST PUSH1 0x1 PUSH1 0x1 PUSH1 0xA0 SHL SUB SWAP1 SWAP2 AND PUSH1 0x80 MSTORE PUSH1 0xA0 MSTORE PUSH1 0x40 MLOAD PUSH2 0x2A85 SWAP1 DUP2 PUSH3 0x126 DUP3 CODECOPY PUSH1 0x80 MLOAD DUP2 DUP2 DUP2 PUSH2 0x147 ADD MSTORE DUP2 DUP2 PUSH2 0x8EE ADD MSTORE DUP2 DUP2 PUSH2 0xBD9 ADD MSTORE DUP2 DUP2 PUSH2 0xC76 ADD MSTORE DUP2 DUP2 PUSH2 0x102B ADD MSTORE DUP2 DUP2 PUSH2 0x181E ADD MSTORE DUP2 DUP2 PUSH2 0x21CE ADD MSTORE PUSH2 0x2699 ADD MSTORE PUSH1 0xA0 MLOAD DUP2 DUP2 DUP2 PUSH1 0x1B ADD MSTORE DUP2 DUP2 PUSH2 0x119 ADD MSTORE DUP2 DUP2 PUSH2 0xF50 ADD MSTORE DUP2 DUP2 PUSH2 0xFE2 ADD MSTORE DUP2 DUP2 PUSH2 0x1222 ADD MSTORE DUP2 DUP2 PUSH2 0x1269 ADD MSTORE DUP2 DUP2 PUSH2 0x12E7 ADD MSTORE DUP2 DUP2 PUSH2 0x1359 ADD MSTORE PUSH2 0x1785 ADD MSTORE RETURN JUMPDEST PUSH1 0x0 DUP1 REVERT JUMPDEST PUSH4 0x4E487B71 PUSH1 0xE0 SHL PUSH1 0x0 MSTORE PUSH1 0x41 PUSH1 0x4 MSTORE PUSH1 0x24 PUSH1 0x0 REVERT JUMPDEST MLOAD SWAP1 PUSH1 0x1 PUSH1 0x1 PUSH1 0xA0 SHL SUB DUP3 AND DUP3 SUB PUSH3 0xF5 JUMPI JUMP INVALID PUSH1 0x80 PUSH1 0x40 MSTORE PUSH1 0x4 CALLDATASIZE LT ISZERO PUSH2 0x61 JUMPI JUMPDEST CALLDATASIZE ISZERO PUSH2 0x19 JUMPI PUSH1 0x0 DUP1 REVERT JUMPDEST PUSH32 0x0 PUSH1 0x1 PUSH1 0x1 PUSH1 0xA0 SHL SUB AND CALLER SUB PUSH2 0x4B JUMPI STOP JUMPDEST PUSH4 0x4E487B71 PUSH1 0xE0 SHL PUSH1 0x0 MSTORE PUSH1 0x1 PUSH1 0x4 MSTORE PUSH1 0x24 PUSH1 0x0 REVERT JUMPDEST PUSH1 0x0 DUP1 CALLDATALOAD PUSH1 0xE0 SHR DUP1 PUSH4 0x18CBAFE5 EQ PUSH2 0x1735 JUMPI DUP1 PUSH4 0x38ED1739 EQ PUSH2 0x16FB JUMPI DUP1 PUSH4 0x7FF36AB5 EQ PUSH2 0xF7F JUMPI DUP1 PUSH4 0xAD5C4648 EQ PUSH2 0xF3A JUMPI DUP1 PUSH4 0xC0E3EE6B EQ PUSH2 0xC08 JUMPI DUP1 PUSH4 0xC45A0155 EQ PUSH2 0xBC3 JUMPI DUP1 PUSH4 0xCA3D6539 EQ PUSH2 0x885 JUMPI PUSH4 0xF305D719 EQ PUSH2 0xC5 JUMPI POP PUSH2 0xE JUMP JUMPDEST PUSH1 0xC0 CALLDATASIZE PUSH1 0x3 NOT ADD SLT PUSH2 0x882 JUMPI PUSH2 0xD9 PUSH2 0x1CB5 JUMP JUMPDEST PUSH1 0x1 PUSH1 0x1 PUSH1 0xA0 SHL SUB PUSH1 0x84 CALLDATALOAD DUP2 DUP2 AND SUB PUSH2 0x49F JUMPI PUSH2 0xFA TIMESTAMP PUSH1 0xA4 CALLDATALOAD LT ISZERO PUSH2 0x1D6B JUMP JUMPDEST PUSH1 0x40 MLOAD PUSH4 0xE6A43905 PUSH1 0xE0 SHL DUP2 MSTORE PUSH1 0x1 PUSH1 0x1 PUSH1 0xA0 SHL SUB DUP4 DUP2 AND PUSH1 0x4 DUP4 ADD MSTORE PUSH32 0x0 SWAP1 DUP2 AND PUSH1 0x24 DUP4 ADD MSTORE PUSH1 0x20 SWAP1 DUP6 SWAP1 PUSH32 0x0 DUP6 AND DUP4 DUP6 PUSH1 0x44 DUP2 DUP5 GAS STATICCALL SWAP5 DUP6 ISZERO PUSH2 0x877 JUMPI DUP4 SWAP6 PUSH2 0x858 JUMPI JUMPDEST POP DUP6 DUP6 AND ISZERO PUSH2 0x7E1 JUMPI JUMPDEST POP DUP5 DUP5 AND PUSH2 0x197 DUP2 ISZERO ISZERO PUSH2 0x1E28 JUMP JUMPDEST PUSH1 0x40 MLOAD PUSH4 0x23B872DD PUSH1 0xE0 SHL DUP2 MSTORE CALLER PUSH1 0x4 DUP3 ADD MSTORE ADDRESS PUSH1 0x24 DUP1 DUP4 ADD SWAP2 SWAP1 SWAP2 MSTORE DUP1 CALLDATALOAD PUSH1 0x44 DUP4 ADD DUP2 SWAP1 MSTORE CALLVALUE SWAP10 SWAP1 SWAP9 SWAP2 SWAP8 SWAP1 DUP3 AND SWAP6 DUP10 SWAP6 SWAP2 SWAP4 SWAP1 DUP9 SWAP1 DUP3 SWAP1 PUSH1 0x64 SWAP1 DUP3 SWAP1 DUP12 GAS CALL SWAP1 DUP2 ISZERO PUSH2 0x752 JUMPI DUP13 SWAP2 PUSH2 0x7C4 JUMPI JUMPDEST POP ISZERO PUSH2 0x780 JUMPI AND SWAP1 DUP2 EXTCODESIZE ISZERO PUSH2 0x771 JUMPI PUSH1 0x40 MLOAD PUSH4 0xD0E30DB PUSH1 0xE4 SHL DUP2 MSTORE DUP11 SWAP1 DUP2 DUP2 PUSH1 0x4 DUP2 DUP15 DUP9 GAS CALL DUP1 ISZERO PUSH2 0x775 JUMPI PUSH2 0x75D JUMPI JUMPDEST POP POP PUSH1 0x40 MLOAD PUSH4 0x95EA7B3 PUSH1 0xE0 SHL DUP1 DUP3 MSTORE PUSH1 0x1 PUSH1 0x1 PUSH1 0xA0 SHL SUB DUP4 AND PUSH1 0x4 DUP4 ADD MSTORE PUSH1 0x24 DUP3 ADD DUP11 SWAP1 MSTORE SWAP1 DUP8 DUP2 PUSH1 0x44 DUP2 DUP16 DUP12 GAS CALL SWAP1 DUP2 ISZERO PUSH2 0x752 JUMPI DUP13 SWAP2 PUSH2 0x735 JUMPI JUMPDEST POP ISZERO PUSH2 0x6F1 JUMPI PUSH1 0x40 MLOAD SWAP1 DUP2 MSTORE PUSH1 0x1 PUSH1 0x1 PUSH1 0xA0 SHL SUB SWAP2 SWAP1 SWAP2 AND PUSH1 0x4 DUP3 ADD MSTORE PUSH1 0x24 DUP2 ADD DUP10 SWAP1 MSTORE DUP6 DUP2 PUSH1 0x44 DUP2 DUP14 DUP7 GAS CALL DUP1 ISZERO PUSH2 0x6C9 JUMPI PUSH2 0x29A SWAP2 DUP12 SWAP2 PUSH2 0x6D4 JUMPI JUMPDEST POP PUSH2 0x1E8C JUMP JUMPDEST PUSH1 0x40 DUP1 MLOAD PUSH4 0x240BC6B PUSH1 0xE2 SHL DUP2 MSTORE SWAP1 DUP2 PUSH1 0x4 DUP2 DUP7 GAS STATICCALL SWAP1 DUP2 ISZERO PUSH2 0x6C9 JUMPI DUP11 SWAP1 DUP12 SWAP3 PUSH2 0x697 JUMPI JUMPDEST POP PUSH1 0x1 PUSH1 0x1 PUSH1 0x70 SHL SUB DUP1 SWAP2 AND SWAP1 DUP2 ISZERO DUP1 PUSH2 0x68D JUMPI JUMPDEST ISZERO PUSH2 0x4C6 JUMPI POP POP POP DUP5 SWAP1 DUP5 LT DUP1 PUSH1 0x0 EQ PUSH2 0x4BF JUMPI DUP8 SWAP1 JUMPDEST ISZERO PUSH2 0x4B6 JUMPI PUSH1 0x44 DUP10 SWAP2 JUMPDEST DUP12 PUSH1 0x40 MLOAD SWAP6 DUP7 SWAP5 DUP6 SWAP4 PUSH4 0x4E6A20ED PUSH1 0xE1 SHL DUP6 MSTORE PUSH1 0x4 DUP6 ADD MSTORE DUP12 DUP5 ADD MSTORE GAS CALL SWAP1 DUP2 ISZERO PUSH2 0x4AB JUMPI DUP9 SWAP2 PUSH2 0x479 JUMPI JUMPDEST POP SWAP4 JUMPDEST DUP5 ISZERO PUSH2 0x426 JUMPI POP DUP6 CALLVALUE GT PUSH2 0x3F5 JUMPI JUMPDEST DUP1 DUP6 LT PUSH2 0x364 JUMPI JUMPDEST POP POP POP PUSH2 0x360 SWAP1 PUSH1 0x40 MLOAD SWAP4 DUP5 SWAP4 DUP5 PUSH1 0x40 SWAP2 SWAP5 SWAP4 SWAP3 PUSH1 0x60 DUP3 ADD SWAP6 DUP3 MSTORE PUSH1 0x20 DUP3 ADD MSTORE ADD MSTORE JUMP JUMPDEST SUB SWAP1 RETURN JUMPDEST PUSH2 0x39E DUP8 SWAP3 PUSH2 0x374 DUP8 DUP7 SWAP5 PUSH2 0x1F59 JUMP JUMPDEST PUSH1 0x40 MLOAD PUSH4 0xA9059CBB PUSH1 0xE0 SHL DUP2 MSTORE CALLER PUSH1 0x4 DUP3 ADD MSTORE PUSH1 0x24 DUP2 ADD SWAP2 SWAP1 SWAP2 MSTORE SWAP4 DUP5 SWAP3 DUP4 SWAP2 SWAP1 DUP3 SWAP1 PUSH1 0x44 DUP3 ADD SWAP1 JUMP JUMPDEST SUB SWAP3 GAS CALL DUP1 ISZERO PUSH2 0x3EA JUMPI PUSH2 0x360 SWAP5 SWAP6 SWAP7 POP PUSH2 0x3BC JUMPI JUMPDEST DUP6 SWAP5 SWAP4 PUSH2 0x33C JUMP JUMPDEST DUP2 PUSH2 0x3DB SWAP3 SWAP1 RETURNDATASIZE LT PUSH2 0x3E3 JUMPI JUMPDEST PUSH2 0x3D3 DUP2 DUP4 PUSH2 0x1DE7 JUMP JUMPDEST DUP2 ADD SWAP1 PUSH2 0x1E74 JUMP JUMPDEST POP CODESIZE DUP1 PUSH2 0x3B4 JUMP JUMPDEST POP RETURNDATASIZE PUSH2 0x3C9 JUMP JUMPDEST PUSH1 0x40 MLOAD RETURNDATASIZE DUP9 DUP3 RETURNDATACOPY RETURNDATASIZE SWAP1 REVERT JUMPDEST DUP7 DUP1 DUP1 DUP1 PUSH2 0x403 DUP11 CALLVALUE PUSH2 0x1F59 JUMP JUMPDEST DUP2 DUP2 ISZERO PUSH2 0x41D JUMPI JUMPDEST CALLER SWAP1 CALL PUSH2 0x334 JUMPI PUSH1 0x40 MLOAD RETURNDATASIZE DUP9 DUP3 RETURNDATACOPY RETURNDATASIZE SWAP1 REVERT JUMPDEST POP PUSH2 0x8FC PUSH2 0x40B JUMP JUMPDEST DUP4 PUSH1 0x27 PUSH1 0x84 SWAP3 PUSH1 0x40 MLOAD SWAP3 PUSH3 0x461BCD PUSH1 0xE5 SHL DUP5 MSTORE PUSH1 0x4 DUP5 ADD MSTORE DUP3 ADD MSTORE PUSH32 0x4D6F6E6F537761703A20494E53554646494349454E545F4C4951554944495459 PUSH1 0x44 DUP3 ADD MSTORE PUSH7 0x17D35253951151 PUSH1 0xCA SHL PUSH1 0x64 DUP3 ADD MSTORE REVERT JUMPDEST SWAP1 POP DUP4 DUP2 DUP2 RETURNDATASIZE DUP4 GT PUSH2 0x4A4 JUMPI JUMPDEST PUSH2 0x490 DUP2 DUP4 PUSH2 0x1DE7 JUMP JUMPDEST DUP2 ADD SUB SLT PUSH2 0x49F JUMPI MLOAD CODESIZE PUSH2 0x322 JUMP JUMPDEST PUSH1 0x0 DUP1 REVERT JUMPDEST POP RETURNDATASIZE PUSH2 0x486 JUMP JUMPDEST PUSH1 0x40 MLOAD RETURNDATASIZE DUP11 DUP3 RETURNDATACOPY RETURNDATASIZE SWAP1 REVERT JUMPDEST PUSH1 0x44 DUP9 SWAP2 PUSH2 0x2F6 JUMP JUMPDEST DUP9 SWAP1 PUSH2 0x2EC JUMP JUMPDEST PUSH2 0x4E1 SWAP1 PUSH2 0x4D8 DUP4 DUP14 SWAP13 SWAP6 SWAP7 SWAP13 PUSH2 0x1F10 JUMP JUMPDEST SWAP5 AND DUP1 SWAP5 PUSH2 0x1F39 JUMP JUMPDEST SWAP3 DUP3 DUP5 GT PUSH2 0x5CE JUMPI POP POP POP PUSH1 0x44 CALLDATALOAD DUP2 LT PUSH2 0x57E JUMPI DUP5 SWAP1 SWAP7 JUMPDEST DUP5 LT DUP1 ISZERO PUSH2 0x577 JUMPI DUP8 SWAP1 JUMPDEST ISZERO PUSH2 0x56E JUMPI PUSH1 0x44 DUP10 SWAP2 JUMPDEST DUP12 PUSH1 0x40 MLOAD SWAP6 DUP7 SWAP5 DUP6 SWAP4 PUSH4 0x4E6A20ED PUSH1 0xE1 SHL DUP6 MSTORE PUSH1 0x4 DUP6 ADD MSTORE DUP12 DUP5 ADD MSTORE GAS CALL SWAP1 DUP2 ISZERO PUSH2 0x4AB JUMPI DUP9 SWAP2 PUSH2 0x541 JUMPI JUMPDEST POP SWAP4 PUSH2 0x325 JUMP JUMPDEST SWAP1 POP DUP4 DUP2 DUP2 RETURNDATASIZE DUP4 GT PUSH2 0x567 JUMPI JUMPDEST PUSH2 0x558 DUP2 DUP4 PUSH2 0x1DE7 JUMP JUMPDEST DUP2 ADD SUB SLT PUSH2 0x49F JUMPI MLOAD CODESIZE PUSH2 0x53A JUMP JUMPDEST POP RETURNDATASIZE PUSH2 0x54E JUMP JUMPDEST PUSH1 0x44 DUP9 SWAP2 PUSH2 0x50E JUMP JUMPDEST DUP9 SWAP1 PUSH2 0x504 JUMP JUMPDEST PUSH1 0x40 MLOAD PUSH3 0x461BCD PUSH1 0xE5 SHL DUP2 MSTORE PUSH1 0x4 DUP2 ADD DUP7 SWAP1 MSTORE PUSH1 0x23 DUP2 DUP9 ADD MSTORE PUSH32 0x4D6F6E6F537761703A20494E53554646494349454E545F544F4B454E5F414D4F PUSH1 0x44 DUP3 ADD MSTORE PUSH3 0x155395 PUSH1 0xEA SHL PUSH1 0x64 DUP3 ADD MSTORE PUSH1 0x84 SWAP1 REVERT JUMPDEST DUP3 SWAP10 SWAP11 SWAP4 POP PUSH2 0x5E0 SWAP1 PUSH2 0x5E5 SWAP4 PUSH2 0x1F10 JUMP JUMPDEST PUSH2 0x1F39 JUMP JUMPDEST SWAP1 DUP2 GT PUSH2 0x64B JUMPI PUSH1 0x64 CALLDATALOAD DUP2 LT PUSH2 0x5FD JUMPI DUP5 SWAP1 SWAP8 PUSH2 0x4F9 JUMP JUMPDEST PUSH1 0x40 MLOAD PUSH3 0x461BCD PUSH1 0xE5 SHL DUP2 MSTORE PUSH1 0x4 DUP2 ADD DUP7 SWAP1 MSTORE PUSH1 0x21 DUP2 DUP9 ADD MSTORE PUSH32 0x4D6F6E6F537761703A20494E53554646494349454E545F4554485F414D4F554E PUSH1 0x44 DUP3 ADD MSTORE PUSH1 0x15 PUSH1 0xFA SHL PUSH1 0x64 DUP3 ADD MSTORE PUSH1 0x84 SWAP1 REVERT JUMPDEST PUSH1 0x64 DUP7 DUP7 PUSH1 0x40 MLOAD SWAP2 PUSH3 0x461BCD PUSH1 0xE5 SHL DUP4 MSTORE DUP2 PUSH1 0x4 DUP5 ADD MSTORE DUP3 ADD MSTORE PUSH32 0x4D6F6E6F537761703A204558434553534956455F494E5055545F414D4F554E54 PUSH1 0x44 DUP3 ADD MSTORE REVERT JUMPDEST POP DUP1 DUP4 AND ISZERO PUSH2 0x2D5 JUMP JUMPDEST SWAP1 POP PUSH2 0x6BB SWAP2 POP PUSH1 0x40 RETURNDATASIZE PUSH1 0x40 GT PUSH2 0x6C2 JUMPI JUMPDEST PUSH2 0x6B3 DUP2 DUP4 PUSH2 0x1DE7 JUMP JUMPDEST DUP2 ADD SWAP1 PUSH2 0x1EEC JUMP JUMPDEST SWAP1 CODESIZE PUSH2 0x2C0 JUMP JUMPDEST POP RETURNDATASIZE PUSH2 0x6A9 JUMP JUMPDEST PUSH1 0x40 MLOAD RETURNDATASIZE DUP13 DUP3 RETURNDATACOPY RETURNDATASIZE SWAP1 REVERT JUMPDEST PUSH2 0x6EB SWAP2 POP DUP8 RETURNDATASIZE DUP10 GT PUSH2 0x3E3 JUMPI PUSH2 0x3D3 DUP2 DUP4 PUSH2 0x1DE7 JUMP JUMPDEST CODESIZE PUSH2 0x294 JUMP JUMPDEST PUSH1 0x40 MLOAD PUSH3 0x461BCD PUSH1 0xE5 SHL DUP2 MSTORE PUSH1 0x4 DUP2 ADD DUP9 SWAP1 MSTORE PUSH1 0x1F DUP2 DUP11 ADD MSTORE PUSH32 0x4D6F6E6F537761703A20544F4B454E5F415050524F56414C5F4641494C454400 PUSH1 0x44 DUP3 ADD MSTORE PUSH1 0x64 SWAP1 REVERT JUMPDEST PUSH2 0x74C SWAP2 POP DUP9 RETURNDATASIZE DUP11 GT PUSH2 0x3E3 JUMPI PUSH2 0x3D3 DUP2 DUP4 PUSH2 0x1DE7 JUMP JUMPDEST CODESIZE PUSH2 0x256 JUMP JUMPDEST PUSH1 0x40 MLOAD RETURNDATASIZE DUP15 DUP3 RETURNDATACOPY RETURNDATASIZE SWAP1 REVERT JUMPDEST PUSH2 0x766 SWAP1 PUSH2 0x1DA1 JUMP JUMPDEST PUSH2 0x771 JUMPI DUP10 CODESIZE PUSH2 0x218 JUMP JUMPDEST DUP10 DUP1 REVERT JUMPDEST PUSH1 0x40 MLOAD RETURNDATASIZE DUP5 DUP3 RETURNDATACOPY RETURNDATASIZE SWAP1 REVERT JUMPDEST PUSH1 0x40 MLOAD PUSH3 0x461BCD PUSH1 0xE5 SHL DUP2 MSTORE PUSH1 0x4 DUP2 ADD DUP9 SWAP1 MSTORE PUSH1 0x1F DUP2 DUP11 ADD MSTORE PUSH32 0x4D6F6E6F537761703A20544F4B454E5F5452414E534645525F4641494C454400 PUSH1 0x44 DUP3 ADD MSTORE PUSH1 0x64 SWAP1 REVERT JUMPDEST PUSH2 0x7DB SWAP2 POP DUP9 RETURNDATASIZE DUP11 GT PUSH2 0x3E3 JUMPI PUSH2 0x3D3 DUP2 DUP4 PUSH2 0x1DE7 JUMP JUMPDEST CODESIZE PUSH2 0x1E6 JUMP JUMPDEST PUSH1 0x40 MLOAD PUSH4 0x64E329CB PUSH1 0xE1 SHL DUP2 MSTORE PUSH1 0x1 PUSH1 0x1 PUSH1 0xA0 SHL SUB DUP9 DUP2 AND PUSH1 0x4 DUP4 ADD MSTORE DUP4 AND PUSH1 0x24 DUP3 ADD MSTORE SWAP2 SWAP5 POP DUP4 SWAP1 DUP3 SWAP1 PUSH1 0x44 SWAP1 DUP3 SWAP1 DUP7 SWAP1 GAS CALL SWAP1 DUP2 ISZERO PUSH2 0x775 JUMPI DUP3 SWAP2 PUSH2 0x82B JUMPI JUMPDEST POP SWAP3 CODESIZE PUSH2 0x188 JUMP JUMPDEST PUSH2 0x84B SWAP2 POP DUP4 RETURNDATASIZE DUP6 GT PUSH2 0x851 JUMPI JUMPDEST PUSH2 0x843 DUP2 DUP4 PUSH2 0x1DE7 JUMP JUMPDEST DUP2 ADD SWAP1 PUSH2 0x1E09 JUMP JUMPDEST CODESIZE PUSH2 0x823 JUMP JUMPDEST POP RETURNDATASIZE PUSH2 0x839 JUMP JUMPDEST PUSH2 0x870 SWAP2 SWAP6 POP DUP5 RETURNDATASIZE DUP7 GT PUSH2 0x851 JUMPI PUSH2 0x843 DUP2 DUP4 PUSH2 0x1DE7 JUMP JUMPDEST SWAP4 CODESIZE PUSH2 0x17E JUMP JUMPDEST PUSH1 0x40 MLOAD RETURNDATASIZE DUP6 DUP3 RETURNDATACOPY RETURNDATASIZE SWAP1 REVERT JUMPDEST DUP1 REVERT JUMPDEST POP CALLVALUE PUSH2 0x882 JUMPI PUSH1 0xE0 CALLDATASIZE PUSH1 0x3 NOT ADD SLT PUSH2 0x882 JUMPI PUSH2 0x89F PUSH2 0x1CB5 JUMP JUMPDEST PUSH2 0x8A7 PUSH2 0x1CCB JUMP JUMPDEST PUSH1 0x64 CALLDATALOAD SWAP2 PUSH1 0x44 CALLDATALOAD SWAP2 PUSH1 0xC4 CALLDATALOAD PUSH1 0x1 PUSH1 0x1 PUSH1 0xA0 SHL SUB DUP2 DUP2 AND SWAP4 DUP5 DUP4 SUB PUSH2 0x49F JUMPI PUSH1 0x40 MLOAD PUSH4 0xE6A43905 PUSH1 0xE0 SHL DUP2 MSTORE PUSH1 0x1 PUSH1 0x1 PUSH1 0xA0 SHL SUB DUP3 DUP2 AND PUSH1 0x4 DUP4 ADD MSTORE DUP6 AND PUSH1 0x24 DUP3 ADD MSTORE PUSH1 0x20 SWAP5 PUSH32 0x0 DUP5 AND SWAP3 SWAP1 DUP7 DUP4 PUSH1 0x44 DUP2 DUP8 GAS STATICCALL SWAP4 DUP5 ISZERO PUSH2 0xB2E JUMPI DUP10 SWAP4 DUP13 SWAP6 PUSH2 0xBA4 JUMPI JUMPDEST POP DUP6 DUP6 AND ISZERO PUSH2 0xB39 JUMPI JUMPDEST POP PUSH1 0x40 MLOAD PUSH4 0x23B872DD PUSH1 0xE0 SHL DUP1 DUP3 MSTORE CALLER PUSH1 0x4 DUP4 ADD MSTORE PUSH1 0x1 PUSH1 0x1 PUSH1 0xA0 SHL SUB DUP7 AND PUSH1 0x24 DUP4 ADD MSTORE PUSH1 0x44 DUP3 ADD SWAP5 SWAP1 SWAP5 MSTORE SWAP2 DUP8 SWAP1 DUP4 SWAP1 PUSH1 0x64 SWAP1 DUP3 SWAP1 DUP16 SWAP1 DUP11 AND GAS CALL SWAP1 DUP2 ISZERO PUSH2 0xB2E JUMPI PUSH2 0x9BB SWAP4 DUP9 SWAP4 DUP13 SWAP4 PUSH2 0xB11 JUMPI JUMPDEST POP PUSH1 0x40 MLOAD SWAP1 DUP2 MSTORE CALLER PUSH1 0x4 DUP3 ADD MSTORE PUSH1 0x1 PUSH1 0x1 PUSH1 0xA0 SHL SUB DUP7 AND PUSH1 0x24 DUP3 ADD MSTORE PUSH1 0x44 DUP2 ADD SWAP3 SWAP1 SWAP3 MSTORE SWAP1 SWAP3 DUP4 SWAP2 SWAP1 DUP3 SWAP1 DUP14 SWAP1 DUP9 SWAP1 DUP4 SWAP1 PUSH1 0x64 DUP3 ADD SWAP1 JUMP JUMPDEST SUB SWAP4 AND GAS CALL DUP1 ISZERO PUSH2 0xB06 JUMPI PUSH2 0xAE9 JUMPI JUMPDEST POP AND SWAP1 PUSH1 0x40 MLOAD SWAP4 PUSH4 0x4E6A20ED PUSH1 0xE1 SHL DUP6 MSTORE DUP6 PUSH1 0x4 DUP7 ADD MSTORE DUP7 PUSH1 0x24 DUP7 ADD MSTORE DUP4 DUP6 PUSH1 0x44 DUP2 DUP12 DUP8 GAS CALL SWAP5 DUP6 ISZERO PUSH2 0x4AB JUMPI DUP9 SWAP6 PUSH2 0xABA JUMPI JUMPDEST POP PUSH1 0x84 CALLDATALOAD DUP6 LT ISZERO DUP1 PUSH2 0xAAE JUMPI JUMPDEST ISZERO PUSH2 0xA70 JUMPI ADDRESS SUB PUSH2 0xA3B JUMPI POP POP POP PUSH2 0x360 SWAP1 PUSH1 0x40 MLOAD SWAP4 DUP5 SWAP4 DUP5 PUSH1 0x40 SWAP2 SWAP5 SWAP4 SWAP3 PUSH1 0x60 DUP3 ADD SWAP6 DUP3 MSTORE PUSH1 0x20 DUP3 ADD MSTORE ADD MSTORE JUMP JUMPDEST PUSH1 0x40 MLOAD PUSH4 0xA9059CBB PUSH1 0xE0 SHL DUP2 MSTORE PUSH1 0x1 PUSH1 0x1 PUSH1 0xA0 SHL SUB SWAP1 SWAP2 AND PUSH1 0x4 DUP3 ADD MSTORE PUSH1 0x24 DUP2 ADD DUP5 SWAP1 MSTORE SWAP1 DUP3 SWAP1 DUP3 SWAP1 DUP2 DUP10 DUP2 PUSH1 0x44 DUP2 ADD PUSH2 0x39E JUMP JUMPDEST PUSH1 0x40 MLOAD PUSH3 0x461BCD PUSH1 0xE5 SHL DUP2 MSTORE PUSH1 0x4 DUP2 ADD DUP6 SWAP1 MSTORE PUSH1 0x16 PUSH1 0x24 DUP3 ADD MSTORE PUSH22 0x494E53554646494349454E545F4C4951554944495459 PUSH1 0x50 SHL PUSH1 0x44 DUP3 ADD MSTORE PUSH1 0x64 SWAP1 REVERT JUMPDEST POP PUSH1 0xA4 CALLDATALOAD DUP6 LT ISZERO PUSH2 0xA0C JUMP JUMPDEST SWAP1 SWAP5 POP DUP4 DUP2 DUP2 RETURNDATASIZE DUP4 GT PUSH2 0xAE2 JUMPI JUMPDEST PUSH2 0xAD2 DUP2 DUP4 PUSH2 0x1DE7 JUMP JUMPDEST DUP2 ADD SUB SLT PUSH2 0x49F JUMPI MLOAD SWAP4 CODESIZE PUSH2 0x9FF JUMP JUMPDEST POP RETURNDATASIZE PUSH2 0xAC8 JUMP JUMPDEST PUSH2 0xAFF SWAP1 DUP6 RETURNDATASIZE DUP8 GT PUSH2 0x3E3 JUMPI PUSH2 0x3D3 DUP2 DUP4 PUSH2 0x1DE7 JUMP JUMPDEST POP CODESIZE PUSH2 0x9CB JUMP JUMPDEST PUSH1 0x40 MLOAD RETURNDATASIZE DUP12 DUP3 RETURNDATACOPY RETURNDATASIZE SWAP1 REVERT JUMPDEST PUSH2 0xB27 SWAP1 DUP6 RETURNDATASIZE DUP8 GT PUSH2 0x3E3 JUMPI PUSH2 0x3D3 DUP2 DUP4 PUSH2 0x1DE7 JUMP JUMPDEST POP CODESIZE PUSH2 0x983 JUMP JUMPDEST PUSH1 0x40 MLOAD RETURNDATASIZE DUP14 DUP3 RETURNDATACOPY RETURNDATASIZE SWAP1 REVERT JUMPDEST PUSH1 0x40 MLOAD PUSH4 0x64E329CB PUSH1 0xE1 SHL DUP2 MSTORE PUSH1 0x1 PUSH1 0x1 PUSH1 0xA0 SHL SUB DUP5 DUP2 AND PUSH1 0x4 DUP4 ADD MSTORE DUP4 AND PUSH1 0x24 DUP3 ADD MSTORE SWAP2 SWAP5 POP SWAP1 SWAP3 POP DUP7 SWAP1 DUP4 SWAP1 PUSH1 0x44 SWAP1 DUP3 SWAP1 DUP15 SWAP1 GAS CALL DUP1 ISZERO PUSH2 0x6C9 JUMPI DUP9 SWAP3 DUP12 SWAP2 PUSH2 0xB87 JUMPI JUMPDEST POP SWAP3 CODESIZE PUSH2 0x933 JUMP JUMPDEST PUSH2 0xB9E SWAP2 POP DUP8 RETURNDATASIZE DUP10 GT PUSH2 0x851 JUMPI PUSH2 0x843 DUP2 DUP4 PUSH2 0x1DE7 JUMP JUMPDEST CODESIZE PUSH2 0xB7F JUMP JUMPDEST PUSH2 0xBBC SWAP2 SWAP6 POP DUP9 RETURNDATASIZE DUP11 GT PUSH2 0x851 JUMPI PUSH2 0x843 DUP2 DUP4 PUSH2 0x1DE7 JUMP JUMPDEST SWAP4 CODESIZE PUSH2 0x929 JUMP JUMPDEST POP CALLVALUE PUSH2 0x882 JUMPI DUP1 PUSH1 0x3 NOT CALLDATASIZE ADD SLT PUSH2 0x882 JUMPI PUSH1 0x40 MLOAD PUSH32 0x0 PUSH1 0x1 PUSH1 0x1 PUSH1 0xA0 SHL SUB AND DUP2 MSTORE PUSH1 0x20 SWAP1 RETURN JUMPDEST POP CALLVALUE PUSH2 0x882 JUMPI PUSH1 0xC0 CALLDATASIZE PUSH1 0x3 NOT ADD SLT PUSH2 0x882 JUMPI PUSH2 0xC22 PUSH2 0x1CB5 JUMP JUMPDEST SWAP1 PUSH2 0xC2B PUSH2 0x1CCB JUMP JUMPDEST PUSH1 0xA4 CALLDATALOAD SWAP3 PUSH1 0x1 PUSH1 0x1 PUSH1 0xA0 SHL SUB DUP1 DUP6 AND SWAP3 PUSH1 0x44 CALLDATALOAD SWAP3 SWAP2 SWAP1 DUP5 DUP8 SUB PUSH2 0x49F JUMPI PUSH1 0x40 MLOAD PUSH4 0xE6A43905 PUSH1 0xE0 SHL DUP2 MSTORE PUSH1 0x1 PUSH1 0x1 PUSH1 0xA0 SHL SUB DUP5 DUP2 AND PUSH1 0x4 DUP4 ADD MSTORE DUP3 AND PUSH1 0x24 DUP3 ADD MSTORE PUSH1 0x20 SWAP5 DUP6 DUP3 PUSH1 0x44 DUP2 PUSH32 0x0 DUP9 AND GAS STATICCALL SWAP2 DUP3 ISZERO PUSH2 0x4AB JUMPI DUP9 SWAP3 PUSH2 0xF1B JUMPI JUMPDEST POP DUP4 DUP3 AND SWAP2 DUP3 ISZERO PUSH2 0xEE5 JUMPI PUSH1 0x40 MLOAD PUSH4 0x23B872DD PUSH1 0xE0 SHL DUP2 MSTORE CALLER PUSH1 0x4 DUP3 ADD MSTORE PUSH1 0x1 PUSH1 0x1 PUSH1 0xA0 SHL SUB SWAP2 SWAP1 SWAP2 AND PUSH1 0x24 DUP3 ADD MSTORE PUSH1 0x44 DUP2 ADD DUP3 SWAP1 MSTORE DUP7 DUP2 PUSH1 0x64 DUP2 DUP13 DUP8 GAS CALL DUP1 ISZERO PUSH2 0xB06 JUMPI PUSH1 0x40 SWAP3 DUP11 SWAP8 SWAP7 SWAP6 SWAP5 SWAP3 PUSH1 0x24 SWAP3 PUSH2 0xEC8 JUMPI JUMPDEST POP DUP4 MLOAD SWAP11 DUP12 SWAP4 DUP5 SWAP3 PUSH4 0x9C8F9F23 PUSH1 0xE0 SHL DUP5 MSTORE PUSH1 0x4 DUP5 ADD MSTORE GAS CALL SWAP6 DUP7 ISZERO PUSH2 0xEBD JUMPI DUP5 SWAP8 DUP6 SWAP8 PUSH2 0xE7F JUMPI JUMPDEST POP PUSH1 0x64 CALLDATALOAD DUP9 LT ISZERO DUP1 PUSH2 0xE73 JUMPI JUMPDEST ISZERO PUSH2 0xE38 JUMPI ADDRESS SUB PUSH2 0xD4E JUMPI JUMPDEST PUSH1 0x40 DUP8 DUP8 DUP8 DUP4 MLOAD SWAP3 DUP4 MSTORE DUP3 ADD MSTORE RETURN JUMPDEST PUSH1 0x40 MLOAD PUSH4 0xA9059CBB PUSH1 0xE0 SHL DUP1 DUP3 MSTORE PUSH1 0x1 PUSH1 0x1 PUSH1 0xA0 SHL SUB DUP11 AND PUSH1 0x4 DUP4 ADD MSTORE PUSH1 0x24 DUP3 ADD DUP10 SWAP1 MSTORE SWAP5 SWAP9 SWAP1 SWAP4 DUP10 SWAP1 DUP8 SWAP1 DUP7 SWAP1 PUSH1 0x44 SWAP1 DUP3 SWAP1 DUP6 SWAP1 DUP10 AND GAS CALL SWAP4 DUP5 ISZERO PUSH2 0xE2B JUMPI PUSH2 0xDCA SWAP7 DUP9 SWAP7 DUP11 SWAP7 PUSH2 0xE0E JUMPI JUMPDEST POP PUSH1 0x40 MLOAD SWAP1 DUP2 MSTORE PUSH1 0x1 PUSH1 0x1 PUSH1 0xA0 SHL SUB SWAP1 SWAP4 AND PUSH1 0x4 DUP5 ADD MSTORE PUSH1 0x24 DUP4 ADD SWAP5 SWAP1 SWAP5 MSTORE SWAP1 SWAP5 DUP6 SWAP4 DUP5 SWAP3 SWAP2 DUP4 SWAP1 PUSH1 0x44 DUP3 ADD SWAP1 JUMP JUMPDEST SUB SWAP4 AND GAS CALL DUP1 ISZERO PUSH2 0xE03 JUMPI PUSH1 0x40 SWAP6 POP PUSH2 0xDE6 JUMPI JUMPDEST DUP1 DUP1 DUP1 PUSH2 0xD3F JUMP JUMPDEST PUSH2 0xDFC SWAP1 DUP3 RETURNDATASIZE DUP5 GT PUSH2 0x3E3 JUMPI PUSH2 0x3D3 DUP2 DUP4 PUSH2 0x1DE7 JUMP JUMPDEST POP CODESIZE PUSH2 0xDDE JUMP JUMPDEST PUSH1 0x40 MLOAD RETURNDATASIZE DUP8 DUP3 RETURNDATACOPY RETURNDATASIZE SWAP1 REVERT JUMPDEST PUSH2 0xE24 SWAP1 DUP9 RETURNDATASIZE DUP11 GT PUSH2 0x3E3 JUMPI PUSH2 0x3D3 DUP2 DUP4 PUSH2 0x1DE7 JUMP JUMPDEST POP CODESIZE PUSH2 0xD9B JUMP JUMPDEST POP PUSH1 0x40 MLOAD SWAP1 RETURNDATASIZE SWAP1 DUP3 RETURNDATACOPY RETURNDATASIZE SWAP1 REVERT JUMPDEST PUSH1 0x40 MLOAD PUSH3 0x461BCD PUSH1 0xE5 SHL DUP2 MSTORE PUSH1 0x4 DUP2 ADD DUP8 SWAP1 MSTORE PUSH1 0x13 PUSH1 0x24 DUP3 ADD MSTORE PUSH19 0x125394D551919250D251539517D05353D55395 PUSH1 0x6A SHL PUSH1 0x44 DUP3 ADD MSTORE PUSH1 0x64 SWAP1 REVERT JUMPDEST POP PUSH1 0x84 CALLDATALOAD DUP8 LT ISZERO PUSH2 0xD33 JUMP JUMPDEST SWAP8 POP SWAP6 POP PUSH1 0x40 DUP8 RETURNDATASIZE PUSH1 0x40 GT PUSH2 0xEB5 JUMPI JUMPDEST DUP2 PUSH2 0xE9C PUSH1 0x40 SWAP4 DUP4 PUSH2 0x1DE7 JUMP JUMPDEST DUP2 ADD SUB SLT PUSH2 0xEB1 JUMPI DUP5 DUP8 MLOAD SWAP8 ADD MLOAD SWAP6 CODESIZE PUSH2 0xD26 JUMP JUMPDEST DUP4 DUP1 REVERT JUMPDEST RETURNDATASIZE SWAP2 POP PUSH2 0xE8F JUMP JUMPDEST PUSH1 0x40 MLOAD RETURNDATASIZE DUP7 DUP3 RETURNDATACOPY RETURNDATASIZE SWAP1 REVERT JUMPDEST PUSH2 0xEDE SWAP1 DUP11 RETURNDATASIZE DUP13 GT PUSH2 0x3E3 JUMPI PUSH2 0x3D3 DUP2 DUP4 PUSH2 0x1DE7 JUMP JUMPDEST POP CODESIZE PUSH2 0xCFD JUMP JUMPDEST PUSH1 0x40 MLOAD PUSH3 0x461BCD PUSH1 0xE5 SHL DUP2 MSTORE PUSH1 0x4 DUP2 ADD DUP9 SWAP1 MSTORE PUSH1 0xE PUSH1 0x24 DUP3 ADD MSTORE PUSH14 0x1410525497D393D517D193D55391 PUSH1 0x92 SHL PUSH1 0x44 DUP3 ADD MSTORE PUSH1 0x64 SWAP1 REVERT JUMPDEST PUSH2 0xF33 SWAP2 SWAP3 POP DUP7 RETURNDATASIZE DUP9 GT PUSH2 0x851 JUMPI PUSH2 0x843 DUP2 DUP4 PUSH2 0x1DE7 JUMP JUMPDEST SWAP1 CODESIZE PUSH2 0xCA7 JUMP JUMPDEST POP CALLVALUE PUSH2 0x882 JUMPI DUP1 PUSH1 0x3 NOT CALLDATASIZE ADD SLT PUSH2 0x882 JUMPI PUSH1 0x40 MLOAD PUSH32 0x0 PUSH1 0x1 PUSH1 0x1 PUSH1 0xA0 SHL SUB AND DUP2 MSTORE PUSH1 0x20 SWAP1 RETURN JUMPDEST POP PUSH1 0x80 CALLDATASIZE PUSH1 0x3 NOT ADD SLT PUSH2 0x882 JUMPI PUSH1 0x24 CALLDATALOAD PUSH8 0xFFFFFFFFFFFFFFFF DUP2 GT PUSH2 0x16F7 JUMPI PUSH2 0xFAC SWAP1 CALLDATASIZE SWAP1 PUSH1 0x4 ADD PUSH2 0x1C84 JUMP JUMPDEST SWAP2 PUSH1 0x44 CALLDATALOAD PUSH1 0x1 PUSH1 0x1 PUSH1 0xA0 SHL SUB DUP2 AND SWAP1 SUB PUSH2 0x49F JUMPI PUSH2 0xFCE TIMESTAMP PUSH1 0x64 CALLDATALOAD LT ISZERO PUSH2 0x1D6B JUMP JUMPDEST DUP3 ISZERO PUSH2 0x16E3 JUMPI PUSH2 0x1014 PUSH2 0xFE0 DUP4 PUSH2 0x1F8C JUMP JUMPDEST PUSH32 0x0 PUSH1 0x1 PUSH1 0x1 PUSH1 0xA0 SHL SUB SWAP1 DUP2 AND SWAP2 AND EQ PUSH2 0x1FA0 JUMP JUMPDEST PUSH2 0x1020 PUSH1 0x2 DUP5 EQ PUSH2 0x1FE5 JUMP JUMPDEST CALLVALUE ISZERO PUSH2 0x1692 JUMPI PUSH1 0x0 SWAP2 PUSH32 0x0 PUSH1 0x1 PUSH1 0x1 PUSH1 0xA0 SHL SUB AND PUSH2 0x105C DUP3 PUSH2 0x1F8C JUMP JUMPDEST SWAP5 PUSH1 0x1 LT ISZERO SWAP1 DUP2 PUSH2 0x167E JUMPI PUSH1 0x20 PUSH2 0x10A8 SWAP7 PUSH2 0x1078 DUP3 DUP7 ADD PUSH2 0x1F8C JUMP JUMPDEST PUSH1 0x40 MLOAD PUSH4 0xE6A43905 PUSH1 0xE0 SHL DUP2 MSTORE PUSH1 0x1 PUSH1 0x1 PUSH1 0xA0 SHL SUB SWAP3 DUP4 AND PUSH1 0x4 DUP3 ADD MSTORE SWAP2 AND PUSH1 0x24 DUP3 ADD MSTORE SWAP7 DUP8 SWAP1 DUP2 SWAP1 PUSH1 0x44 DUP3 ADD SWAP1 JUMP JUMPDEST SUB DUP2 DUP5 GAS STATICCALL SWAP6 DUP7 ISZERO PUSH2 0xEBD JUMPI DUP5 SWAP7 PUSH2 0x165D JUMPI JUMPDEST POP PUSH1 0x1 PUSH1 0x1 PUSH1 0xA0 SHL SUB DUP7 AND ISZERO PUSH2 0x15CF JUMPI JUMPDEST POP PUSH2 0x10E1 PUSH1 0x1 PUSH1 0x1 PUSH1 0xA0 SHL SUB DUP7 AND ISZERO ISZERO PUSH2 0x1E28 JUMP JUMPDEST PUSH1 0x40 DUP1 MLOAD PUSH4 0x240BC6B PUSH1 0xE2 SHL DUP2 MSTORE SWAP2 SWAP1 DUP3 PUSH1 0x4 DUP2 PUSH1 0x1 PUSH1 0x1 PUSH1 0xA0 SHL SUB DUP11 AND GAS STATICCALL SWAP1 DUP2 ISZERO PUSH2 0xEBD JUMPI DUP5 SWAP3 DUP6 SWAP3 PUSH2 0x15AB JUMPI JUMPDEST POP PUSH1 0x1 PUSH1 0x1 PUSH1 0x70 SHL SUB DUP4 AND ISZERO DUP1 PUSH2 0x159A JUMPI JUMPDEST PUSH2 0x1555 JUMPI PUSH1 0x40 MLOAD SWAP6 PUSH2 0x1134 DUP8 PUSH2 0x1DCB JUMP JUMPDEST PUSH1 0x2 DUP8 MSTORE PUSH1 0x40 CALLDATASIZE PUSH1 0x20 DUP10 ADD CALLDATACOPY CALLVALUE PUSH2 0x114A DUP9 PUSH2 0x2049 JUMP JUMPDEST MSTORE PUSH2 0x1541 JUMPI PUSH2 0x1158 DUP5 PUSH2 0x1F8C JUMP JUMPDEST SWAP1 PUSH2 0x1541 JUMPI PUSH1 0x1 PUSH1 0x1 PUSH1 0xA0 SHL SUB PUSH2 0x1171 PUSH1 0x20 DUP7 ADD PUSH2 0x1F8C JUMP JUMPDEST AND PUSH1 0x1 PUSH1 0x1 PUSH1 0xA0 SHL SUB SWAP1 SWAP2 AND LT SWAP2 DUP3 ISZERO PUSH2 0x1533 JUMPI PUSH1 0x1 PUSH1 0x1 PUSH1 0x70 SHL SUB DUP2 JUMPDEST AND SWAP3 ISZERO PUSH2 0x152C JUMPI POP JUMPDEST PUSH2 0x11A1 DUP6 PUSH2 0x2049 JUMP JUMPDEST MLOAD SWAP1 PUSH2 0x3E5 SWAP2 DUP3 DUP2 MUL SWAP3 DUP2 DUP5 DIV EQ SWAP1 ISZERO OR ISZERO PUSH2 0x1518 JUMPI PUSH1 0x1 PUSH1 0x1 PUSH1 0x70 SHL SUB PUSH2 0x11CA SWAP2 AND DUP3 PUSH2 0x1F10 JUMP JUMPDEST SWAP2 PUSH2 0x3E8 SWAP1 DUP2 DUP2 MUL SWAP2 DUP2 DUP4 DIV EQ SWAP1 ISZERO OR ISZERO PUSH2 0x1518 JUMPI PUSH2 0x11F3 SWAP3 SWAP2 PUSH2 0x11ED SWAP2 PUSH2 0x207A JUMP JUMPDEST SWAP1 PUSH2 0x1F39 JUMP JUMPDEST PUSH2 0x11FC DUP5 PUSH2 0x2056 JUMP JUMPDEST MSTORE PUSH1 0x4 CALLDATALOAD SWAP4 PUSH2 0x1216 DUP6 PUSH2 0x120E DUP7 PUSH2 0x2056 JUMP JUMPDEST MLOAD LT ISZERO PUSH2 0x2087 JUMP JUMPDEST PUSH2 0x121F DUP5 PUSH2 0x2049 JUMP JUMPDEST MLOAD PUSH32 0x0 PUSH1 0x1 PUSH1 0x1 PUSH1 0xA0 SHL SUB AND EXTCODESIZE ISZERO PUSH2 0xEB1 JUMPI PUSH1 0x40 MLOAD PUSH4 0xD0E30DB PUSH1 0xE4 SHL DUP2 MSTORE SWAP1 DUP5 SWAP1 DUP3 SWAP1 PUSH1 0x4 SWAP1 DUP3 SWAP1 PUSH32 0x0 PUSH1 0x1 PUSH1 0x1 PUSH1 0xA0 SHL SUB AND GAS CALL DUP1 ISZERO PUSH2 0xEBD JUMPI SWAP1 DUP5 SWAP2 PUSH2 0x1500 JUMPI JUMPDEST POP POP PUSH2 0x12E2 PUSH1 0x20 PUSH2 0x12B1 DUP7 PUSH2 0x2049 JUMP JUMPDEST MLOAD PUSH1 0x40 MLOAD PUSH4 0x95EA7B3 PUSH1 0xE0 SHL DUP2 MSTORE PUSH1 0x1 PUSH1 0x1 PUSH1 0xA0 SHL SUB DUP6 AND PUSH1 0x4 DUP3 ADD MSTORE PUSH1 0x24 DUP2 ADD SWAP2 SWAP1 SWAP2 MSTORE SWAP2 DUP3 SWAP1 DUP2 SWAP1 PUSH1 0x44 DUP3 ADD SWAP1 JUMP JUMPDEST SUB DUP2 DUP8 PUSH32 0x0 PUSH1 0x1 PUSH1 0x1 PUSH1 0xA0 SHL SUB AND GAS CALL SWAP1 DUP2 ISZERO PUSH2 0xEBD JUMPI SWAP2 PUSH2 0x1330 PUSH2 0x1398 SWAP8 SWAP3 PUSH1 0x20 SWAP5 DUP8 SWAP2 PUSH2 0x14E9 JUMPI POP PUSH2 0x1E8C JUMP JUMPDEST PUSH2 0x1339 DUP7 PUSH2 0x2049 JUMP JUMPDEST MLOAD PUSH1 0x40 MLOAD PUSH4 0x43264349 PUSH1 0xE0 SHL DUP2 MSTORE PUSH1 0x4 DUP2 ADD SWAP2 SWAP1 SWAP2 MSTORE PUSH1 0x1 PUSH1 0x1 PUSH1 0xA0 SHL SUB PUSH32 0x0 AND PUSH1 0x24 DUP3 ADD MSTORE PUSH1 0x44 DUP2 ADD SWAP3 SWAP1 SWAP3 MSTORE SWAP1 SWAP6 DUP7 SWAP2 SWAP1 DUP3 SWAP1 DUP7 SWAP1 DUP3 SWAP1 PUSH1 0x64 DUP3 ADD SWAP1 JUMP JUMPDEST SUB SWAP3 PUSH1 0x1 PUSH1 0x1 PUSH1 0xA0 SHL SUB AND GAS CALL DUP1 ISZERO PUSH2 0x775 JUMPI DUP3 SWAP4 SWAP5 DUP4 SWAP2 PUSH2 0x14B1 JUMPI JUMPDEST POP PUSH1 0x20 SWAP2 PUSH2 0x141A SWAP2 PUSH2 0x13C6 DUP8 PUSH2 0x2056 JUMP JUMPDEST MSTORE PUSH1 0x1 PUSH1 0x1 PUSH1 0xA0 SHL SUB SWAP1 PUSH2 0x13DB SWAP1 DUP5 ADD PUSH2 0x1F8C JUMP JUMPDEST AND PUSH2 0x13E5 DUP7 PUSH2 0x2056 JUMP JUMPDEST MLOAD PUSH1 0x40 MLOAD PUSH4 0xA9059CBB PUSH1 0xE0 SHL DUP2 MSTORE PUSH1 0x44 DUP1 CALLDATALOAD PUSH1 0x1 PUSH1 0x1 PUSH1 0xA0 SHL SUB AND PUSH1 0x4 DUP4 ADD MSTORE PUSH1 0x24 DUP3 ADD SWAP3 SWAP1 SWAP3 MSTORE SWAP5 DUP6 SWAP4 DUP5 SWAP3 DUP4 SWAP2 SWAP1 DUP3 ADD SWAP1 JUMP JUMPDEST SUB SWAP3 GAS CALL SWAP2 DUP3 ISZERO PUSH2 0x14A5 JUMPI SWAP2 PUSH2 0x1486 JUMPI JUMPDEST POP ISZERO PUSH2 0x1441 JUMPI PUSH2 0x360 SWAP1 PUSH1 0x40 MLOAD SWAP2 DUP3 SWAP2 DUP3 PUSH2 0x1D30 JUMP JUMPDEST PUSH1 0x40 MLOAD PUSH3 0x461BCD PUSH1 0xE5 SHL DUP2 MSTORE PUSH1 0x20 PUSH1 0x4 DUP3 ADD MSTORE PUSH1 0x19 PUSH1 0x24 DUP3 ADD MSTORE PUSH32 0x4D6F6E6F537761703A205452414E534645525F4641494C454400000000000000 PUSH1 0x44 DUP3 ADD MSTORE PUSH1 0x64 SWAP1 REVERT JUMPDEST PUSH2 0x149F SWAP2 POP PUSH1 0x20 RETURNDATASIZE PUSH1 0x20 GT PUSH2 0x3E3 JUMPI PUSH2 0x3D3 DUP2 DUP4 PUSH2 0x1DE7 JUMP JUMPDEST CODESIZE PUSH2 0x142B JUMP JUMPDEST PUSH1 0x40 MLOAD SWAP1 RETURNDATASIZE SWAP1 DUP3 RETURNDATACOPY RETURNDATASIZE SWAP1 REVERT JUMPDEST SWAP3 POP POP PUSH1 0x20 DUP3 RETURNDATASIZE PUSH1 0x20 GT PUSH2 0x14E1 JUMPI JUMPDEST DUP2 PUSH2 0x14CD PUSH1 0x20 SWAP4 DUP4 PUSH2 0x1DE7 JUMP JUMPDEST DUP2 ADD SUB SLT PUSH2 0x49F JUMPI SWAP1 MLOAD DUP3 SWAP2 SWAP1 PUSH1 0x20 PUSH2 0x13B5 JUMP JUMPDEST RETURNDATASIZE SWAP2 POP PUSH2 0x14C0 JUMP JUMPDEST PUSH2 0x6EB SWAP2 POP DUP6 RETURNDATASIZE DUP8 GT PUSH2 0x3E3 JUMPI PUSH2 0x3D3 DUP2 DUP4 PUSH2 0x1DE7 JUMP JUMPDEST PUSH2 0x1509 SWAP1 PUSH2 0x1DA1 JUMP JUMPDEST PUSH2 0x1514 JUMPI DUP3 CODESIZE PUSH2 0x12A1 JUMP JUMPDEST DUP3 DUP1 REVERT JUMPDEST PUSH4 0x4E487B71 PUSH1 0xE0 SHL DUP6 MSTORE PUSH1 0x11 PUSH1 0x4 MSTORE PUSH1 0x24 DUP6 REVERT JUMPDEST SWAP1 POP PUSH2 0x1198 JUMP JUMPDEST PUSH1 0x1 PUSH1 0x1 PUSH1 0x70 SHL SUB DUP3 PUSH2 0x118F JUMP JUMPDEST PUSH4 0x4E487B71 PUSH1 0xE0 SHL DUP6 MSTORE PUSH1 0x32 PUSH1 0x4 MSTORE PUSH1 0x24 DUP6 REVERT JUMPDEST PUSH1 0x40 MLOAD PUSH3 0x461BCD PUSH1 0xE5 SHL DUP2 MSTORE PUSH1 0x20 PUSH1 0x4 DUP3 ADD DUP2 SWAP1 MSTORE PUSH1 0x24 DUP3 ADD MSTORE PUSH32 0x4D6F6E6F537761703A20494E53554646494349454E545F4C4951554944495459 PUSH1 0x44 DUP3 ADD MSTORE PUSH1 0x64 SWAP1 REVERT JUMPDEST POP PUSH1 0x1 PUSH1 0x1 PUSH1 0x70 SHL SUB DUP3 AND ISZERO PUSH2 0x1123 JUMP JUMPDEST SWAP1 SWAP3 POP PUSH2 0x15C7 SWAP2 POP PUSH1 0x40 RETURNDATASIZE PUSH1 0x40 GT PUSH2 0x6C2 JUMPI PUSH2 0x6B3 DUP2 DUP4 PUSH2 0x1DE7 JUMP JUMPDEST SWAP1 SWAP2 CODESIZE PUSH2 0x1111 JUMP JUMPDEST SWAP5 POP POP PUSH2 0x1624 PUSH1 0x20 PUSH2 0x15E0 DUP4 PUSH2 0x1F8C JUMP JUMPDEST PUSH1 0x0 SWAP7 PUSH2 0x15EE DUP4 DUP7 ADD PUSH2 0x1F8C JUMP JUMPDEST PUSH1 0x40 MLOAD PUSH4 0x64E329CB PUSH1 0xE1 SHL DUP2 MSTORE PUSH1 0x1 PUSH1 0x1 PUSH1 0xA0 SHL SUB SWAP4 DUP5 AND PUSH1 0x4 DUP3 ADD MSTORE SWAP3 AND PUSH1 0x24 DUP4 ADD MSTORE SWAP1 SWAP3 DUP4 SWAP2 SWAP1 DUP3 SWAP1 DUP8 SWAP1 DUP3 SWAP1 PUSH1 0x44 DUP3 ADD SWAP1 JUMP JUMPDEST SUB SWAP3 GAS CALL SWAP1 DUP2 ISZERO PUSH2 0x877 JUMPI DUP4 SWAP2 PUSH2 0x163E JUMPI JUMPDEST POP SWAP4 CODESIZE PUSH2 0x10CC JUMP JUMPDEST PUSH2 0x1657 SWAP2 POP PUSH1 0x20 RETURNDATASIZE PUSH1 0x20 GT PUSH2 0x851 JUMPI PUSH2 0x843 DUP2 DUP4 PUSH2 0x1DE7 JUMP JUMPDEST CODESIZE PUSH2 0x1636 JUMP JUMPDEST PUSH2 0x1677 SWAP2 SWAP7 POP PUSH1 0x20 RETURNDATASIZE PUSH1 0x20 GT PUSH2 0x851 JUMPI PUSH2 0x843 DUP2 DUP4 PUSH2 0x1DE7 JUMP JUMPDEST SWAP5 CODESIZE PUSH2 0x10BB JUMP JUMPDEST PUSH4 0x4E487B71 PUSH1 0xE0 SHL DUP5 MSTORE PUSH1 0x32 PUSH1 0x4 MSTORE PUSH1 0x24 DUP5 REVERT JUMPDEST PUSH1 0x40 MLOAD PUSH3 0x461BCD PUSH1 0xE5 SHL DUP2 MSTORE PUSH1 0x20 PUSH1 0x4 DUP3 ADD MSTORE PUSH1 0x23 PUSH1 0x24 DUP3 ADD MSTORE PUSH32 0x4D6F6E6F537761703A20494E53554646494349454E545F494E5055545F414D4F PUSH1 0x44 DUP3 ADD MSTORE PUSH3 0x155395 PUSH1 0xEA SHL PUSH1 0x64 DUP3 ADD MSTORE PUSH1 0x84 SWAP1 REVERT JUMPDEST PUSH4 0x4E487B71 PUSH1 0xE0 SHL DUP2 MSTORE PUSH1 0x32 PUSH1 0x4 MSTORE PUSH1 0x24 SWAP1 REVERT JUMPDEST POP DUP1 REVERT JUMPDEST POP CALLVALUE PUSH2 0x882 JUMPI PUSH2 0x360 PUSH2 0x1729 PUSH2 0x1724 PUSH2 0x1713 CALLDATASIZE PUSH2 0x1CE1 JUMP JUMPDEST SWAP6 SWAP1 SWAP6 SWAP5 SWAP2 SWAP5 SWAP4 SWAP3 SWAP4 TIMESTAMP GT ISZERO PUSH2 0x1D6B JUMP JUMPDEST PUSH2 0x2132 JUMP JUMPDEST PUSH1 0x40 MLOAD SWAP2 DUP3 SWAP2 DUP3 PUSH2 0x1D30 JUMP JUMPDEST POP CALLVALUE PUSH2 0x882 JUMPI PUSH2 0x1757 PUSH2 0x1747 CALLDATASIZE PUSH2 0x1CE1 JUMP JUMPDEST SWAP7 SWAP4 SWAP3 SWAP2 SWAP6 SWAP1 SWAP5 SWAP7 TIMESTAMP GT ISZERO PUSH2 0x1D6B JUMP JUMPDEST PUSH1 0x0 NOT DUP6 ADD DUP6 DUP2 GT PUSH2 0x1C70 JUMPI SWAP1 PUSH2 0x177B PUSH2 0x1776 PUSH2 0x17B3 SWAP5 SWAP4 DUP9 DUP5 PUSH2 0x1F66 JUMP JUMPDEST PUSH2 0x1F8C JUMP JUMPDEST PUSH1 0x1 PUSH1 0x1 PUSH1 0xA0 SHL SUB PUSH32 0x0 DUP2 AND SWAP5 SWAP1 SWAP3 SWAP2 DUP4 AND DUP6 EQ PUSH2 0x1FA0 JUMP JUMPDEST PUSH2 0x17BF PUSH1 0x2 DUP9 EQ PUSH2 0x1FE5 JUMP JUMPDEST DUP7 ISZERO PUSH2 0x1541 JUMPI PUSH2 0x17CE DUP2 PUSH2 0x1F8C JUMP JUMPDEST SWAP7 PUSH1 0x1 LT ISZERO PUSH2 0x1541 JUMPI PUSH2 0x1819 PUSH1 0x20 DUP1 SWAP9 PUSH2 0x17E9 DUP3 DUP6 ADD PUSH2 0x1F8C JUMP JUMPDEST PUSH1 0x40 MLOAD PUSH4 0xE6A43905 PUSH1 0xE0 SHL DUP2 MSTORE PUSH1 0x1 PUSH1 0x1 PUSH1 0xA0 SHL SUB SWAP3 DUP4 AND PUSH1 0x4 DUP3 ADD MSTORE SWAP2 AND PUSH1 0x24 DUP3 ADD MSTORE SWAP2 DUP3 SWAP1 DUP2 SWAP1 PUSH1 0x44 DUP3 ADD SWAP1 JUMP JUMPDEST SUB DUP2 DUP7 PUSH32 0x0 AND GAS STATICCALL SWAP1 DUP2 ISZERO PUSH2 0x3EA JUMPI DUP7 SWAP2 PUSH2 0x1C53 JUMPI JUMPDEST POP DUP3 DUP2 AND SWAP3 PUSH2 0x185E DUP5 ISZERO ISZERO PUSH2 0x20DF JUMP JUMPDEST PUSH1 0x40 MLOAD SWAP10 PUSH2 0x186B DUP12 PUSH2 0x1DCB JUMP JUMPDEST PUSH1 0x2 DUP12 MSTORE PUSH1 0x40 CALLDATASIZE DUP12 DUP14 ADD CALLDATACOPY PUSH2 0x187F DUP12 PUSH2 0x2049 JUMP JUMPDEST MSTORE PUSH1 0x40 DUP1 MLOAD PUSH4 0x240BC6B PUSH1 0xE2 SHL DUP2 MSTORE SWAP1 DUP2 PUSH1 0x4 DUP2 DUP9 GAS STATICCALL DUP1 ISZERO PUSH2 0x4AB JUMPI DUP9 SWAP2 DUP10 SWAP2 PUSH2 0x1C32 JUMPI JUMPDEST POP PUSH1 0x1 PUSH1 0x1 PUSH1 0x70 SHL SUB SWAP1 DUP2 DUP4 AND ISZERO ISZERO DUP1 PUSH2 0x1C27 JUMPI JUMPDEST PUSH2 0x18C3 SWAP1 PUSH2 0x212B JUMP JUMPDEST DUP12 DUP5 DUP1 PUSH2 0x18DA PUSH2 0x18D2 DUP11 PUSH2 0x1F8C JUMP JUMPDEST SWAP4 DUP11 ADD PUSH2 0x1F8C JUMP JUMPDEST AND SWAP2 AND LT SWAP3 DUP4 ISZERO PUSH2 0x1C20 JUMPI DUP3 DUP2 JUMPDEST AND SWAP4 ISZERO PUSH2 0x1C18 JUMPI POP SWAP1 JUMPDEST PUSH2 0x18FB DUP14 PUSH2 0x2049 JUMP JUMPDEST MLOAD SWAP2 PUSH2 0x3E5 SWAP3 DUP4 DUP2 MUL SWAP4 DUP2 DUP6 DIV EQ SWAP1 ISZERO OR ISZERO PUSH2 0x1C04 JUMPI PUSH2 0x191C SWAP2 AND DUP3 PUSH2 0x1F10 JUMP JUMPDEST SWAP2 PUSH2 0x3E8 SWAP1 DUP2 DUP2 MUL SWAP2 DUP2 DUP4 DIV EQ SWAP1 ISZERO OR ISZERO PUSH2 0x1BF0 JUMPI PUSH2 0x193F SWAP3 SWAP2 PUSH2 0x11ED SWAP2 PUSH2 0x207A JUMP JUMPDEST PUSH2 0x1948 DUP12 PUSH2 0x2056 JUMP JUMPDEST MSTORE PUSH2 0x1956 DUP6 PUSH2 0x120E DUP13 PUSH2 0x2056 JUMP JUMPDEST DUP7 DUP10 PUSH2 0x19A1 DUP13 PUSH2 0x1970 DUP6 PUSH2 0x1969 DUP10 PUSH2 0x1F8C JUMP JUMPDEST AND SWAP2 PUSH2 0x2049 JUMP JUMPDEST MLOAD PUSH1 0x40 MLOAD PUSH4 0x23B872DD PUSH1 0xE0 SHL DUP2 MSTORE CALLER PUSH1 0x4 DUP3 ADD MSTORE ADDRESS PUSH1 0x24 DUP3 ADD MSTORE PUSH1 0x44 DUP2 ADD SWAP2 SWAP1 SWAP2 MSTORE SWAP4 DUP5 SWAP3 DUP4 SWAP2 SWAP1 DUP3 SWAP1 PUSH1 0x64 DUP3 ADD SWAP1 JUMP JUMPDEST SUB SWAP3 GAS CALL DUP1 ISZERO PUSH2 0x4AB JUMPI SWAP2 PUSH2 0x1A01 SWAP4 SWAP2 DUP12 SWAP4 PUSH2 0x1BD3 JUMPI JUMPDEST POP PUSH2 0x19C2 DUP6 PUSH2 0x1F8C JUMP JUMPDEST AND PUSH2 0x19CC DUP13 PUSH2 0x2049 JUMP JUMPDEST MLOAD PUSH1 0x40 MLOAD PUSH4 0x95EA7B3 PUSH1 0xE0 SHL DUP2 MSTORE PUSH1 0x1 PUSH1 0x1 PUSH1 0xA0 SHL SUB SWAP1 SWAP4 AND PUSH1 0x4 DUP5 ADD MSTORE PUSH1 0x24 DUP4 ADD MSTORE SWAP1 SWAP3 DUP4 SWAP2 SWAP1 DUP3 SWAP1 DUP11 SWAP1 DUP3 SWAP1 PUSH1 0x44 DUP3 ADD SWAP1 JUMP JUMPDEST SUB SWAP3 GAS CALL DUP1 ISZERO PUSH2 0x3EA JUMPI SWAP2 DUP9 SWAP4 SWAP2 PUSH2 0x1A67 SWAP6 SWAP4 PUSH2 0x1BB6 JUMPI JUMPDEST POP DUP7 PUSH2 0x1A2E PUSH2 0x1A27 DUP13 PUSH2 0x2049 JUMP JUMPDEST MLOAD SWAP3 PUSH2 0x1F8C JUMP JUMPDEST PUSH1 0x40 MLOAD PUSH4 0x43264349 PUSH1 0xE0 SHL DUP2 MSTORE PUSH1 0x4 DUP2 ADD SWAP4 SWAP1 SWAP4 MSTORE PUSH1 0x1 PUSH1 0x1 PUSH1 0xA0 SHL SUB AND PUSH1 0x24 DUP4 ADD MSTORE PUSH1 0x44 DUP3 ADD SWAP4 SWAP1 SWAP4 MSTORE SWAP4 DUP5 SWAP3 DUP4 SWAP2 DUP3 SWAP1 PUSH1 0x64 DUP3 ADD SWAP1 JUMP JUMPDEST SUB SWAP3 GAS CALL SWAP1 DUP2 ISZERO PUSH2 0x877 JUMPI DUP4 SWAP2 PUSH2 0x1B89 JUMPI JUMPDEST POP PUSH2 0x1A83 DUP7 PUSH2 0x2056 JUMP JUMPDEST MSTORE PUSH2 0x1A8D DUP6 PUSH2 0x2056 JUMP JUMPDEST MLOAD DUP2 EXTCODESIZE ISZERO PUSH2 0x1514 JUMPI DUP3 SWAP2 PUSH1 0x24 DUP4 SWAP3 PUSH1 0x40 MLOAD SWAP5 DUP6 SWAP4 DUP5 SWAP3 PUSH4 0x2E1A7D4D PUSH1 0xE0 SHL DUP5 MSTORE PUSH1 0x4 DUP5 ADD MSTORE GAS CALL DUP1 ISZERO PUSH2 0x775 JUMPI PUSH2 0x1B7A JUMPI JUMPDEST POP DUP1 DUP1 DUP1 DUP1 SWAP5 PUSH2 0x1ACE DUP9 PUSH2 0x2056 JUMP JUMPDEST MLOAD SWAP1 GAS CALL SWAP1 RETURNDATASIZE ISZERO PUSH2 0x1B74 JUMPI RETURNDATASIZE SWAP1 PUSH8 0xFFFFFFFFFFFFFFFF DUP3 GT PUSH2 0x1B60 JUMPI PUSH1 0x40 MLOAD SWAP2 PUSH2 0x1B01 PUSH1 0x1F DUP3 ADD PUSH1 0x1F NOT AND DUP7 ADD DUP5 PUSH2 0x1DE7 JUMP JUMPDEST DUP3 MSTORE DUP4 RETURNDATASIZE SWAP3 ADD RETURNDATACOPY JUMPDEST ISZERO PUSH2 0x1B1C JUMPI PUSH1 0x40 MLOAD DUP1 PUSH2 0x360 DUP5 DUP3 PUSH2 0x1D30 JUMP JUMPDEST PUSH1 0x64 SWAP1 PUSH1 0x40 MLOAD SWAP1 PUSH3 0x461BCD PUSH1 0xE5 SHL DUP3 MSTORE PUSH1 0x4 DUP3 ADD MSTORE PUSH1 0x1D PUSH1 0x24 DUP3 ADD MSTORE PUSH32 0x4D6F6E6F537761703A204554485F5452414E534645525F4641494C4544000000 PUSH1 0x44 DUP3 ADD MSTORE REVERT JUMPDEST PUSH4 0x4E487B71 PUSH1 0xE0 SHL DUP2 MSTORE PUSH1 0x41 PUSH1 0x4 MSTORE PUSH1 0x24 SWAP1 REVERT JUMPDEST POP PUSH2 0x1B09 JUMP JUMPDEST PUSH2 0x1B83 SWAP1 PUSH2 0x1DA1 JUMP JUMPDEST CODESIZE PUSH2 0x1ABF JUMP JUMPDEST SWAP1 POP DUP5 DUP2 DUP2 RETURNDATASIZE DUP4 GT PUSH2 0x1BAF JUMPI JUMPDEST PUSH2 0x1BA0 DUP2 DUP4 PUSH2 0x1DE7 JUMP JUMPDEST DUP2 ADD SUB SLT PUSH2 0x1514 JUMPI MLOAD CODESIZE PUSH2 0x1A79 JUMP JUMPDEST POP RETURNDATASIZE PUSH2 0x1B96 JUMP JUMPDEST PUSH2 0x1BCC SWAP1 DUP6 RETURNDATASIZE DUP8 GT PUSH2 0x3E3 JUMPI PUSH2 0x3D3 DUP2 DUP4 PUSH2 0x1DE7 JUMP JUMPDEST POP CODESIZE PUSH2 0x1A19 JUMP JUMPDEST PUSH2 0x1BE9 SWAP1 DUP5 RETURNDATASIZE DUP7 GT PUSH2 0x3E3 JUMPI PUSH2 0x3D3 DUP2 DUP4 PUSH2 0x1DE7 JUMP JUMPDEST POP CODESIZE PUSH2 0x19B8 JUMP JUMPDEST PUSH4 0x4E487B71 PUSH1 0xE0 SHL DUP11 MSTORE PUSH1 0x11 PUSH1 0x4 MSTORE PUSH1 0x24 DUP11 REVERT JUMPDEST PUSH4 0x4E487B71 PUSH1 0xE0 SHL DUP12 MSTORE PUSH1 0x11 PUSH1 0x4 MSTORE PUSH1 0x24 DUP12 REVERT JUMPDEST SWAP1 POP SWAP1 PUSH2 0x18F2 JUMP JUMPDEST DUP3 DUP3 PUSH2 0x18E8 JUMP JUMPDEST POP DUP1 DUP3 AND ISZERO ISZERO PUSH2 0x18BA JUMP JUMPDEST SWAP1 POP PUSH2 0x1C4D SWAP2 POP PUSH1 0x40 RETURNDATASIZE PUSH1 0x40 GT PUSH2 0x6C2 JUMPI PUSH2 0x6B3 DUP2 DUP4 PUSH2 0x1DE7 JUMP JUMPDEST CODESIZE PUSH2 0x18A5 JUMP JUMPDEST PUSH2 0x1C6A SWAP2 POP DUP9 RETURNDATASIZE DUP11 GT PUSH2 0x851 JUMPI PUSH2 0x843 DUP2 DUP4 PUSH2 0x1DE7 JUMP JUMPDEST CODESIZE PUSH2 0x184E JUMP JUMPDEST PUSH4 0x4E487B71 PUSH1 0xE0 SHL DUP5 MSTORE PUSH1 0x11 PUSH1 0x4 MSTORE PUSH1 0x24 DUP5 REVERT JUMPDEST SWAP2 DUP2 PUSH1 0x1F DUP5 ADD SLT ISZERO PUSH2 0x49F JUMPI DUP3 CALLDATALOAD SWAP2 PUSH8 0xFFFFFFFFFFFFFFFF DUP4 GT PUSH2 0x49F JUMPI PUSH1 0x20 DUP1 DUP6 ADD SWAP5 DUP5 PUSH1 0x5 SHL ADD ADD GT PUSH2 0x49F JUMPI JUMP JUMPDEST PUSH1 0x4 CALLDATALOAD SWAP1 PUSH1 0x1 PUSH1 0x1 PUSH1 0xA0 SHL SUB DUP3 AND DUP3 SUB PUSH2 0x49F JUMPI JUMP JUMPDEST PUSH1 0x24 CALLDATALOAD SWAP1 PUSH1 0x1 PUSH1 0x1 PUSH1 0xA0 SHL SUB DUP3 AND DUP3 SUB PUSH2 0x49F JUMPI JUMP JUMPDEST PUSH1 0xA0 PUSH1 0x3 NOT DUP3 ADD SLT PUSH2 0x49F JUMPI PUSH1 0x4 CALLDATALOAD SWAP2 PUSH1 0x24 CALLDATALOAD SWAP2 PUSH1 0x44 CALLDATALOAD SWAP1 PUSH8 0xFFFFFFFFFFFFFFFF DUP3 GT PUSH2 0x49F JUMPI PUSH2 0x1D14 SWAP2 PUSH1 0x4 ADD PUSH2 0x1C84 JUMP JUMPDEST SWAP1 SWAP2 PUSH1 0x64 CALLDATALOAD PUSH1 0x1 PUSH1 0x1 PUSH1 0xA0 SHL SUB DUP2 AND DUP2 SUB PUSH2 0x49F JUMPI SWAP1 PUSH1 0x84 CALLDATALOAD SWAP1 JUMP JUMPDEST PUSH1 0x20 SWAP1 DUP2 PUSH1 0x40 DUP2 DUP4 ADD SWAP3 DUP3 DUP2 MSTORE DUP6 MLOAD DUP1 SWAP5 MSTORE ADD SWAP4 ADD SWAP2 PUSH1 0x0 JUMPDEST DUP3 DUP2 LT PUSH2 0x1D57 JUMPI POP POP POP POP SWAP1 JUMP JUMPDEST DUP4 MLOAD DUP6 MSTORE SWAP4 DUP2 ADD SWAP4 SWAP3 DUP2 ADD SWAP3 PUSH1 0x1 ADD PUSH2 0x1D49 JUMP JUMPDEST ISZERO PUSH2 0x1D72 JUMPI JUMP JUMPDEST PUSH1 0x40 MLOAD PUSH3 0x461BCD PUSH1 0xE5 SHL DUP2 MSTORE PUSH1 0x20 PUSH1 0x4 DUP3 ADD MSTORE PUSH1 0x7 PUSH1 0x24 DUP3 ADD MSTORE PUSH7 0x11561412549151 PUSH1 0xCA SHL PUSH1 0x44 DUP3 ADD MSTORE PUSH1 0x64 SWAP1 REVERT JUMPDEST PUSH8 0xFFFFFFFFFFFFFFFF DUP2 GT PUSH2 0x1DB5 JUMPI PUSH1 0x40 MSTORE JUMP JUMPDEST PUSH4 0x4E487B71 PUSH1 0xE0 SHL PUSH1 0x0 MSTORE PUSH1 0x41 PUSH1 0x4 MSTORE PUSH1 0x24 PUSH1 0x0 REVERT JUMPDEST PUSH1 0x60 DUP2 ADD SWAP1 DUP2 LT PUSH8 0xFFFFFFFFFFFFFFFF DUP3 GT OR PUSH2 0x1DB5 JUMPI PUSH1 0x40 MSTORE JUMP JUMPDEST SWAP1 PUSH1 0x1F DUP1 NOT SWAP2 ADD AND DUP2 ADD SWAP1 DUP2 LT PUSH8 0xFFFFFFFFFFFFFFFF DUP3 GT OR PUSH2 0x1DB5 JUMPI PUSH1 0x40 MSTORE JUMP JUMPDEST SWAP1 DUP2 PUSH1 0x20 SWAP2 SUB SLT PUSH2 0x49F JUMPI MLOAD PUSH1 0x1 PUSH1 0x1 PUSH1 0xA0 SHL SUB DUP2 AND DUP2 SUB PUSH2 0x49F JUMPI SWAP1 JUMP JUMPDEST ISZERO PUSH2 0x1E2F JUMPI JUMP JUMPDEST PUSH1 0x40 MLOAD PUSH3 0x461BCD PUSH1 0xE5 SHL DUP2 MSTORE PUSH1 0x20 PUSH1 0x4 DUP3 ADD MSTORE PUSH1 0x1E PUSH1 0x24 DUP3 ADD MSTORE PUSH32 0x4D6F6E6F537761703A20504149525F4352454154494F4E5F4641494C45440000 PUSH1 0x44 DUP3 ADD MSTORE PUSH1 0x64 SWAP1 REVERT JUMPDEST SWAP1 DUP2 PUSH1 0x20 SWAP2 SUB SLT PUSH2 0x49F JUMPI MLOAD DUP1 ISZERO ISZERO DUP2 SUB PUSH2 0x49F JUMPI SWAP1 JUMP JUMPDEST ISZERO PUSH2 0x1E93 JUMPI JUMP JUMPDEST PUSH1 0x40 MLOAD PUSH3 0x461BCD PUSH1 0xE5 SHL DUP2 MSTORE PUSH1 0x20 PUSH1 0x4 DUP3 ADD MSTORE PUSH1 0x1E PUSH1 0x24 DUP3 ADD MSTORE PUSH32 0x4D6F6E6F537761703A20574554485F415050524F56414C5F4641494C45440000 PUSH1 0x44 DUP3 ADD MSTORE PUSH1 0x64 SWAP1 REVERT JUMPDEST MLOAD SWAP1 PUSH1 0x1 PUSH1 0x1 PUSH1 0x70 SHL SUB DUP3 AND DUP3 SUB PUSH2 0x49F JUMPI JUMP JUMPDEST SWAP2 SWAP1 DUP3 PUSH1 0x40 SWAP2 SUB SLT PUSH2 0x49F JUMPI PUSH2 0x1F0D PUSH1 0x20 PUSH2 0x1F06 DUP5 PUSH2 0x1ED8 JUMP JUMPDEST SWAP4 ADD PUSH2 0x1ED8 JUMP JUMPDEST SWAP1 JUMP JUMPDEST DUP2 DUP2 MUL SWAP3 SWAP2 DUP2 ISZERO SWAP2 DUP5 DIV EQ OR ISZERO PUSH2 0x1F23 JUMPI JUMP JUMPDEST PUSH4 0x4E487B71 PUSH1 0xE0 SHL PUSH1 0x0 MSTORE PUSH1 0x11 PUSH1 0x4 MSTORE PUSH1 0x24 PUSH1 0x0 REVERT JUMPDEST DUP2 ISZERO PUSH2 0x1F43 JUMPI DIV SWAP1 JUMP JUMPDEST PUSH4 0x4E487B71 PUSH1 0xE0 SHL PUSH1 0x0 MSTORE PUSH1 0x12 PUSH1 0x4 MSTORE PUSH1 0x24 PUSH1 0x0 REVERT JUMPDEST SWAP2 SWAP1 DUP3 SUB SWAP2 DUP3 GT PUSH2 0x1F23 JUMPI JUMP JUMPDEST SWAP2 SWAP1 DUP2 LT ISZERO PUSH2 0x1F76 JUMPI PUSH1 0x5 SHL ADD SWAP1 JUMP JUMPDEST PUSH4 0x4E487B71 PUSH1 0xE0 SHL PUSH1 0x0 MSTORE PUSH1 0x32 PUSH1 0x4 MSTORE PUSH1 0x24 PUSH1 0x0 REVERT JUMPDEST CALLDATALOAD PUSH1 0x1 PUSH1 0x1 PUSH1 0xA0 SHL SUB DUP2 AND DUP2 SUB PUSH2 0x49F JUMPI SWAP1 JUMP JUMPDEST ISZERO PUSH2 0x1FA7 JUMPI JUMP JUMPDEST PUSH1 0x40 MLOAD PUSH3 0x461BCD PUSH1 0xE5 SHL DUP2 MSTORE PUSH1 0x20 PUSH1 0x4 DUP3 ADD MSTORE PUSH1 0x16 PUSH1 0x24 DUP3 ADD MSTORE PUSH22 0x9ADEDCDEA6EEC2E07440929CAC82989288BEA082A89 PUSH1 0x53 SHL PUSH1 0x44 DUP3 ADD MSTORE PUSH1 0x64 SWAP1 REVERT JUMPDEST ISZERO PUSH2 0x1FEC JUMPI JUMP JUMPDEST PUSH1 0x40 MLOAD PUSH3 0x461BCD PUSH1 0xE5 SHL DUP2 MSTORE PUSH1 0x20 PUSH1 0x4 DUP3 ADD MSTORE PUSH1 0x1D PUSH1 0x24 DUP3 ADD MSTORE PUSH32 0x4D6F6E6F537761703A20494E56414C49445F504154485F4C454E475448000000 PUSH1 0x44 DUP3 ADD MSTORE PUSH1 0x64 SWAP1 REVERT JUMPDEST PUSH8 0xFFFFFFFFFFFFFFFF DUP2 GT PUSH2 0x1DB5 JUMPI PUSH1 0x5 SHL PUSH1 0x20 ADD SWAP1 JUMP JUMPDEST DUP1 MLOAD ISZERO PUSH2 0x1F76 JUMPI PUSH1 0x20 ADD SWAP1 JUMP JUMPDEST DUP1 MLOAD PUSH1 0x1 LT ISZERO PUSH2 0x1F76 JUMPI PUSH1 0x40 ADD SWAP1 JUMP JUMPDEST DUP1 MLOAD DUP3 LT ISZERO PUSH2 0x1F76 JUMPI PUSH1 0x20 SWAP2 PUSH1 0x5 SHL ADD ADD SWAP1 JUMP JUMPDEST SWAP2 SWAP1 DUP3 ADD DUP1 SWAP3 GT PUSH2 0x1F23 JUMPI JUMP JUMPDEST ISZERO PUSH2 0x208E JUMPI JUMP JUMPDEST PUSH1 0x40 MLOAD PUSH3 0x461BCD PUSH1 0xE5 SHL DUP2 MSTORE PUSH1 0x20 PUSH1 0x4 DUP3 ADD MSTORE PUSH1 0x24 DUP1 DUP3 ADD MSTORE PUSH32 0x4D6F6E6F537761703A20494E53554646494349454E545F4F55545055545F414D PUSH1 0x44 DUP3 ADD MSTORE PUSH4 0x13D55395 PUSH1 0xE2 SHL PUSH1 0x64 DUP3 ADD MSTORE PUSH1 0x84 SWAP1 REVERT JUMPDEST ISZERO PUSH2 0x20E6 JUMPI JUMP JUMPDEST PUSH1 0x40 MLOAD PUSH3 0x461BCD PUSH1 0xE5 SHL DUP2 MSTORE PUSH1 0x20 PUSH1 0x4 DUP3 ADD MSTORE PUSH1 0x19 PUSH1 0x24 DUP3 ADD MSTORE PUSH32 0x4D6F6E6F537761703A20504149525F4E4F545F45584953545300000000000000 PUSH1 0x44 DUP3 ADD MSTORE PUSH1 0x64 SWAP1 REVERT JUMPDEST ISZERO PUSH2 0x1555 JUMPI JUMP JUMPDEST SWAP3 SWAP2 SWAP4 SWAP5 SWAP1 PUSH2 0x2144 PUSH1 0x2 DUP5 LT ISZERO PUSH2 0x1FA0 JUMP JUMPDEST PUSH2 0x214D DUP4 PUSH2 0x2031 JUMP JUMPDEST PUSH2 0x215A PUSH1 0x40 MLOAD SWAP2 DUP3 PUSH2 0x1DE7 JUMP JUMPDEST DUP4 DUP2 MSTORE PUSH1 0x1F NOT PUSH2 0x2169 DUP6 PUSH2 0x2031 JUMP JUMPDEST ADD CALLDATASIZE PUSH1 0x20 DUP4 ADD CALLDATACOPY DUP1 SWAP5 PUSH2 0x217B DUP3 PUSH2 0x2049 JUMP JUMPDEST MSTORE PUSH1 0x2 DUP5 EQ PUSH2 0x2620 JUMPI POP PUSH1 0x0 JUMPDEST PUSH1 0x0 NOT DUP5 ADD DUP5 DUP2 GT PUSH2 0x1F23 JUMPI DUP2 LT ISZERO PUSH2 0x2575 JUMPI PUSH2 0x21A9 PUSH2 0x1776 DUP3 DUP7 DUP10 PUSH2 0x1F66 JUMP JUMPDEST PUSH1 0x1 DUP3 ADD DUP3 GT PUSH2 0x1F23 JUMPI PUSH1 0x20 PUSH2 0x21CA SWAP2 PUSH2 0x17E9 PUSH2 0x1776 PUSH1 0x1 DUP7 ADD DUP10 DUP13 PUSH2 0x1F66 JUMP JUMPDEST SUB DUP2 PUSH32 0x0 PUSH1 0x1 PUSH1 0x1 PUSH1 0xA0 SHL SUB AND GAS STATICCALL SWAP1 DUP2 ISZERO PUSH2 0x245E JUMPI PUSH1 0x0 SWAP2 PUSH2 0x2556 JUMPI JUMPDEST POP PUSH2 0x221C PUSH1 0x1 PUSH1 0x1 PUSH1 0xA0 SHL SUB DUP3 AND ISZERO ISZERO PUSH2 0x20DF JUMP JUMPDEST PUSH1 0x40 DUP1 MLOAD PUSH4 0x240BC6B PUSH1 0xE2 SHL DUP2 MSTORE SWAP1 DUP2 PUSH1 0x4 DUP2 PUSH1 0x1 PUSH1 0x1 PUSH1 0xA0 SHL SUB DUP7 AND GAS STATICCALL SWAP1 DUP2 ISZERO PUSH2 0x245E JUMPI PUSH1 0x0 SWAP1 DUP2 SWAP3 PUSH2 0x2534 JUMPI JUMPDEST POP PUSH1 0x1 PUSH1 0x1 PUSH1 0x70 SHL SUB SWAP2 DUP3 DUP3 AND ISZERO ISZERO DUP1 PUSH2 0x2529 JUMPI JUMPDEST PUSH2 0x226A SWAP1 PUSH2 0x212B JUMP JUMPDEST PUSH2 0x2278 PUSH2 0x1776 DUP7 DUP11 DUP14 PUSH2 0x1F66 JUMP JUMPDEST PUSH1 0x1 PUSH1 0x1 PUSH1 0xA0 SHL SUB PUSH2 0x2291 PUSH2 0x1776 PUSH1 0x1 DUP10 ADD DUP13 DUP16 PUSH2 0x1F66 JUMP JUMPDEST AND PUSH1 0x1 PUSH1 0x1 PUSH1 0xA0 SHL SUB SWAP1 SWAP2 AND LT SWAP2 DUP3 ISZERO PUSH2 0x2522 JUMPI DUP4 DUP2 JUMPDEST AND SWAP3 ISZERO PUSH2 0x251B JUMPI POP JUMPDEST PUSH2 0x22BB DUP6 DUP11 PUSH2 0x2066 JUMP JUMPDEST MLOAD SWAP1 PUSH2 0x3E5 SWAP4 DUP3 DUP6 DUP2 MUL DIV DUP6 EQ DUP4 ISZERO OR ISZERO PUSH2 0x1F23 JUMPI PUSH2 0x22DD SWAP2 AND DUP5 DUP4 MUL PUSH2 0x1F10 JUMP JUMPDEST SWAP2 PUSH2 0x3E8 DUP2 DUP2 DUP2 MUL DIV DUP2 EQ DUP3 ISZERO OR ISZERO PUSH2 0x1F23 JUMPI PUSH2 0x2300 SWAP5 PUSH2 0x11ED SWAP4 MUL SWAP2 MUL PUSH2 0x207A JUMP JUMPDEST PUSH2 0x230D PUSH1 0x1 DUP5 ADD DUP9 PUSH2 0x2066 JUMP JUMPDEST MSTORE DUP2 ISZERO PUSH2 0x2487 JUMPI JUMPDEST PUSH1 0x0 SWAP1 PUSH1 0x20 PUSH2 0x2372 PUSH1 0x1 PUSH1 0x1 PUSH1 0xA0 SHL SUB PUSH2 0x2333 PUSH2 0x1776 DUP8 DUP12 DUP15 PUSH2 0x1F66 JUMP JUMPDEST AND PUSH2 0x233E DUP7 DUP12 PUSH2 0x2066 JUMP JUMPDEST MLOAD PUSH1 0x40 MLOAD PUSH4 0x95EA7B3 PUSH1 0xE0 SHL DUP2 MSTORE PUSH1 0x1 PUSH1 0x1 PUSH1 0xA0 SHL SUB DUP7 AND PUSH1 0x4 DUP3 ADD MSTORE PUSH1 0x24 DUP2 ADD SWAP2 SWAP1 SWAP2 MSTORE SWAP5 DUP6 SWAP3 DUP4 SWAP2 SWAP1 DUP3 SWAP1 PUSH1 0x44 DUP3 ADD SWAP1 JUMP JUMPDEST SUB SWAP3 GAS CALL SWAP1 DUP2 ISZERO PUSH2 0x245E JUMPI PUSH2 0x23F0 SWAP3 PUSH1 0x20 SWAP3 PUSH2 0x246A JUMPI JUMPDEST POP PUSH2 0x2394 DUP5 DUP10 PUSH2 0x2066 JUMP JUMPDEST MLOAD SWAP1 PUSH2 0x23A4 PUSH2 0x1776 DUP7 DUP11 DUP14 PUSH2 0x1F66 JUMP JUMPDEST PUSH1 0x0 PUSH2 0x23B3 PUSH1 0x1 DUP9 ADD DUP13 PUSH2 0x2066 JUMP JUMPDEST MLOAD PUSH1 0x40 MLOAD PUSH4 0x43264349 PUSH1 0xE0 SHL DUP2 MSTORE PUSH1 0x4 DUP2 ADD SWAP6 SWAP1 SWAP6 MSTORE PUSH1 0x1 PUSH1 0x1 PUSH1 0xA0 SHL SUB SWAP1 SWAP3 AND PUSH1 0x24 DUP6 ADD MSTORE PUSH1 0x44 DUP5 ADD SWAP2 SWAP1 SWAP2 MSTORE SWAP2 SWAP4 DUP5 SWAP3 DUP4 SWAP2 DUP3 SWAP1 PUSH1 0x64 DUP3 ADD SWAP1 JUMP JUMPDEST SUB SWAP3 PUSH1 0x1 PUSH1 0x1 PUSH1 0xA0 SHL SUB AND GAS CALL SWAP1 DUP2 ISZERO PUSH2 0x245E JUMPI PUSH1 0x0 SWAP2 PUSH2 0x242C JUMPI JUMPDEST POP PUSH2 0x241A PUSH1 0x1 DUP4 ADD DUP8 PUSH2 0x2066 JUMP JUMPDEST MSTORE PUSH1 0x0 NOT DUP2 EQ PUSH2 0x1F23 JUMPI PUSH1 0x1 ADD PUSH2 0x2188 JUMP JUMPDEST SWAP1 PUSH1 0x20 DUP3 RETURNDATASIZE PUSH1 0x20 GT PUSH2 0x2456 JUMPI JUMPDEST DUP2 PUSH2 0x2446 PUSH1 0x20 SWAP4 DUP4 PUSH2 0x1DE7 JUMP JUMPDEST DUP2 ADD SUB SLT PUSH2 0x882 JUMPI POP MLOAD CODESIZE PUSH2 0x240C JUMP JUMPDEST RETURNDATASIZE SWAP2 POP PUSH2 0x2439 JUMP JUMPDEST PUSH1 0x40 MLOAD RETURNDATASIZE PUSH1 0x0 DUP3 RETURNDATACOPY RETURNDATASIZE SWAP1 REVERT JUMPDEST PUSH2 0x2480 SWAP1 DUP4 RETURNDATASIZE DUP6 GT PUSH2 0x3E3 JUMPI PUSH2 0x3D3 DUP2 DUP4 PUSH2 0x1DE7 JUMP JUMPDEST POP CODESIZE PUSH2 0x2389 JUMP JUMPDEST DUP5 ISZERO PUSH2 0x1F76 JUMPI PUSH1 0x0 SWAP1 PUSH1 0x20 PUSH2 0x24E1 PUSH1 0x1 PUSH1 0x1 PUSH1 0xA0 SHL SUB PUSH2 0x24A6 DUP12 PUSH2 0x1F8C JUMP JUMPDEST AND PUSH2 0x24B0 DUP11 PUSH2 0x2049 JUMP JUMPDEST MLOAD PUSH1 0x40 MLOAD PUSH4 0x23B872DD PUSH1 0xE0 SHL DUP2 MSTORE CALLER PUSH1 0x4 DUP3 ADD MSTORE ADDRESS PUSH1 0x24 DUP3 ADD MSTORE PUSH1 0x44 DUP2 ADD SWAP2 SWAP1 SWAP2 MSTORE SWAP5 DUP6 SWAP3 DUP4 SWAP2 SWAP1 DUP3 SWAP1 PUSH1 0x64 DUP3 ADD SWAP1 JUMP JUMPDEST SUB SWAP3 GAS CALL SWAP2 DUP3 ISZERO PUSH2 0x245E JUMPI PUSH1 0x0 SWAP3 PUSH2 0x24FC JUMPI JUMPDEST POP SWAP1 POP PUSH2 0x2315 JUMP JUMPDEST PUSH2 0x2514 SWAP1 PUSH1 0x20 RETURNDATASIZE PUSH1 0x20 GT PUSH2 0x3E3 JUMPI PUSH2 0x3D3 DUP2 DUP4 PUSH2 0x1DE7 JUMP JUMPDEST POP CODESIZE PUSH2 0x24F4 JUMP JUMPDEST SWAP1 POP PUSH2 0x22B1 JUMP JUMPDEST DUP4 DUP3 PUSH2 0x22A8 JUMP JUMPDEST POP DUP1 DUP4 AND ISZERO ISZERO PUSH2 0x2261 JUMP JUMPDEST SWAP1 POP PUSH2 0x254F SWAP2 POP PUSH1 0x40 RETURNDATASIZE PUSH1 0x40 GT PUSH2 0x6C2 JUMPI PUSH2 0x6B3 DUP2 DUP4 PUSH2 0x1DE7 JUMP JUMPDEST SWAP1 CODESIZE PUSH2 0x224C JUMP JUMPDEST PUSH2 0x256F SWAP2 POP PUSH1 0x20 RETURNDATASIZE PUSH1 0x20 GT PUSH2 0x851 JUMPI PUSH2 0x843 DUP2 DUP4 PUSH2 0x1DE7 JUMP JUMPDEST CODESIZE PUSH2 0x2207 JUMP JUMPDEST POP SWAP3 SWAP5 SWAP1 SWAP4 SWAP3 SWAP2 PUSH1 0x0 NOT DUP2 ADD SWAP1 DUP1 DUP3 GT PUSH2 0x1F23 JUMPI PUSH2 0x25F4 SWAP5 PUSH2 0x25B6 PUSH2 0x1776 DUP5 PUSH2 0x25BE SWAP5 PUSH2 0x25A8 PUSH1 0x20 SWAP10 PUSH2 0x120E DUP5 DUP16 PUSH2 0x2066 JUMP JUMPDEST PUSH1 0x1 PUSH1 0x1 PUSH1 0xA0 SHL SUB SWAP5 PUSH2 0x1F66 JUMP JUMPDEST AND SWAP2 DUP8 PUSH2 0x2066 JUMP JUMPDEST MLOAD PUSH1 0x40 MLOAD PUSH4 0xA9059CBB PUSH1 0xE0 SHL DUP2 MSTORE PUSH1 0x1 PUSH1 0x1 PUSH1 0xA0 SHL SUB SWAP1 SWAP4 AND PUSH1 0x4 DUP5 ADD MSTORE PUSH1 0x24 DUP4 ADD MSTORE SWAP1 SWAP3 DUP4 SWAP2 SWAP1 DUP3 SWAP1 PUSH1 0x0 SWAP1 DUP3 SWAP1 PUSH1 0x44 DUP3 ADD SWAP1 JUMP JUMPDEST SUB SWAP3 GAS CALL DUP1 ISZERO PUSH2 0x245E JUMPI PUSH2 0x2605 JUMPI POP JUMP JUMPDEST PUSH2 0x261D SWAP1 PUSH1 0x20 RETURNDATASIZE PUSH1 0x20 GT PUSH2 0x3E3 JUMPI PUSH2 0x3D3 DUP2 DUP4 PUSH2 0x1DE7 JUMP JUMPDEST POP JUMP JUMPDEST SWAP5 SWAP1 SWAP2 SWAP6 SWAP3 DUP1 SWAP5 POP ISZERO PUSH2 0x1F76 JUMPI PUSH2 0x2636 DUP2 PUSH2 0x1F8C JUMP JUMPDEST SWAP4 PUSH1 0x1 LT ISZERO PUSH2 0x1F76 JUMPI PUSH2 0x2685 SWAP2 PUSH1 0x20 DUP3 ADD SWAP2 PUSH2 0x2651 DUP4 PUSH2 0x1F8C JUMP JUMPDEST PUSH1 0x40 MLOAD PUSH4 0xE6A43905 PUSH1 0xE0 SHL DUP2 MSTORE PUSH1 0x1 PUSH1 0x1 PUSH1 0xA0 SHL SUB SWAP8 DUP9 AND PUSH1 0x4 DUP1 DUP4 ADD SWAP2 SWAP1 SWAP2 MSTORE SWAP8 SWAP1 SWAP2 AND PUSH1 0x24 DUP3 ADD MSTORE SWAP4 DUP5 SWAP1 PUSH1 0x44 DUP3 ADD SWAP1 JUMP JUMPDEST PUSH1 0x1 PUSH1 0x1 PUSH1 0xA0 SHL SUB SWAP6 SWAP2 PUSH1 0x20 SWAP2 DUP4 SWAP2 SWAP1 SUB DUP2 PUSH32 0x0 DUP10 AND GAS STATICCALL SWAP1 DUP2 ISZERO PUSH2 0x245E JUMPI PUSH1 0x0 SWAP2 PUSH2 0x2A30 JUMPI JUMPDEST POP DUP5 DUP2 AND SWAP1 PUSH2 0x26DB DUP3 ISZERO ISZERO PUSH2 0x20DF JUMP JUMPDEST PUSH1 0x40 DUP1 MLOAD PUSH4 0x240BC6B PUSH1 0xE2 SHL DUP2 MSTORE SWAP1 DUP2 DUP11 DUP2 DUP7 GAS STATICCALL DUP1 ISZERO PUSH2 0x245E JUMPI PUSH1 0x0 SWAP2 DUP3 SWAP2 PUSH2 0x2A0F JUMPI JUMPDEST POP PUSH1 0x1 PUSH1 0x1 PUSH1 0x70 SHL SUB SWAP1 DUP2 DUP4 AND ISZERO ISZERO DUP1 PUSH2 0x2A04 JUMPI JUMPDEST PUSH2 0x271E SWAP1 PUSH2 0x212B JUMP JUMPDEST PUSH2 0x2727 DUP7 PUSH2 0x1F8C JUMP JUMPDEST DUP10 DUP1 PUSH2 0x2732 DUP12 PUSH2 0x1F8C JUMP JUMPDEST AND SWAP2 AND LT SWAP3 DUP4 ISZERO PUSH2 0x29FD JUMPI DUP3 DUP2 JUMPDEST AND SWAP4 ISZERO PUSH2 0x29F5 JUMPI POP SWAP1 JUMPDEST PUSH2 0x2753 DUP13 PUSH2 0x2049 JUMP JUMPDEST MLOAD SWAP2 PUSH2 0x3E5 SWAP3 DUP4 DUP2 MUL SWAP4 DUP2 DUP6 DIV EQ SWAP1 ISZERO OR ISZERO PUSH2 0x29E0 JUMPI PUSH2 0x2774 SWAP2 AND DUP3 PUSH2 0x1F10 JUMP JUMPDEST SWAP2 PUSH2 0x3E8 SWAP1 DUP2 DUP2 MUL SWAP2 DUP2 DUP4 DIV EQ SWAP1 ISZERO OR ISZERO PUSH2 0x29CB JUMPI SWAP2 PUSH2 0x11ED PUSH2 0x279D SWAP3 PUSH2 0x2801 SWAP8 SWAP7 SWAP6 SWAP5 PUSH2 0x207A JUMP JUMPDEST PUSH2 0x27A6 DUP12 PUSH2 0x2056 JUMP JUMPDEST MSTORE PUSH2 0x27B4 DUP6 PUSH2 0x120E DUP13 PUSH2 0x2056 JUMP JUMPDEST PUSH1 0x20 DUP8 PUSH2 0x27C0 DUP6 PUSH2 0x1F8C JUMP JUMPDEST AND PUSH2 0x27CA DUP13 PUSH2 0x2049 JUMP JUMPDEST MLOAD PUSH1 0x40 DUP1 MLOAD PUSH4 0x23B872DD PUSH1 0xE0 SHL DUP2 MSTORE CALLER DUP2 DUP16 ADD SWAP1 DUP2 MSTORE ADDRESS PUSH1 0x20 DUP3 ADD MSTORE SWAP2 DUP3 ADD SWAP3 SWAP1 SWAP3 MSTORE SWAP1 SWAP7 DUP8 SWAP3 SWAP2 DUP4 SWAP2 PUSH1 0x0 SWAP2 DUP4 SWAP2 PUSH1 0x60 SWAP1 SWAP2 ADD SWAP1 JUMP JUMPDEST SUB SWAP3 GAS CALL SWAP1 DUP2 ISZERO PUSH2 0x245E JUMPI PUSH2 0x2867 SWAP5 PUSH1 0x20 SWAP3 PUSH2 0x29AE JUMPI JUMPDEST POP DUP8 PUSH2 0x2823 DUP6 PUSH2 0x1F8C JUMP JUMPDEST AND PUSH2 0x282D DUP13 PUSH2 0x2049 JUMP JUMPDEST MLOAD PUSH1 0x40 DUP1 MLOAD PUSH4 0x95EA7B3 PUSH1 0xE0 SHL DUP2 MSTORE PUSH1 0x1 PUSH1 0x1 PUSH1 0xA0 SHL SUB SWAP1 SWAP5 AND DUP5 DUP15 ADD SWAP1 DUP2 MSTORE PUSH1 0x20 DUP2 ADD SWAP3 SWAP1 SWAP3 MSTORE SWAP3 SWAP7 DUP8 SWAP4 DUP5 SWAP3 PUSH1 0x0 SWAP3 DUP5 SWAP3 SWAP2 SWAP1 SWAP2 ADD SWAP1 JUMP JUMPDEST SUB SWAP3 GAS CALL SWAP3 DUP4 ISZERO PUSH2 0x245E JUMPI PUSH1 0x20 SWAP4 PUSH2 0x2991 JUMPI JUMPDEST POP PUSH2 0x2887 PUSH2 0x1A27 DUP11 PUSH2 0x2049 JUMP JUMPDEST PUSH1 0x40 DUP1 MLOAD PUSH4 0x43264349 PUSH1 0xE0 SHL DUP2 MSTORE DUP1 DUP12 ADD SWAP5 DUP6 MSTORE PUSH1 0x1 PUSH1 0x1 PUSH1 0xA0 SHL SUB SWAP1 SWAP3 AND PUSH1 0x20 DUP6 ADD MSTORE DUP4 ADD SWAP5 SWAP1 SWAP5 MSTORE DUP4 SWAP2 DUP3 SWAP1 PUSH1 0x0 SWAP1 DUP3 SWAP1 PUSH1 0x60 ADD SUB SWAP3 GAS CALL SWAP1 DUP2 ISZERO PUSH2 0x245E JUMPI PUSH1 0x0 SWAP2 PUSH2 0x295D JUMPI JUMPDEST POP SWAP2 PUSH2 0x28ED PUSH1 0x20 SWAP5 SWAP3 PUSH2 0x292F SWAP7 SWAP5 PUSH2 0x28E7 DUP10 PUSH2 0x2056 JUMP JUMPDEST MSTORE PUSH2 0x1F8C JUMP JUMPDEST AND SWAP1 PUSH1 0x0 PUSH2 0x28FA DUP8 PUSH2 0x2056 JUMP JUMPDEST MLOAD PUSH1 0x40 DUP1 MLOAD PUSH4 0xA9059CBB PUSH1 0xE0 SHL DUP2 MSTORE PUSH1 0x1 PUSH1 0x1 PUSH1 0xA0 SHL SUB SWAP1 SWAP5 AND SWAP6 DUP5 ADD SWAP6 DUP7 MSTORE PUSH1 0x20 DUP7 ADD SWAP2 SWAP1 SWAP2 MSTORE SWAP2 SWAP6 DUP7 SWAP5 DUP6 SWAP4 DUP5 SWAP3 SWAP2 ADD SWAP1 JUMP JUMPDEST SUB SWAP3 GAS CALL DUP1 ISZERO PUSH2 0x245E JUMPI PUSH2 0x2941 JUMPI POP SWAP1 JUMP JUMPDEST PUSH2 0x2959 SWAP1 PUSH1 0x20 RETURNDATASIZE PUSH1 0x20 GT PUSH2 0x3E3 JUMPI PUSH2 0x3D3 DUP2 DUP4 PUSH2 0x1DE7 JUMP JUMPDEST POP SWAP1 JUMP JUMPDEST SWAP1 PUSH1 0x20 DUP3 RETURNDATASIZE PUSH1 0x20 GT PUSH2 0x2989 JUMPI JUMPDEST DUP2 PUSH2 0x2977 PUSH1 0x20 SWAP4 DUP4 PUSH2 0x1DE7 JUMP JUMPDEST DUP2 ADD SUB SLT PUSH2 0x882 JUMPI POP MLOAD PUSH2 0x28ED PUSH2 0x28D0 JUMP JUMPDEST RETURNDATASIZE SWAP2 POP PUSH2 0x296A JUMP JUMPDEST PUSH2 0x29A7 SWAP1 DUP5 RETURNDATASIZE DUP7 GT PUSH2 0x3E3 JUMPI PUSH2 0x3D3 DUP2 DUP4 PUSH2 0x1DE7 JUMP JUMPDEST POP CODESIZE PUSH2 0x287A JUMP JUMPDEST PUSH2 0x29C4 SWAP1 DUP4 RETURNDATASIZE DUP6 GT PUSH2 0x3E3 JUMPI PUSH2 0x3D3 DUP2 DUP4 PUSH2 0x1DE7 JUMP JUMPDEST POP CODESIZE PUSH2 0x2818 JUMP JUMPDEST PUSH1 0x11 DUP12 PUSH4 0x4E487B71 PUSH1 0xE0 SHL PUSH1 0x0 MSTORE MSTORE PUSH1 0x24 PUSH1 0x0 REVERT JUMPDEST PUSH1 0x11 DUP13 PUSH4 0x4E487B71 PUSH1 0xE0 SHL PUSH1 0x0 MSTORE MSTORE PUSH1 0x24 PUSH1 0x0 REVERT JUMPDEST SWAP1 POP SWAP1 PUSH2 0x274A JUMP JUMPDEST DUP3 DUP3 PUSH2 0x2740 JUMP JUMPDEST POP DUP1 DUP3 AND ISZERO ISZERO PUSH2 0x2715 JUMP JUMPDEST SWAP1 POP PUSH2 0x2A2A SWAP2 POP PUSH1 0x40 RETURNDATASIZE PUSH1 0x40 GT PUSH2 0x6C2 JUMPI PUSH2 0x6B3 DUP2 DUP4 PUSH2 0x1DE7 JUMP JUMPDEST CODESIZE PUSH2 0x2700 JUMP JUMPDEST PUSH2 0x2A49 SWAP2 POP PUSH1 0x20 RETURNDATASIZE PUSH1 0x20 GT PUSH2 0x851 JUMPI PUSH2 0x843 DUP2 DUP4 PUSH2 0x1DE7 JUMP JUMPDEST CODESIZE PUSH2 0x26CB JUMP INVALID LOG2 PUSH5 0x6970667358 0x22 SLT KECCAK256 LOG2 PUSH19 0x3CCEE20FE1178D3D67A6E5A47A44CA76EF637B CODESIZE SMOD SWAP3 0xC 0xE2 EXP PUSH6 0xD70DA5416473 PUSH16 0x6C634300081400330000000000000000 "},"methodIdentifiers":{"WETH()":"ad5c4648","addLiquidity(address,address,uint256,uint256,uint256,uint256,address)":"ca3d6539","addLiquidityETH(address,uint256,uint256,uint256,address,uint256)":"f305d719","factory()":"c45a0155","removeLiquidity(address,address,uint256,uint256,uint256,address)":"c0e3ee6b","swapExactETHForTokens(uint256,address[],address,uint256)":"7ff36ab5","swapExactTokensForETH(uint256,uint256,address[],address,uint256)":"18cbafe5","swapExactTokensForTokens(uint256,uint256,address[],address,uint256)":"38ed1739"}}}}}