{"contracts/MonoSwapFactory.sol":{"MonoSwapFactory":{"abi":[{"anonymous":false,"inputs":[{"indexed":true,"internalType":"address","name":"token0","type":"address"},{"indexed":true,"internalType":"address","name":"token1","type":"address"},{"indexed":false,"internalType":"address","name":"pair","type":"address"},{"indexed":false,"internalType":"uint256","name":"","type":"uint256"}],"name":"PairCreated","type":"event"},{"inputs":[{"internalType":"uint256","name":"","type":"uint256"}],"name":"allPairs","outputs":[{"internalType":"address","name":"","type":"address"}],"stateMutability":"view","type":"function"},{"inputs":[],"name":"allPairsLength","outputs":[{"internalType":"uint256","name":"","type":"uint256"}],"stateMutability":"view","type":"function"},{"inputs":[{"internalType":"address","name":"tokenA","type":"address"},{"internalType":"address","name":"tokenB","type":"address"}],"name":"createPair","outputs":[{"internalType":"address","name":"pair","type":"address"}],"stateMutability":"nonpayable","type":"function"},{"inputs":[{"internalType":"address","name":"","type":"address"},{"internalType":"address","name":"","type":"address"}],"name":"getPair","outputs":[{"internalType":"address","name":"","type":"address"}],"stateMutability":"view","type":"function"}],"evm":{"bytecode":{"linkReferences":{},"object":"6080806040523461001657612096908161001c8239f35b600080fdfe6040608081526004908136101561001557600080fd5b600091823560e01c9081631e3dd18b14610366578163574f2ba314610347578163c9c653961461009e575063e6a439051461004f57600080fd5b3461009a578060031936011261009a5760209161006a6103fb565b610072610416565b908360018060a01b039384809316815280875220911660005283528160002054169051908152f35b5080fd5b83833461009a578060031936011261009a576100b86103fb565b6100c0610416565b906001600160a01b03908183168282168082146103045710156102fc5781905b169081156102c05781855260209585875281858720941693848752875281858720541661028557845195611c349687810167ffffffffffffffff988282108a8311176102725790829161042d8339039082f0801561026657831696873b1561009a5786519063485cc95560e01b825285848301528660248301528282604481838d5af1801561025c5761023a575b5050838152808852858120856000528852856000206bffffffffffffffffffffffff60a01b90888282541617905585825281895286822085600052895287876000209182541617905560015491680100000000000000008310156102275750508060016101de92016001556103ae565b819291549060031b9187831b921b19161790557f0d3648bd0f6ba80134a33ba9275ac585d9d315f0ad8355cddefde31afa28d0e98360015481519087825288820152a351908152f35b634e487b7160e01b825260419052602490fd5b8111610249578652888061016e565b506041602492634e487b7160e01b835252fd5b88513d85823e3d90fd5b508551903d90823e3d90fd5b634e487b7160e01b845260418552602484fd5b845162461bcd60e51b815290810187905260156024820152744d6f6e6f537761703a20504149525f45584953545360581b6044820152606490fd5b835162461bcd60e51b815260208188015260166024820152754d6f6e6f537761703a205a45524f5f4144445245535360501b6044820152606490fd5b9181906100e0565b855162461bcd60e51b81526020818a0152601d60248201527f4d6f6e6f537761703a204944454e544943414c5f4144445245535345530000006044820152606490fd5b50503461009a578160031936011261009a576020906001549051908152f35b9050346103aa5760203660031901126103aa5735916001548310156103a757506103916020926103ae565b905491519160018060a01b039160031b1c168152f35b80fd5b8280fd5b6001548110156103e55760016000527fb10e2d527612073b26eecdfd717e6a320cf44b4afac2b0732d9fcbe2b7fa0cf60190600090565b634e487b7160e01b600052603260045260246000fd5b600435906001600160a01b038216820361041157565b600080fd5b602435906001600160a01b03821682036104115756fe6080346200033d576001600160401b0390604090808201838111828210176200023d578252600b81526020926a04d6f6e6f537761702d4c560ac1b84830152825190838201828110828211176200023d578452600782526604d4f4e4f2d4c560cc1b8583015282518181116200023d576003908154906001958683811c9316801562000332575b898410146200031c578190601f93848111620002c6575b5089908483116001146200025f5760009262000253575b505060001982851b1c191690861b1782555b83519283116200023d576004938454978689811c9916801562000232575b818a10146200021d578883869798999a11620001c1575b508092851160011462000153575060009362000147575b505082851b92600019911b1c19161790555b600555600880546001600160a01b03191633179055516118f19081620003438239f35b01519150388062000112565b929190879550601f1985168760005284600020946000905b828210620001a757505085116200018c575b50505050811b01905562000124565b01519060f884600019921b161c19169055388080806200017d565b8484015187558a989096019593840193908101906200016b565b90919293945086600052816000208480880160051c82019284891062000213575b918a91899897969594930160051c01915b82811062000203575050620000fb565b600081558897508a9101620001f3565b92508192620001e2565b602286634e487b7160e01b6000525260246000fd5b98607f1698620000e4565b634e487b7160e01b600052604160045260246000fd5b015190503880620000b4565b90889350601f19831691866000528b6000209260005b8d828210620002af575050841162000296575b505050811b018255620000c6565b015160001983871b60f8161c1916905538808062000288565b8385015186558c9790950194938401930162000275565b90915084600052896000208480850160051c8201928c861062000312575b918a91869594930160051c01915b828110620003025750506200009d565b600081558594508a9101620002f2565b92508192620002e4565b634e487b7160e01b600052602260045260246000fd5b92607f169262000086565b600080fdfe608060408181526004918236101561001657600080fd5b600092833560e01c91826306fdde0314611161575081630902f1ac1461112e578163095ea7b3146111045781630dfe1681146110db57816318160ddd146110bc57816323531b90146110a057816323b872dd14610fd6578163313ce56714610fba5781633950935114610f6a5781634326434914610c11578163485cc95514610aa557816370a0823114610a6e57816395d89b411461096b5781639c8f9f23146106665781639cd441da1461028f578163a457c2d7146101e757508063a9059cbb146101b7578063ba9a7a5614610162578063c45a01551461018f578063d21220a714610167578063d73792a9146101625763dd62ed3e1461011757600080fd5b3461015e578060031936011261015e578060209261013361129f565b61013b6112ba565b6001600160a01b0391821683526001865283832091168252845220549051908152f35b5080fd5b6112d0565b503461015e578160031936011261015e5760075490516001600160a01b039091168152602090f35b503461015e578160031936011261015e5760085490516001600160a01b039091168152602090f35b503461015e578060031936011261015e576020906101e06101d661129f565b6024359033611348565b5160018152f35b9050823461028c578260031936011261028c5761020261129f565b918360243592338152600160205281812060018060a01b038616825260205220549082821061023b576020856101e085850387336114a4565b608490602086519162461bcd60e51b8352820152602560248201527f45524332303a2064656372656173656420616c6c6f77616e63652062656c6f77604482015264207a65726f60d81b6064820152fd5b80fd5b9190503461066257806003193601126106625781359260249081356102b2611776565b85151580610659575b1561060b5760075460a01c60ff166102d2906115a6565b60065484516323b872dd60e01b8082523388830190815230602080830191909152604082018b9052999391926001600160a01b039290918b9183918290036060019082908a9087165af1908115610601579289878c9461033e89956103709884916105ea575b50611700565b6007548c5194855233938501938452306020850152604084019590955292958694939093169284928391606090910190565b03925af19081156105e0579061038c9185916105b35750611700565b6103946115f2565b9060025480156000146104fa57505050906103ae91611743565b938160038611156104eb57508460019080821c8281018091116104d85791905b8783106104b8575050505b6103e880861115610465576002548181018091116104535760008051602061189c8339815191528860019386936002558484528382528884208181540190558851908152a36103e71985019485116104435750505061043882336117cc565b600160055551908152f35b634e487b7160e01b825260119052fd5b5050634e487b7160e01b825260119052fd5b845162461bcd60e51b81528083018890526028818601527f4d6f6e6f537761703a20494e53554646494349454e545f494e495449414c5f4c604482015267495155494449545960c01b6064820152608490fd5b909196506104cf876104ca8184611756565b611325565b821c91906103ce565b5050634e487b7160e01b83525060119052fd5b94156103d957600194506103d9565b8061052561051461052b93610533979c9a9c999899611743565b6001600160701b0380951690611756565b96611743565b911690611756565b9050808210156105ab5750905b8193821561055957505061055490336117cc565b610438565b835162461bcd60e51b81529182018690526027908201527f4d6f6e6f537761703a20494e53554646494349454e545f4c495155494449545960448201526617d3525395115160ca1b6064820152608490fd5b905090610540565b6105d39150893d8b116105d9575b6105cb81836112ed565b8101906116e8565b38610338565b503d6105c1565b86513d86823e3d90fd5b6105d39150883d8a116105d9576105cb81836112ed565b88513d88823e3d90fd5b835162461bcd60e51b81526020818701526023818501527f4d6f6e6f537761703a20494e53554646494349454e545f494e5055545f414d4f60448201526215539560ea1b6064820152608490fd5b508015156102bb565b8280fd5b82843461028c5760208060031936011261015e57833591610685611776565b8215610918576106d793946106a160ff60075460a01c166115a6565b6106a96115f2565b95906106ca600254916106cf836106ca6001600160701b038094168b611743565b611756565b981687611743565b938515158061090f575b156108ce57331561088157338352828452868320548181106108335781879392859233845283885203898320558060025403600255885190815260008051602061189c833981519152863392a3600654875163a9059cbb60e01b808252338483019081526020810195909552936001600160a01b03928791839185169082908990829060400103925af1908115610829579285889361078d6107bb97948a97849161080c575b5061185d565b60075416928b519687958694859384523390840160209093929193604081019460018060a01b031681520152565b03925af191821561080157906107d5926107e4575061185d565b60016005558351928352820152f35b6107fb9150833d85116105d9576105cb81836112ed565b86610787565b8651903d90823e3d90fd5b6108239150883d8a116105d9576105cb81836112ed565b8e610787565b89513d87823e3d90fd5b875162461bcd60e51b8152808401869052602260248201527f45524332303a206275726e20616d6f756e7420657863656564732062616c616e604482015261636560f01b6064820152608490fd5b865162461bcd60e51b8152808301859052602160248201527f45524332303a206275726e2066726f6d20746865207a65726f206164647265736044820152607360f81b6064820152608490fd5b60648285808a519262461bcd60e51b845283015260248201527f4d6f6e6f537761703a20494e53554646494349454e545f4c49515549444954596044820152fd5b508415156106e1565b835162461bcd60e51b8152808601839052602760248201527f4d6f6e6f537761703a20494e53554646494349454e545f4c495155494449545960448201526617d0955493915160ca1b6064820152608490fd5b83833461015e578160031936011261015e57805191809380549160019083821c92828516948515610a64575b6020958686108114610a5157858952908115610a2d57506001146109d5575b6109d187876109c7828c03836112ed565b5191829182611256565b0390f35b81529295507f8a35acfbc15ff81a39ae7d344fd709f28e8600b4aa8c65c6b64bfe7fe36bd19b5b828410610a1a57505050826109d1946109c7928201019486806109b6565b80548685018801529286019281016109fc565b60ff19168887015250505050151560051b83010192506109c7826109d186806109b6565b634e487b7160e01b845260228352602484fd5b93607f1693610997565b50503461015e57602036600319011261015e5760209181906001600160a01b03610a9661129f565b16815280845220549051908152f35b905034610662578160031936011261066257610abf61129f565b91610ac86112ba565b60085490936001600160a01b0392909183163303610bd9576007549360ff8560a01c16610b97578383169182151580610b8c575b15610b505750508483161115610b485781905b166bffffffffffffffffffffffff60a01b6006541617600655600160a01b9216906affffffffffffffffffffff60a81b16171760075580f35b928190610b0f565b906020606492519162461bcd60e51b835282015260166024820152754d6f6e6f537761703a205a45524f5f4144445245535360501b6044820152fd5b508487161515610afc565b6020606492519162461bcd60e51b8352820152601d60248201527f4d6f6e6f537761703a20414c52454144595f494e495449414c495a45440000006044820152fd5b5162461bcd60e51b8152602081850152601360248201527226b7b737a9bbb0b81d102327a92124a22222a760691b6044820152606490fd5b91905034610662576060366003190112610662578135610c2f6112ba565b92610c38611776565b6006546001600160a01b039485169085168114949085908115610f5c575b5015610f1957600754610c6e60ff8260a01c166115a6565b610c766115f2565b8715610f135781905b6001600160701b03918216928915610f0b5750905b6103e591828802928884041488151715610ef857610cb3911682611743565b916103e890818102918183041490151715610ee557610cdc9291610cd691611325565b90611756565b956044358710610e965715610de7575060065484516323b872dd60e01b81523384820190815230602082810191909152604082019690965290918591839185169082908b90829060600103925af1908115610ddd57928492610d498893610d7e968b91610dc65750611700565b600754875163a9059cbb60e01b815233938101938452602084019490945292948593919091169183918a918391604090910190565b03925af1918215610dbc5790610438929160209692610d9f575b505061185d565b610db59250803d106105d9576105cb81836112ed565b3880610d98565b83513d87823e3d90fd5b6105d39150863d88116105d9576105cb81836112ed565b85513d89823e3d90fd5b84516323b872dd60e01b815233848201908152306020808301919091526040820196909652909185918391908290036060019082908b9087165af1908115610ddd57928492610e418893610e76968b91610dc65750611700565b600654875163a9059cbb60e01b815233938101938452602084019490945292948593919091169183918a918391604090910190565b03925af1918215610dbc5790610554929160209692610d9f57505061185d565b855162461bcd60e51b81526020818601526024808201527f4d6f6e6f537761703a20494e53554646494349454e545f4f55545055545f414d60448201526313d5539560e21b6064820152608490fd5b634e487b7160e01b8a526011865260248afd5b634e487b7160e01b8b526011875260248bfd5b905090610c94565b80610c7f565b835162461bcd60e51b8152602081840152601760248201527f4d6f6e6f537761703a20494e56414c49445f544f4b454e0000000000000000006044820152606490fd5b905081600754161438610c56565b50503461015e578060031936011261015e576101e0602092610fb3610f8d61129f565b338352600186528483206001600160a01b03821684528652918490205460243590611325565b90336114a4565b50503461015e578160031936011261015e576020905160128152f35b8391503461015e57606036600319011261015e57610ff261129f565b610ffa6112ba565b91846044359460018060a01b038416815260016020528181203382526020522054906000198203611034575b6020866101e0878787611348565b84821061105d5750918391611052602096956101e0950333836114a4565b919394819350611026565b606490602087519162461bcd60e51b8352820152601d60248201527f45524332303a20696e73756666696369656e7420616c6c6f77616e63650000006044820152fd5b50503461015e578160031936011261015e576020905160038152f35b50503461015e578160031936011261015e576020906002549051908152f35b50503461015e578160031936011261015e5760065490516001600160a01b039091168152602090f35b50503461015e578060031936011261015e576020906101e061112461129f565b60243590336114a4565b82843461028c578060031936011261028c57506111496115f2565b82516001600160701b03928316815291166020820152f35b92915034611252578360031936011261125257600354600181811c9186908281168015611248575b6020958686108214611235575084885290811561121357506001146111ba575b6109d186866109c7828b03836112ed565b929550600383527fc2575a0e9e593c00f959f8c92f12db2869c3395a3b0502d05e2516446f71f85b5b82841061120057505050826109d1946109c79282010194386111a9565b80548685018801529286019281016111e3565b60ff191687860152505050151560051b83010192506109c7826109d1386111a9565b634e487b7160e01b845260229052602483fd5b93607f1693611189565b8380fd5b6020808252825181830181905290939260005b82811061128b57505060409293506000838284010152601f8019910116010190565b818101860151848201604001528501611269565b600435906001600160a01b03821682036112b557565b600080fd5b602435906001600160a01b03821682036112b557565b346112b55760003660031901126112b55760206040516103e88152f35b90601f8019910116810190811067ffffffffffffffff82111761130f57604052565b634e487b7160e01b600052604160045260246000fd5b9190820180921161133257565b634e487b7160e01b600052601160045260246000fd5b6001600160a01b039081169182156114515716918215611400576000828152806020526040812054918083106113ac576040828260008051602061189c833981519152958760209652828652038282205586815220818154019055604051908152a3565b60405162461bcd60e51b815260206004820152602660248201527f45524332303a207472616e7366657220616d6f756e7420657863656564732062604482015265616c616e636560d01b6064820152608490fd5b60405162461bcd60e51b815260206004820152602360248201527f45524332303a207472616e7366657220746f20746865207a65726f206164647260448201526265737360e81b6064820152608490fd5b60405162461bcd60e51b815260206004820152602560248201527f45524332303a207472616e736665722066726f6d20746865207a65726f206164604482015264647265737360d81b6064820152608490fd5b6001600160a01b0390811691821561155557169182156115055760207f8c5be1e5ebec7d5bd14f71427d1e84f3dd0314c0f7b2291e5b200ac8c7c3b925918360005260018252604060002085600052825280604060002055604051908152a3565b60405162461bcd60e51b815260206004820152602260248201527f45524332303a20617070726f766520746f20746865207a65726f206164647265604482015261737360f01b6064820152608490fd5b60405162461bcd60e51b8152602060048201526024808201527f45524332303a20617070726f76652066726f6d20746865207a65726f206164646044820152637265737360e01b6064820152608490fd5b156115ad57565b60405162461bcd60e51b815260206004820152601960248201527f4d6f6e6f537761703a204e4f545f494e495449414c495a4544000000000000006044820152606490fd5b6007549061160560ff8360a01c166115a6565b6006546040516370a0823160e01b8082523060048301529390916001600160a01b039160209182908590602490829087165afa9384156116ad576000946116b9575b50819060246001600160701b038096169760405195869384928352306004840152165afa9081156116ad57600091611681575b5090501690565b82813d83116116a6575b61169581836112ed565b8101031261028c575051803861167a565b503d61168b565b6040513d6000823e3d90fd5b90938282813d83116116e1575b6116d081836112ed565b8101031261028c5750519281611647565b503d6116c6565b908160209103126112b5575180151581036112b55790565b1561170757565b60405162461bcd60e51b81526020600482015260146024820152731514905394d1915497d19493d357d1905253115160621b6044820152606490fd5b8181029291811591840414171561133257565b8115611760570490565b634e487b7160e01b600052601260045260246000fd5b600260055414611787576002600555565b60405162461bcd60e51b815260206004820152601f60248201527f5265656e7472616e637947756172643a207265656e7472616e742063616c6c006044820152606490fd5b6001600160a01b03169081156118185760008051602061189c8339815191526020826117fc600094600254611325565b60025584845283825260408420818154019055604051908152a3565b60405162461bcd60e51b815260206004820152601f60248201527f45524332303a206d696e7420746f20746865207a65726f2061646472657373006044820152606490fd5b1561186457565b60405162461bcd60e51b815260206004820152600f60248201526e1514905394d1915497d19052531151608a1b6044820152606490fdfeddf252ad1be2c89b69c2b068fc378daa952ba7f163c4a11628f55a4df523b3efa26469706673582212208f4b0b3642a5b0b83968ce9bd439d3e497650b1b1410f8e7058d191a52ffc8c764736f6c63430008140033a264697066735822122044c3a2c7ab6f3b14ce16658aacba876dcf42d30197ab986b03479505650e770164736f6c63430008140033","opcodes":"PUSH1 0x80 DUP1 PUSH1 0x40 MSTORE CALLVALUE PUSH2 0x16 JUMPI PUSH2 0x2096 SWAP1 DUP2 PUSH2 0x1C DUP3 CODECOPY RETURN JUMPDEST PUSH1 0x0 DUP1 REVERT INVALID PUSH1 0x40 PUSH1 0x80 DUP2 MSTORE PUSH1 0x4 SWAP1 DUP2 CALLDATASIZE LT ISZERO PUSH2 0x15 JUMPI PUSH1 0x0 DUP1 REVERT JUMPDEST PUSH1 0x0 SWAP2 DUP3 CALLDATALOAD PUSH1 0xE0 SHR SWAP1 DUP2 PUSH4 0x1E3DD18B EQ PUSH2 0x366 JUMPI DUP2 PUSH4 0x574F2BA3 EQ PUSH2 0x347 JUMPI DUP2 PUSH4 0xC9C65396 EQ PUSH2 0x9E JUMPI POP PUSH4 0xE6A43905 EQ PUSH2 0x4F JUMPI PUSH1 0x0 DUP1 REVERT JUMPDEST CALLVALUE PUSH2 0x9A JUMPI DUP1 PUSH1 0x3 NOT CALLDATASIZE ADD SLT PUSH2 0x9A JUMPI PUSH1 0x20 SWAP2 PUSH2 0x6A PUSH2 0x3FB JUMP JUMPDEST PUSH2 0x72 PUSH2 0x416 JUMP JUMPDEST SWAP1 DUP4 PUSH1 0x1 DUP1 PUSH1 0xA0 SHL SUB SWAP4 DUP5 DUP1 SWAP4 AND DUP2 MSTORE DUP1 DUP8 MSTORE KECCAK256 SWAP2 AND PUSH1 0x0 MSTORE DUP4 MSTORE DUP2 PUSH1 0x0 KECCAK256 SLOAD AND SWAP1 MLOAD SWAP1 DUP2 MSTORE RETURN JUMPDEST POP DUP1 REVERT JUMPDEST DUP4 DUP4 CALLVALUE PUSH2 0x9A JUMPI DUP1 PUSH1 0x3 NOT CALLDATASIZE ADD SLT PUSH2 0x9A JUMPI PUSH2 0xB8 PUSH2 0x3FB JUMP JUMPDEST PUSH2 0xC0 PUSH2 0x416 JUMP JUMPDEST SWAP1 PUSH1 0x1 PUSH1 0x1 PUSH1 0xA0 SHL SUB SWAP1 DUP2 DUP4 AND DUP3 DUP3 AND DUP1 DUP3 EQ PUSH2 0x304 JUMPI LT ISZERO PUSH2 0x2FC JUMPI DUP2 SWAP1 JUMPDEST AND SWAP1 DUP2 ISZERO PUSH2 0x2C0 JUMPI DUP2 DUP6 MSTORE PUSH1 0x20 SWAP6 DUP6 DUP8 MSTORE DUP2 DUP6 DUP8 KECCAK256 SWAP5 AND SWAP4 DUP5 DUP8 MSTORE DUP8 MSTORE DUP2 DUP6 DUP8 KECCAK256 SLOAD AND PUSH2 0x285 JUMPI DUP5 MLOAD SWAP6 PUSH2 0x1C34 SWAP7 DUP8 DUP2 ADD PUSH8 0xFFFFFFFFFFFFFFFF SWAP9 DUP3 DUP3 LT DUP11 DUP4 GT OR PUSH2 0x272 JUMPI SWAP1 DUP3 SWAP2 PUSH2 0x42D DUP4 CODECOPY SUB SWAP1 DUP3 CREATE DUP1 ISZERO PUSH2 0x266 JUMPI DUP4 AND SWAP7 DUP8 EXTCODESIZE ISZERO PUSH2 0x9A JUMPI DUP7 MLOAD SWAP1 PUSH4 0x485CC955 PUSH1 0xE0 SHL DUP3 MSTORE DUP6 DUP5 DUP4 ADD MSTORE DUP7 PUSH1 0x24 DUP4 ADD MSTORE DUP3 DUP3 PUSH1 0x44 DUP2 DUP4 DUP14 GAS CALL DUP1 ISZERO PUSH2 0x25C JUMPI PUSH2 0x23A JUMPI JUMPDEST POP POP DUP4 DUP2 MSTORE DUP1 DUP9 MSTORE DUP6 DUP2 KECCAK256 DUP6 PUSH1 0x0 MSTORE DUP9 MSTORE DUP6 PUSH1 0x0 KECCAK256 PUSH12 0xFFFFFFFFFFFFFFFFFFFFFFFF PUSH1 0xA0 SHL SWAP1 DUP9 DUP3 DUP3 SLOAD AND OR SWAP1 SSTORE DUP6 DUP3 MSTORE DUP2 DUP10 MSTORE DUP7 DUP3 KECCAK256 DUP6 PUSH1 0x0 MSTORE DUP10 MSTORE DUP8 DUP8 PUSH1 0x0 KECCAK256 SWAP2 DUP3 SLOAD AND OR SWAP1 SSTORE PUSH1 0x1 SLOAD SWAP2 PUSH9 0x10000000000000000 DUP4 LT ISZERO PUSH2 0x227 JUMPI POP POP DUP1 PUSH1 0x1 PUSH2 0x1DE SWAP3 ADD PUSH1 0x1 SSTORE PUSH2 0x3AE JUMP JUMPDEST DUP2 SWAP3 SWAP2 SLOAD SWAP1 PUSH1 0x3 SHL SWAP2 DUP8 DUP4 SHL SWAP3 SHL NOT AND OR SWAP1 SSTORE PUSH32 0xD3648BD0F6BA80134A33BA9275AC585D9D315F0AD8355CDDEFDE31AFA28D0E9 DUP4 PUSH1 0x1 SLOAD DUP2 MLOAD SWAP1 DUP8 DUP3 MSTORE DUP9 DUP3 ADD MSTORE LOG3 MLOAD SWAP1 DUP2 MSTORE RETURN JUMPDEST PUSH4 0x4E487B71 PUSH1 0xE0 SHL DUP3 MSTORE PUSH1 0x41 SWAP1 MSTORE PUSH1 0x24 SWAP1 REVERT JUMPDEST DUP2 GT PUSH2 0x249 JUMPI DUP7 MSTORE DUP9 DUP1 PUSH2 0x16E JUMP JUMPDEST POP PUSH1 0x41 PUSH1 0x24 SWAP3 PUSH4 0x4E487B71 PUSH1 0xE0 SHL DUP4 MSTORE MSTORE REVERT JUMPDEST DUP9 MLOAD RETURNDATASIZE DUP6 DUP3 RETURNDATACOPY RETURNDATASIZE SWAP1 REVERT JUMPDEST POP DUP6 MLOAD SWAP1 RETURNDATASIZE SWAP1 DUP3 RETURNDATACOPY RETURNDATASIZE SWAP1 REVERT JUMPDEST PUSH4 0x4E487B71 PUSH1 0xE0 SHL DUP5 MSTORE PUSH1 0x41 DUP6 MSTORE PUSH1 0x24 DUP5 REVERT JUMPDEST DUP5 MLOAD PUSH3 0x461BCD PUSH1 0xE5 SHL DUP2 MSTORE SWAP1 DUP2 ADD DUP8 SWAP1 MSTORE PUSH1 0x15 PUSH1 0x24 DUP3 ADD MSTORE PUSH21 0x4D6F6E6F537761703A20504149525F455849535453 PUSH1 0x58 SHL PUSH1 0x44 DUP3 ADD MSTORE PUSH1 0x64 SWAP1 REVERT JUMPDEST DUP4 MLOAD PUSH3 0x461BCD PUSH1 0xE5 SHL DUP2 MSTORE PUSH1 0x20 DUP2 DUP9 ADD MSTORE PUSH1 0x16 PUSH1 0x24 DUP3 ADD MSTORE PUSH22 0x4D6F6E6F537761703A205A45524F5F41444452455353 PUSH1 0x50 SHL PUSH1 0x44 DUP3 ADD MSTORE PUSH1 0x64 SWAP1 REVERT JUMPDEST SWAP2 DUP2 SWAP1 PUSH2 0xE0 JUMP JUMPDEST DUP6 MLOAD PUSH3 0x461BCD PUSH1 0xE5 SHL DUP2 MSTORE PUSH1 0x20 DUP2 DUP11 ADD MSTORE PUSH1 0x1D PUSH1 0x24 DUP3 ADD MSTORE PUSH32 0x4D6F6E6F537761703A204944454E544943414C5F414444524553534553000000 PUSH1 0x44 DUP3 ADD MSTORE PUSH1 0x64 SWAP1 REVERT JUMPDEST POP POP CALLVALUE PUSH2 0x9A JUMPI DUP2 PUSH1 0x3 NOT CALLDATASIZE ADD SLT PUSH2 0x9A JUMPI PUSH1 0x20 SWAP1 PUSH1 0x1 SLOAD SWAP1 MLOAD SWAP1 DUP2 MSTORE RETURN JUMPDEST SWAP1 POP CALLVALUE PUSH2 0x3AA JUMPI PUSH1 0x20 CALLDATASIZE PUSH1 0x3 NOT ADD SLT PUSH2 0x3AA JUMPI CALLDATALOAD SWAP2 PUSH1 0x1 SLOAD DUP4 LT ISZERO PUSH2 0x3A7 JUMPI POP PUSH2 0x391 PUSH1 0x20 SWAP3 PUSH2 0x3AE JUMP JUMPDEST SWAP1 SLOAD SWAP2 MLOAD SWAP2 PUSH1 0x1 DUP1 PUSH1 0xA0 SHL SUB SWAP2 PUSH1 0x3 SHL SHR AND DUP2 MSTORE RETURN JUMPDEST DUP1 REVERT JUMPDEST DUP3 DUP1 REVERT JUMPDEST PUSH1 0x1 SLOAD DUP2 LT ISZERO PUSH2 0x3E5 JUMPI PUSH1 0x1 PUSH1 0x0 MSTORE PUSH32 0xB10E2D527612073B26EECDFD717E6A320CF44B4AFAC2B0732D9FCBE2B7FA0CF6 ADD SWAP1 PUSH1 0x0 SWAP1 JUMP JUMPDEST PUSH4 0x4E487B71 PUSH1 0xE0 SHL PUSH1 0x0 MSTORE PUSH1 0x32 PUSH1 0x4 MSTORE PUSH1 0x24 PUSH1 0x0 REVERT JUMPDEST PUSH1 0x4 CALLDATALOAD SWAP1 PUSH1 0x1 PUSH1 0x1 PUSH1 0xA0 SHL SUB DUP3 AND DUP3 SUB PUSH2 0x411 JUMPI JUMP JUMPDEST PUSH1 0x0 DUP1 REVERT JUMPDEST PUSH1 0x24 CALLDATALOAD SWAP1 PUSH1 0x1 PUSH1 0x1 PUSH1 0xA0 SHL SUB DUP3 AND DUP3 SUB PUSH2 0x411 JUMPI JUMP INVALID PUSH1 0x80 CALLVALUE PUSH3 0x33D JUMPI PUSH1 0x1 PUSH1 0x1 PUSH1 0x40 SHL SUB SWAP1 PUSH1 0x40 SWAP1 DUP1 DUP3 ADD DUP4 DUP2 GT DUP3 DUP3 LT OR PUSH3 0x23D JUMPI DUP3 MSTORE PUSH1 0xB DUP2 MSTORE PUSH1 0x20 SWAP3 PUSH11 0x4D6F6E6F537761702D4C5 PUSH1 0xAC SHL DUP5 DUP4 ADD MSTORE DUP3 MLOAD SWAP1 DUP4 DUP3 ADD DUP3 DUP2 LT DUP3 DUP3 GT OR PUSH3 0x23D JUMPI DUP5 MSTORE PUSH1 0x7 DUP3 MSTORE PUSH7 0x4D4F4E4F2D4C5 PUSH1 0xCC SHL DUP6 DUP4 ADD MSTORE DUP3 MLOAD DUP2 DUP2 GT PUSH3 0x23D JUMPI PUSH1 0x3 SWAP1 DUP2 SLOAD SWAP1 PUSH1 0x1 SWAP6 DUP7 DUP4 DUP2 SHR SWAP4 AND DUP1 ISZERO PUSH3 0x332 JUMPI JUMPDEST DUP10 DUP5 LT EQ PUSH3 0x31C JUMPI DUP2 SWAP1 PUSH1 0x1F SWAP4 DUP5 DUP2 GT PUSH3 0x2C6 JUMPI JUMPDEST POP DUP10 SWAP1 DUP5 DUP4 GT PUSH1 0x1 EQ PUSH3 0x25F JUMPI PUSH1 0x0 SWAP3 PUSH3 0x253 JUMPI JUMPDEST POP POP PUSH1 0x0 NOT DUP3 DUP6 SHL SHR NOT AND SWAP1 DUP7 SHL OR DUP3 SSTORE JUMPDEST DUP4 MLOAD SWAP3 DUP4 GT PUSH3 0x23D JUMPI PUSH1 0x4 SWAP4 DUP5 SLOAD SWAP8 DUP7 DUP10 DUP2 SHR SWAP10 AND DUP1 ISZERO PUSH3 0x232 JUMPI JUMPDEST DUP2 DUP11 LT EQ PUSH3 0x21D JUMPI DUP9 DUP4 DUP7 SWAP8 SWAP9 SWAP10 SWAP11 GT PUSH3 0x1C1 JUMPI JUMPDEST POP DUP1 SWAP3 DUP6 GT PUSH1 0x1 EQ PUSH3 0x153 JUMPI POP PUSH1 0x0 SWAP4 PUSH3 0x147 JUMPI JUMPDEST POP POP DUP3 DUP6 SHL SWAP3 PUSH1 0x0 NOT SWAP2 SHL SHR NOT AND OR SWAP1 SSTORE JUMPDEST PUSH1 0x5 SSTORE PUSH1 0x8 DUP1 SLOAD PUSH1 0x1 PUSH1 0x1 PUSH1 0xA0 SHL SUB NOT AND CALLER OR SWAP1 SSTORE MLOAD PUSH2 0x18F1 SWAP1 DUP2 PUSH3 0x343 DUP3 CODECOPY RETURN JUMPDEST ADD MLOAD SWAP2 POP CODESIZE DUP1 PUSH3 0x112 JUMP JUMPDEST SWAP3 SWAP2 SWAP1 DUP8 SWAP6 POP PUSH1 0x1F NOT DUP6 AND DUP8 PUSH1 0x0 MSTORE DUP5 PUSH1 0x0 KECCAK256 SWAP5 PUSH1 0x0 SWAP1 JUMPDEST DUP3 DUP3 LT PUSH3 0x1A7 JUMPI POP POP DUP6 GT PUSH3 0x18C JUMPI JUMPDEST POP POP POP POP DUP2 SHL ADD SWAP1 SSTORE PUSH3 0x124 JUMP JUMPDEST ADD MLOAD SWAP1 PUSH1 0xF8 DUP5 PUSH1 0x0 NOT SWAP3 SHL AND SHR NOT AND SWAP1 SSTORE CODESIZE DUP1 DUP1 DUP1 PUSH3 0x17D JUMP JUMPDEST DUP5 DUP5 ADD MLOAD DUP8 SSTORE DUP11 SWAP9 SWAP1 SWAP7 ADD SWAP6 SWAP4 DUP5 ADD SWAP4 SWAP1 DUP2 ADD SWAP1 PUSH3 0x16B JUMP JUMPDEST SWAP1 SWAP2 SWAP3 SWAP4 SWAP5 POP DUP7 PUSH1 0x0 MSTORE DUP2 PUSH1 0x0 KECCAK256 DUP5 DUP1 DUP9 ADD PUSH1 0x5 SHR DUP3 ADD SWAP3 DUP5 DUP10 LT PUSH3 0x213 JUMPI JUMPDEST SWAP2 DUP11 SWAP2 DUP10 SWAP9 SWAP8 SWAP7 SWAP6 SWAP5 SWAP4 ADD PUSH1 0x5 SHR ADD SWAP2 JUMPDEST DUP3 DUP2 LT PUSH3 0x203 JUMPI POP POP PUSH3 0xFB JUMP JUMPDEST PUSH1 0x0 DUP2 SSTORE DUP9 SWAP8 POP DUP11 SWAP2 ADD PUSH3 0x1F3 JUMP JUMPDEST SWAP3 POP DUP2 SWAP3 PUSH3 0x1E2 JUMP JUMPDEST PUSH1 0x22 DUP7 PUSH4 0x4E487B71 PUSH1 0xE0 SHL PUSH1 0x0 MSTORE MSTORE PUSH1 0x24 PUSH1 0x0 REVERT JUMPDEST SWAP9 PUSH1 0x7F AND SWAP9 PUSH3 0xE4 JUMP JUMPDEST PUSH4 0x4E487B71 PUSH1 0xE0 SHL PUSH1 0x0 MSTORE PUSH1 0x41 PUSH1 0x4 MSTORE PUSH1 0x24 PUSH1 0x0 REVERT JUMPDEST ADD MLOAD SWAP1 POP CODESIZE DUP1 PUSH3 0xB4 JUMP JUMPDEST SWAP1 DUP9 SWAP4 POP PUSH1 0x1F NOT DUP4 AND SWAP2 DUP7 PUSH1 0x0 MSTORE DUP12 PUSH1 0x0 KECCAK256 SWAP3 PUSH1 0x0 JUMPDEST DUP14 DUP3 DUP3 LT PUSH3 0x2AF JUMPI POP POP DUP5 GT PUSH3 0x296 JUMPI JUMPDEST POP POP POP DUP2 SHL ADD DUP3 SSTORE PUSH3 0xC6 JUMP JUMPDEST ADD MLOAD PUSH1 0x0 NOT DUP4 DUP8 SHL PUSH1 0xF8 AND SHR NOT AND SWAP1 SSTORE CODESIZE DUP1 DUP1 PUSH3 0x288 JUMP JUMPDEST DUP4 DUP6 ADD MLOAD DUP7 SSTORE DUP13 SWAP8 SWAP1 SWAP6 ADD SWAP5 SWAP4 DUP5 ADD SWAP4 ADD PUSH3 0x275 JUMP JUMPDEST SWAP1 SWAP2 POP DUP5 PUSH1 0x0 MSTORE DUP10 PUSH1 0x0 KECCAK256 DUP5 DUP1 DUP6 ADD PUSH1 0x5 SHR DUP3 ADD SWAP3 DUP13 DUP7 LT PUSH3 0x312 JUMPI JUMPDEST SWAP2 DUP11 SWAP2 DUP7 SWAP6 SWAP5 SWAP4 ADD PUSH1 0x5 SHR ADD SWAP2 JUMPDEST DUP3 DUP2 LT PUSH3 0x302 JUMPI POP POP PUSH3 0x9D JUMP JUMPDEST PUSH1 0x0 DUP2 SSTORE DUP6 SWAP5 POP DUP11 SWAP2 ADD PUSH3 0x2F2 JUMP JUMPDEST SWAP3 POP DUP2 SWAP3 PUSH3 0x2E4 JUMP JUMPDEST PUSH4 0x4E487B71 PUSH1 0xE0 SHL PUSH1 0x0 MSTORE PUSH1 0x22 PUSH1 0x4 MSTORE PUSH1 0x24 PUSH1 0x0 REVERT JUMPDEST SWAP3 PUSH1 0x7F AND SWAP3 PUSH3 0x86 JUMP JUMPDEST PUSH1 0x0 DUP1 REVERT INVALID PUSH1 0x80 PUSH1 0x40 DUP2 DUP2 MSTORE PUSH1 0x4 SWAP2 DUP3 CALLDATASIZE LT ISZERO PUSH2 0x16 JUMPI PUSH1 0x0 DUP1 REVERT JUMPDEST PUSH1 0x0 SWAP3 DUP4 CALLDATALOAD PUSH1 0xE0 SHR SWAP2 DUP3 PUSH4 0x6FDDE03 EQ PUSH2 0x1161 JUMPI POP DUP2 PUSH4 0x902F1AC EQ PUSH2 0x112E JUMPI DUP2 PUSH4 0x95EA7B3 EQ PUSH2 0x1104 JUMPI DUP2 PUSH4 0xDFE1681 EQ PUSH2 0x10DB JUMPI DUP2 PUSH4 0x18160DDD EQ PUSH2 0x10BC JUMPI DUP2 PUSH4 0x23531B90 EQ PUSH2 0x10A0 JUMPI DUP2 PUSH4 0x23B872DD EQ PUSH2 0xFD6 JUMPI DUP2 PUSH4 0x313CE567 EQ PUSH2 0xFBA JUMPI DUP2 PUSH4 0x39509351 EQ PUSH2 0xF6A JUMPI DUP2 PUSH4 0x43264349 EQ PUSH2 0xC11 JUMPI DUP2 PUSH4 0x485CC955 EQ PUSH2 0xAA5 JUMPI DUP2 PUSH4 0x70A08231 EQ PUSH2 0xA6E JUMPI DUP2 PUSH4 0x95D89B41 EQ PUSH2 0x96B JUMPI DUP2 PUSH4 0x9C8F9F23 EQ PUSH2 0x666 JUMPI DUP2 PUSH4 0x9CD441DA EQ PUSH2 0x28F JUMPI DUP2 PUSH4 0xA457C2D7 EQ PUSH2 0x1E7 JUMPI POP DUP1 PUSH4 0xA9059CBB EQ PUSH2 0x1B7 JUMPI DUP1 PUSH4 0xBA9A7A56 EQ PUSH2 0x162 JUMPI DUP1 PUSH4 0xC45A0155 EQ PUSH2 0x18F JUMPI DUP1 PUSH4 0xD21220A7 EQ PUSH2 0x167 JUMPI DUP1 PUSH4 0xD73792A9 EQ PUSH2 0x162 JUMPI PUSH4 0xDD62ED3E EQ PUSH2 0x117 JUMPI PUSH1 0x0 DUP1 REVERT JUMPDEST CALLVALUE PUSH2 0x15E JUMPI DUP1 PUSH1 0x3 NOT CALLDATASIZE ADD SLT PUSH2 0x15E JUMPI DUP1 PUSH1 0x20 SWAP3 PUSH2 0x133 PUSH2 0x129F JUMP JUMPDEST PUSH2 0x13B PUSH2 0x12BA JUMP JUMPDEST PUSH1 0x1 PUSH1 0x1 PUSH1 0xA0 SHL SUB SWAP2 DUP3 AND DUP4 MSTORE PUSH1 0x1 DUP7 MSTORE DUP4 DUP4 KECCAK256 SWAP2 AND DUP3 MSTORE DUP5 MSTORE KECCAK256 SLOAD SWAP1 MLOAD SWAP1 DUP2 MSTORE RETURN JUMPDEST POP DUP1 REVERT JUMPDEST PUSH2 0x12D0 JUMP JUMPDEST POP CALLVALUE PUSH2 0x15E JUMPI DUP2 PUSH1 0x3 NOT CALLDATASIZE ADD SLT PUSH2 0x15E JUMPI PUSH1 0x7 SLOAD SWAP1 MLOAD PUSH1 0x1 PUSH1 0x1 PUSH1 0xA0 SHL SUB SWAP1 SWAP2 AND DUP2 MSTORE PUSH1 0x20 SWAP1 RETURN JUMPDEST POP CALLVALUE PUSH2 0x15E JUMPI DUP2 PUSH1 0x3 NOT CALLDATASIZE ADD SLT PUSH2 0x15E JUMPI PUSH1 0x8 SLOAD SWAP1 MLOAD PUSH1 0x1 PUSH1 0x1 PUSH1 0xA0 SHL SUB SWAP1 SWAP2 AND DUP2 MSTORE PUSH1 0x20 SWAP1 RETURN JUMPDEST POP CALLVALUE PUSH2 0x15E JUMPI DUP1 PUSH1 0x3 NOT CALLDATASIZE ADD SLT PUSH2 0x15E JUMPI PUSH1 0x20 SWAP1 PUSH2 0x1E0 PUSH2 0x1D6 PUSH2 0x129F JUMP JUMPDEST PUSH1 0x24 CALLDATALOAD SWAP1 CALLER PUSH2 0x1348 JUMP JUMPDEST MLOAD PUSH1 0x1 DUP2 MSTORE RETURN JUMPDEST SWAP1 POP DUP3 CALLVALUE PUSH2 0x28C JUMPI DUP3 PUSH1 0x3 NOT CALLDATASIZE ADD SLT PUSH2 0x28C JUMPI PUSH2 0x202 PUSH2 0x129F JUMP JUMPDEST SWAP2 DUP4 PUSH1 0x24 CALLDATALOAD SWAP3 CALLER DUP2 MSTORE PUSH1 0x1 PUSH1 0x20 MSTORE DUP2 DUP2 KECCAK256 PUSH1 0x1 DUP1 PUSH1 0xA0 SHL SUB DUP7 AND DUP3 MSTORE PUSH1 0x20 MSTORE KECCAK256 SLOAD SWAP1 DUP3 DUP3 LT PUSH2 0x23B JUMPI PUSH1 0x20 DUP6 PUSH2 0x1E0 DUP6 DUP6 SUB DUP8 CALLER PUSH2 0x14A4 JUMP JUMPDEST PUSH1 0x84 SWAP1 PUSH1 0x20 DUP7 MLOAD SWAP2 PUSH3 0x461BCD PUSH1 0xE5 SHL DUP4 MSTORE DUP3 ADD MSTORE PUSH1 0x25 PUSH1 0x24 DUP3 ADD MSTORE PUSH32 0x45524332303A2064656372656173656420616C6C6F77616E63652062656C6F77 PUSH1 0x44 DUP3 ADD MSTORE PUSH5 0x207A65726F PUSH1 0xD8 SHL PUSH1 0x64 DUP3 ADD MSTORE REVERT JUMPDEST DUP1 REVERT JUMPDEST SWAP2 SWAP1 POP CALLVALUE PUSH2 0x662 JUMPI DUP1 PUSH1 0x3 NOT CALLDATASIZE ADD SLT PUSH2 0x662 JUMPI DUP2 CALLDATALOAD SWAP3 PUSH1 0x24 SWAP1 DUP2 CALLDATALOAD PUSH2 0x2B2 PUSH2 0x1776 JUMP JUMPDEST DUP6 ISZERO ISZERO DUP1 PUSH2 0x659 JUMPI JUMPDEST ISZERO PUSH2 0x60B JUMPI PUSH1 0x7 SLOAD PUSH1 0xA0 SHR PUSH1 0xFF AND PUSH2 0x2D2 SWAP1 PUSH2 0x15A6 JUMP JUMPDEST PUSH1 0x6 SLOAD DUP5 MLOAD PUSH4 0x23B872DD PUSH1 0xE0 SHL DUP1 DUP3 MSTORE CALLER DUP9 DUP4 ADD SWAP1 DUP2 MSTORE ADDRESS PUSH1 0x20 DUP1 DUP4 ADD SWAP2 SWAP1 SWAP2 MSTORE PUSH1 0x40 DUP3 ADD DUP12 SWAP1 MSTORE SWAP10 SWAP4 SWAP2 SWAP3 PUSH1 0x1 PUSH1 0x1 PUSH1 0xA0 SHL SUB SWAP3 SWAP1 SWAP2 DUP12 SWAP2 DUP4 SWAP2 DUP3 SWAP1 SUB PUSH1 0x60 ADD SWAP1 DUP3 SWAP1 DUP11 SWAP1 DUP8 AND GAS CALL SWAP1 DUP2 ISZERO PUSH2 0x601 JUMPI SWAP3 DUP10 DUP8 DUP13 SWAP5 PUSH2 0x33E DUP10 SWAP6 PUSH2 0x370 SWAP9 DUP5 SWAP2 PUSH2 0x5EA JUMPI JUMPDEST POP PUSH2 0x1700 JUMP JUMPDEST PUSH1 0x7 SLOAD DUP13 MLOAD SWAP5 DUP6 MSTORE CALLER SWAP4 DUP6 ADD SWAP4 DUP5 MSTORE ADDRESS PUSH1 0x20 DUP6 ADD MSTORE PUSH1 0x40 DUP5 ADD SWAP6 SWAP1 SWAP6 MSTORE SWAP3 SWAP6 DUP7 SWAP5 SWAP4 SWAP1 SWAP4 AND SWAP3 DUP5 SWAP3 DUP4 SWAP2 PUSH1 0x60 SWAP1 SWAP2 ADD SWAP1 JUMP JUMPDEST SUB SWAP3 GAS CALL SWAP1 DUP2 ISZERO PUSH2 0x5E0 JUMPI SWAP1 PUSH2 0x38C SWAP2 DUP6 SWAP2 PUSH2 0x5B3 JUMPI POP PUSH2 0x1700 JUMP JUMPDEST PUSH2 0x394 PUSH2 0x15F2 JUMP JUMPDEST SWAP1 PUSH1 0x2 SLOAD DUP1 ISZERO PUSH1 0x0 EQ PUSH2 0x4FA JUMPI POP POP POP SWAP1 PUSH2 0x3AE SWAP2 PUSH2 0x1743 JUMP JUMPDEST SWAP4 DUP2 PUSH1 0x3 DUP7 GT ISZERO PUSH2 0x4EB JUMPI POP DUP5 PUSH1 0x1 SWAP1 DUP1 DUP3 SHR DUP3 DUP2 ADD DUP1 SWAP2 GT PUSH2 0x4D8 JUMPI SWAP2 SWAP1 JUMPDEST DUP8 DUP4 LT PUSH2 0x4B8 JUMPI POP POP POP JUMPDEST PUSH2 0x3E8 DUP1 DUP7 GT ISZERO PUSH2 0x465 JUMPI PUSH1 0x2 SLOAD DUP2 DUP2 ADD DUP1 SWAP2 GT PUSH2 0x453 JUMPI PUSH1 0x0 DUP1 MLOAD PUSH1 0x20 PUSH2 0x189C DUP4 CODECOPY DUP2 MLOAD SWAP2 MSTORE DUP9 PUSH1 0x1 SWAP4 DUP7 SWAP4 PUSH1 0x2 SSTORE DUP5 DUP5 MSTORE DUP4 DUP3 MSTORE DUP9 DUP5 KECCAK256 DUP2 DUP2 SLOAD ADD SWAP1 SSTORE DUP9 MLOAD SWAP1 DUP2 MSTORE LOG3 PUSH2 0x3E7 NOT DUP6 ADD SWAP5 DUP6 GT PUSH2 0x443 JUMPI POP POP POP PUSH2 0x438 DUP3 CALLER PUSH2 0x17CC JUMP JUMPDEST PUSH1 0x1 PUSH1 0x5 SSTORE MLOAD SWAP1 DUP2 MSTORE RETURN JUMPDEST PUSH4 0x4E487B71 PUSH1 0xE0 SHL DUP3 MSTORE PUSH1 0x11 SWAP1 MSTORE REVERT JUMPDEST POP POP PUSH4 0x4E487B71 PUSH1 0xE0 SHL DUP3 MSTORE PUSH1 0x11 SWAP1 MSTORE REVERT JUMPDEST DUP5 MLOAD PUSH3 0x461BCD PUSH1 0xE5 SHL DUP2 MSTORE DUP1 DUP4 ADD DUP9 SWAP1 MSTORE PUSH1 0x28 DUP2 DUP7 ADD MSTORE PUSH32 0x4D6F6E6F537761703A20494E53554646494349454E545F494E495449414C5F4C PUSH1 0x44 DUP3 ADD MSTORE PUSH8 0x4951554944495459 PUSH1 0xC0 SHL PUSH1 0x64 DUP3 ADD MSTORE PUSH1 0x84 SWAP1 REVERT JUMPDEST SWAP1 SWAP2 SWAP7 POP PUSH2 0x4CF DUP8 PUSH2 0x4CA DUP2 DUP5 PUSH2 0x1756 JUMP JUMPDEST PUSH2 0x1325 JUMP JUMPDEST DUP3 SHR SWAP2 SWAP1 PUSH2 0x3CE JUMP JUMPDEST POP POP PUSH4 0x4E487B71 PUSH1 0xE0 SHL DUP4 MSTORE POP PUSH1 0x11 SWAP1 MSTORE REVERT JUMPDEST SWAP5 ISZERO PUSH2 0x3D9 JUMPI PUSH1 0x1 SWAP5 POP PUSH2 0x3D9 JUMP JUMPDEST DUP1 PUSH2 0x525 PUSH2 0x514 PUSH2 0x52B SWAP4 PUSH2 0x533 SWAP8 SWAP13 SWAP11 SWAP13 SWAP10 SWAP9 SWAP10 PUSH2 0x1743 JUMP JUMPDEST PUSH1 0x1 PUSH1 0x1 PUSH1 0x70 SHL SUB DUP1 SWAP6 AND SWAP1 PUSH2 0x1756 JUMP JUMPDEST SWAP7 PUSH2 0x1743 JUMP JUMPDEST SWAP2 AND SWAP1 PUSH2 0x1756 JUMP JUMPDEST SWAP1 POP DUP1 DUP3 LT ISZERO PUSH2 0x5AB JUMPI POP SWAP1 JUMPDEST DUP2 SWAP4 DUP3 ISZERO PUSH2 0x559 JUMPI POP POP PUSH2 0x554 SWAP1 CALLER PUSH2 0x17CC JUMP JUMPDEST PUSH2 0x438 JUMP JUMPDEST DUP4 MLOAD PUSH3 0x461BCD PUSH1 0xE5 SHL DUP2 MSTORE SWAP2 DUP3 ADD DUP7 SWAP1 MSTORE PUSH1 0x27 SWAP1 DUP3 ADD MSTORE PUSH32 0x4D6F6E6F537761703A20494E53554646494349454E545F4C4951554944495459 PUSH1 0x44 DUP3 ADD MSTORE PUSH7 0x17D35253951151 PUSH1 0xCA SHL PUSH1 0x64 DUP3 ADD MSTORE PUSH1 0x84 SWAP1 REVERT JUMPDEST SWAP1 POP SWAP1 PUSH2 0x540 JUMP JUMPDEST PUSH2 0x5D3 SWAP2 POP DUP10 RETURNDATASIZE DUP12 GT PUSH2 0x5D9 JUMPI JUMPDEST PUSH2 0x5CB DUP2 DUP4 PUSH2 0x12ED JUMP JUMPDEST DUP2 ADD SWAP1 PUSH2 0x16E8 JUMP JUMPDEST CODESIZE PUSH2 0x338 JUMP JUMPDEST POP RETURNDATASIZE PUSH2 0x5C1 JUMP JUMPDEST DUP7 MLOAD RETURNDATASIZE DUP7 DUP3 RETURNDATACOPY RETURNDATASIZE SWAP1 REVERT JUMPDEST PUSH2 0x5D3 SWAP2 POP DUP9 RETURNDATASIZE DUP11 GT PUSH2 0x5D9 JUMPI PUSH2 0x5CB DUP2 DUP4 PUSH2 0x12ED JUMP JUMPDEST DUP9 MLOAD RETURNDATASIZE DUP9 DUP3 RETURNDATACOPY RETURNDATASIZE SWAP1 REVERT JUMPDEST DUP4 MLOAD PUSH3 0x461BCD PUSH1 0xE5 SHL DUP2 MSTORE PUSH1 0x20 DUP2 DUP8 ADD MSTORE PUSH1 0x23 DUP2 DUP6 ADD MSTORE PUSH32 0x4D6F6E6F537761703A20494E53554646494349454E545F494E5055545F414D4F PUSH1 0x44 DUP3 ADD MSTORE PUSH3 0x155395 PUSH1 0xEA SHL PUSH1 0x64 DUP3 ADD MSTORE PUSH1 0x84 SWAP1 REVERT JUMPDEST POP DUP1 ISZERO ISZERO PUSH2 0x2BB JUMP JUMPDEST DUP3 DUP1 REVERT JUMPDEST DUP3 DUP5 CALLVALUE PUSH2 0x28C JUMPI PUSH1 0x20 DUP1 PUSH1 0x3 NOT CALLDATASIZE ADD SLT PUSH2 0x15E JUMPI DUP4 CALLDATALOAD SWAP2 PUSH2 0x685 PUSH2 0x1776 JUMP JUMPDEST DUP3 ISZERO PUSH2 0x918 JUMPI PUSH2 0x6D7 SWAP4 SWAP5 PUSH2 0x6A1 PUSH1 0xFF PUSH1 0x7 SLOAD PUSH1 0xA0 SHR AND PUSH2 0x15A6 JUMP JUMPDEST PUSH2 0x6A9 PUSH2 0x15F2 JUMP JUMPDEST SWAP6 SWAP1 PUSH2 0x6CA PUSH1 0x2 SLOAD SWAP2 PUSH2 0x6CF DUP4 PUSH2 0x6CA PUSH1 0x1 PUSH1 0x1 PUSH1 0x70 SHL SUB DUP1 SWAP5 AND DUP12 PUSH2 0x1743 JUMP JUMPDEST PUSH2 0x1756 JUMP JUMPDEST SWAP9 AND DUP8 PUSH2 0x1743 JUMP JUMPDEST SWAP4 DUP6 ISZERO ISZERO DUP1 PUSH2 0x90F JUMPI JUMPDEST ISZERO PUSH2 0x8CE JUMPI CALLER ISZERO PUSH2 0x881 JUMPI CALLER DUP4 MSTORE DUP3 DUP5 MSTORE DUP7 DUP4 KECCAK256 SLOAD DUP2 DUP2 LT PUSH2 0x833 JUMPI DUP2 DUP8 SWAP4 SWAP3 DUP6 SWAP3 CALLER DUP5 MSTORE DUP4 DUP9 MSTORE SUB DUP10 DUP4 KECCAK256 SSTORE DUP1 PUSH1 0x2 SLOAD SUB PUSH1 0x2 SSTORE DUP9 MLOAD SWAP1 DUP2 MSTORE PUSH1 0x0 DUP1 MLOAD PUSH1 0x20 PUSH2 0x189C DUP4 CODECOPY DUP2 MLOAD SWAP2 MSTORE DUP7 CALLER SWAP3 LOG3 PUSH1 0x6 SLOAD DUP8 MLOAD PUSH4 0xA9059CBB PUSH1 0xE0 SHL DUP1 DUP3 MSTORE CALLER DUP5 DUP4 ADD SWAP1 DUP2 MSTORE PUSH1 0x20 DUP2 ADD SWAP6 SWAP1 SWAP6 MSTORE SWAP4 PUSH1 0x1 PUSH1 0x1 PUSH1 0xA0 SHL SUB SWAP3 DUP8 SWAP2 DUP4 SWAP2 DUP6 AND SWAP1 DUP3 SWAP1 DUP10 SWAP1 DUP3 SWAP1 PUSH1 0x40 ADD SUB SWAP3 GAS CALL SWAP1 DUP2 ISZERO PUSH2 0x829 JUMPI SWAP3 DUP6 DUP9 SWAP4 PUSH2 0x78D PUSH2 0x7BB SWAP8 SWAP5 DUP11 SWAP8 DUP5 SWAP2 PUSH2 0x80C JUMPI JUMPDEST POP PUSH2 0x185D JUMP JUMPDEST PUSH1 0x7 SLOAD AND SWAP3 DUP12 MLOAD SWAP7 DUP8 SWAP6 DUP7 SWAP5 DUP6 SWAP4 DUP5 MSTORE CALLER SWAP1 DUP5 ADD PUSH1 0x20 SWAP1 SWAP4 SWAP3 SWAP2 SWAP4 PUSH1 0x40 DUP2 ADD SWAP5 PUSH1 0x1 DUP1 PUSH1 0xA0 SHL SUB AND DUP2 MSTORE ADD MSTORE JUMP JUMPDEST SUB SWAP3 GAS CALL SWAP2 DUP3 ISZERO PUSH2 0x801 JUMPI SWAP1 PUSH2 0x7D5 SWAP3 PUSH2 0x7E4 JUMPI POP PUSH2 0x185D JUMP JUMPDEST PUSH1 0x1 PUSH1 0x5 SSTORE DUP4 MLOAD SWAP3 DUP4 MSTORE DUP3 ADD MSTORE RETURN JUMPDEST PUSH2 0x7FB SWAP2 POP DUP4 RETURNDATASIZE DUP6 GT PUSH2 0x5D9 JUMPI PUSH2 0x5CB DUP2 DUP4 PUSH2 0x12ED JUMP JUMPDEST DUP7 PUSH2 0x787 JUMP JUMPDEST DUP7 MLOAD SWAP1 RETURNDATASIZE SWAP1 DUP3 RETURNDATACOPY RETURNDATASIZE SWAP1 REVERT JUMPDEST PUSH2 0x823 SWAP2 POP DUP9 RETURNDATASIZE DUP11 GT PUSH2 0x5D9 JUMPI PUSH2 0x5CB DUP2 DUP4 PUSH2 0x12ED JUMP JUMPDEST DUP15 PUSH2 0x787 JUMP JUMPDEST DUP10 MLOAD RETURNDATASIZE DUP8 DUP3 RETURNDATACOPY RETURNDATASIZE SWAP1 REVERT JUMPDEST DUP8 MLOAD PUSH3 0x461BCD PUSH1 0xE5 SHL DUP2 MSTORE DUP1 DUP5 ADD DUP7 SWAP1 MSTORE PUSH1 0x22 PUSH1 0x24 DUP3 ADD MSTORE PUSH32 0x45524332303A206275726E20616D6F756E7420657863656564732062616C616E PUSH1 0x44 DUP3 ADD MSTORE PUSH2 0x6365 PUSH1 0xF0 SHL PUSH1 0x64 DUP3 ADD MSTORE PUSH1 0x84 SWAP1 REVERT JUMPDEST DUP7 MLOAD PUSH3 0x461BCD PUSH1 0xE5 SHL DUP2 MSTORE DUP1 DUP4 ADD DUP6 SWAP1 MSTORE PUSH1 0x21 PUSH1 0x24 DUP3 ADD MSTORE PUSH32 0x45524332303A206275726E2066726F6D20746865207A65726F20616464726573 PUSH1 0x44 DUP3 ADD MSTORE PUSH1 0x73 PUSH1 0xF8 SHL PUSH1 0x64 DUP3 ADD MSTORE PUSH1 0x84 SWAP1 REVERT JUMPDEST PUSH1 0x64 DUP3 DUP6 DUP1 DUP11 MLOAD SWAP3 PUSH3 0x461BCD PUSH1 0xE5 SHL DUP5 MSTORE DUP4 ADD MSTORE PUSH1 0x24 DUP3 ADD MSTORE PUSH32 0x4D6F6E6F537761703A20494E53554646494349454E545F4C4951554944495459 PUSH1 0x44 DUP3 ADD MSTORE REVERT JUMPDEST POP DUP5 ISZERO ISZERO PUSH2 0x6E1 JUMP JUMPDEST DUP4 MLOAD PUSH3 0x461BCD PUSH1 0xE5 SHL DUP2 MSTORE DUP1 DUP7 ADD DUP4 SWAP1 MSTORE PUSH1 0x27 PUSH1 0x24 DUP3 ADD MSTORE PUSH32 0x4D6F6E6F537761703A20494E53554646494349454E545F4C4951554944495459 PUSH1 0x44 DUP3 ADD MSTORE PUSH7 0x17D09554939151 PUSH1 0xCA SHL PUSH1 0x64 DUP3 ADD MSTORE PUSH1 0x84 SWAP1 REVERT JUMPDEST DUP4 DUP4 CALLVALUE PUSH2 0x15E JUMPI DUP2 PUSH1 0x3 NOT CALLDATASIZE ADD SLT PUSH2 0x15E JUMPI DUP1 MLOAD SWAP2 DUP1 SWAP4 DUP1 SLOAD SWAP2 PUSH1 0x1 SWAP1 DUP4 DUP3 SHR SWAP3 DUP3 DUP6 AND SWAP5 DUP6 ISZERO PUSH2 0xA64 JUMPI JUMPDEST PUSH1 0x20 SWAP6 DUP7 DUP7 LT DUP2 EQ PUSH2 0xA51 JUMPI DUP6 DUP10 MSTORE SWAP1 DUP2 ISZERO PUSH2 0xA2D JUMPI POP PUSH1 0x1 EQ PUSH2 0x9D5 JUMPI JUMPDEST PUSH2 0x9D1 DUP8 DUP8 PUSH2 0x9C7 DUP3 DUP13 SUB DUP4 PUSH2 0x12ED JUMP JUMPDEST MLOAD SWAP2 DUP3 SWAP2 DUP3 PUSH2 0x1256 JUMP JUMPDEST SUB SWAP1 RETURN JUMPDEST DUP2 MSTORE SWAP3 SWAP6 POP PUSH32 0x8A35ACFBC15FF81A39AE7D344FD709F28E8600B4AA8C65C6B64BFE7FE36BD19B JUMPDEST DUP3 DUP5 LT PUSH2 0xA1A JUMPI POP POP POP DUP3 PUSH2 0x9D1 SWAP5 PUSH2 0x9C7 SWAP3 DUP3 ADD ADD SWAP5 DUP7 DUP1 PUSH2 0x9B6 JUMP JUMPDEST DUP1 SLOAD DUP7 DUP6 ADD DUP9 ADD MSTORE SWAP3 DUP7 ADD SWAP3 DUP2 ADD PUSH2 0x9FC JUMP JUMPDEST PUSH1 0xFF NOT AND DUP9 DUP8 ADD MSTORE POP POP POP POP ISZERO ISZERO PUSH1 0x5 SHL DUP4 ADD ADD SWAP3 POP PUSH2 0x9C7 DUP3 PUSH2 0x9D1 DUP7 DUP1 PUSH2 0x9B6 JUMP JUMPDEST PUSH4 0x4E487B71 PUSH1 0xE0 SHL DUP5 MSTORE PUSH1 0x22 DUP4 MSTORE PUSH1 0x24 DUP5 REVERT JUMPDEST SWAP4 PUSH1 0x7F AND SWAP4 PUSH2 0x997 JUMP JUMPDEST POP POP CALLVALUE PUSH2 0x15E JUMPI PUSH1 0x20 CALLDATASIZE PUSH1 0x3 NOT ADD SLT PUSH2 0x15E JUMPI PUSH1 0x20 SWAP2 DUP2 SWAP1 PUSH1 0x1 PUSH1 0x1 PUSH1 0xA0 SHL SUB PUSH2 0xA96 PUSH2 0x129F JUMP JUMPDEST AND DUP2 MSTORE DUP1 DUP5 MSTORE KECCAK256 SLOAD SWAP1 MLOAD SWAP1 DUP2 MSTORE RETURN JUMPDEST SWAP1 POP CALLVALUE PUSH2 0x662 JUMPI DUP2 PUSH1 0x3 NOT CALLDATASIZE ADD SLT PUSH2 0x662 JUMPI PUSH2 0xABF PUSH2 0x129F JUMP JUMPDEST SWAP2 PUSH2 0xAC8 PUSH2 0x12BA JUMP JUMPDEST PUSH1 0x8 SLOAD SWAP1 SWAP4 PUSH1 0x1 PUSH1 0x1 PUSH1 0xA0 SHL SUB SWAP3 SWAP1 SWAP2 DUP4 AND CALLER SUB PUSH2 0xBD9 JUMPI PUSH1 0x7 SLOAD SWAP4 PUSH1 0xFF DUP6 PUSH1 0xA0 SHR AND PUSH2 0xB97 JUMPI DUP4 DUP4 AND SWAP2 DUP3 ISZERO ISZERO DUP1 PUSH2 0xB8C JUMPI JUMPDEST ISZERO PUSH2 0xB50 JUMPI POP POP DUP5 DUP4 AND GT ISZERO PUSH2 0xB48 JUMPI DUP2 SWAP1 JUMPDEST AND PUSH12 0xFFFFFFFFFFFFFFFFFFFFFFFF PUSH1 0xA0 SHL PUSH1 0x6 SLOAD AND OR PUSH1 0x6 SSTORE PUSH1 0x1 PUSH1 0xA0 SHL SWAP3 AND SWAP1 PUSH11 0xFFFFFFFFFFFFFFFFFFFFFF PUSH1 0xA8 SHL AND OR OR PUSH1 0x7 SSTORE DUP1 RETURN JUMPDEST SWAP3 DUP2 SWAP1 PUSH2 0xB0F JUMP JUMPDEST SWAP1 PUSH1 0x20 PUSH1 0x64 SWAP3 MLOAD SWAP2 PUSH3 0x461BCD PUSH1 0xE5 SHL DUP4 MSTORE DUP3 ADD MSTORE PUSH1 0x16 PUSH1 0x24 DUP3 ADD MSTORE PUSH22 0x4D6F6E6F537761703A205A45524F5F41444452455353 PUSH1 0x50 SHL PUSH1 0x44 DUP3 ADD MSTORE REVERT JUMPDEST POP DUP5 DUP8 AND ISZERO ISZERO PUSH2 0xAFC JUMP JUMPDEST PUSH1 0x20 PUSH1 0x64 SWAP3 MLOAD SWAP2 PUSH3 0x461BCD PUSH1 0xE5 SHL DUP4 MSTORE DUP3 ADD MSTORE PUSH1 0x1D PUSH1 0x24 DUP3 ADD MSTORE PUSH32 0x4D6F6E6F537761703A20414C52454144595F494E495449414C495A4544000000 PUSH1 0x44 DUP3 ADD MSTORE REVERT JUMPDEST MLOAD PUSH3 0x461BCD PUSH1 0xE5 SHL DUP2 MSTORE PUSH1 0x20 DUP2 DUP6 ADD MSTORE PUSH1 0x13 PUSH1 0x24 DUP3 ADD MSTORE PUSH19 0x26B7B737A9BBB0B81D102327A92124A22222A7 PUSH1 0x69 SHL PUSH1 0x44 DUP3 ADD MSTORE PUSH1 0x64 SWAP1 REVERT JUMPDEST SWAP2 SWAP1 POP CALLVALUE PUSH2 0x662 JUMPI PUSH1 0x60 CALLDATASIZE PUSH1 0x3 NOT ADD SLT PUSH2 0x662 JUMPI DUP2 CALLDATALOAD PUSH2 0xC2F PUSH2 0x12BA JUMP JUMPDEST SWAP3 PUSH2 0xC38 PUSH2 0x1776 JUMP JUMPDEST PUSH1 0x6 SLOAD PUSH1 0x1 PUSH1 0x1 PUSH1 0xA0 SHL SUB SWAP5 DUP6 AND SWAP1 DUP6 AND DUP2 EQ SWAP5 SWAP1 DUP6 SWAP1 DUP2 ISZERO PUSH2 0xF5C JUMPI JUMPDEST POP ISZERO PUSH2 0xF19 JUMPI PUSH1 0x7 SLOAD PUSH2 0xC6E PUSH1 0xFF DUP3 PUSH1 0xA0 SHR AND PUSH2 0x15A6 JUMP JUMPDEST PUSH2 0xC76 PUSH2 0x15F2 JUMP JUMPDEST DUP8 ISZERO PUSH2 0xF13 JUMPI DUP2 SWAP1 JUMPDEST PUSH1 0x1 PUSH1 0x1 PUSH1 0x70 SHL SUB SWAP2 DUP3 AND SWAP3 DUP10 ISZERO PUSH2 0xF0B JUMPI POP SWAP1 JUMPDEST PUSH2 0x3E5 SWAP2 DUP3 DUP9 MUL SWAP3 DUP9 DUP5 DIV EQ DUP9 ISZERO OR ISZERO PUSH2 0xEF8 JUMPI PUSH2 0xCB3 SWAP2 AND DUP3 PUSH2 0x1743 JUMP JUMPDEST SWAP2 PUSH2 0x3E8 SWAP1 DUP2 DUP2 MUL SWAP2 DUP2 DUP4 DIV EQ SWAP1 ISZERO OR ISZERO PUSH2 0xEE5 JUMPI PUSH2 0xCDC SWAP3 SWAP2 PUSH2 0xCD6 SWAP2 PUSH2 0x1325 JUMP JUMPDEST SWAP1 PUSH2 0x1756 JUMP JUMPDEST SWAP6 PUSH1 0x44 CALLDATALOAD DUP8 LT PUSH2 0xE96 JUMPI ISZERO PUSH2 0xDE7 JUMPI POP PUSH1 0x6 SLOAD DUP5 MLOAD PUSH4 0x23B872DD PUSH1 0xE0 SHL DUP2 MSTORE CALLER DUP5 DUP3 ADD SWAP1 DUP2 MSTORE ADDRESS PUSH1 0x20 DUP3 DUP2 ADD SWAP2 SWAP1 SWAP2 MSTORE PUSH1 0x40 DUP3 ADD SWAP7 SWAP1 SWAP7 MSTORE SWAP1 SWAP2 DUP6 SWAP2 DUP4 SWAP2 DUP6 AND SWAP1 DUP3 SWAP1 DUP12 SWAP1 DUP3 SWAP1 PUSH1 0x60 ADD SUB SWAP3 GAS CALL SWAP1 DUP2 ISZERO PUSH2 0xDDD JUMPI SWAP3 DUP5 SWAP3 PUSH2 0xD49 DUP9 SWAP4 PUSH2 0xD7E SWAP7 DUP12 SWAP2 PUSH2 0xDC6 JUMPI POP PUSH2 0x1700 JUMP JUMPDEST PUSH1 0x7 SLOAD DUP8 MLOAD PUSH4 0xA9059CBB PUSH1 0xE0 SHL DUP2 MSTORE CALLER SWAP4 DUP2 ADD SWAP4 DUP5 MSTORE PUSH1 0x20 DUP5 ADD SWAP5 SWAP1 SWAP5 MSTORE SWAP3 SWAP5 DUP6 SWAP4 SWAP2 SWAP1 SWAP2 AND SWAP2 DUP4 SWAP2 DUP11 SWAP2 DUP4 SWAP2 PUSH1 0x40 SWAP1 SWAP2 ADD SWAP1 JUMP JUMPDEST SUB SWAP3 GAS CALL SWAP2 DUP3 ISZERO PUSH2 0xDBC JUMPI SWAP1 PUSH2 0x438 SWAP3 SWAP2 PUSH1 0x20 SWAP7 SWAP3 PUSH2 0xD9F JUMPI JUMPDEST POP POP PUSH2 0x185D JUMP JUMPDEST PUSH2 0xDB5 SWAP3 POP DUP1 RETURNDATASIZE LT PUSH2 0x5D9 JUMPI PUSH2 0x5CB DUP2 DUP4 PUSH2 0x12ED JUMP JUMPDEST CODESIZE DUP1 PUSH2 0xD98 JUMP JUMPDEST DUP4 MLOAD RETURNDATASIZE DUP8 DUP3 RETURNDATACOPY RETURNDATASIZE SWAP1 REVERT JUMPDEST PUSH2 0x5D3 SWAP2 POP DUP7 RETURNDATASIZE DUP9 GT PUSH2 0x5D9 JUMPI PUSH2 0x5CB DUP2 DUP4 PUSH2 0x12ED JUMP JUMPDEST DUP6 MLOAD RETURNDATASIZE DUP10 DUP3 RETURNDATACOPY RETURNDATASIZE SWAP1 REVERT JUMPDEST DUP5 MLOAD PUSH4 0x23B872DD PUSH1 0xE0 SHL DUP2 MSTORE CALLER DUP5 DUP3 ADD SWAP1 DUP2 MSTORE ADDRESS PUSH1 0x20 DUP1 DUP4 ADD SWAP2 SWAP1 SWAP2 MSTORE PUSH1 0x40 DUP3 ADD SWAP7 SWAP1 SWAP7 MSTORE SWAP1 SWAP2 DUP6 SWAP2 DUP4 SWAP2 SWAP1 DUP3 SWAP1 SUB PUSH1 0x60 ADD SWAP1 DUP3 SWAP1 DUP12 SWAP1 DUP8 AND GAS CALL SWAP1 DUP2 ISZERO PUSH2 0xDDD JUMPI SWAP3 DUP5 SWAP3 PUSH2 0xE41 DUP9 SWAP4 PUSH2 0xE76 SWAP7 DUP12 SWAP2 PUSH2 0xDC6 JUMPI POP PUSH2 0x1700 JUMP JUMPDEST PUSH1 0x6 SLOAD DUP8 MLOAD PUSH4 0xA9059CBB PUSH1 0xE0 SHL DUP2 MSTORE CALLER SWAP4 DUP2 ADD SWAP4 DUP5 MSTORE PUSH1 0x20 DUP5 ADD SWAP5 SWAP1 SWAP5 MSTORE SWAP3 SWAP5 DUP6 SWAP4 SWAP2 SWAP1 SWAP2 AND SWAP2 DUP4 SWAP2 DUP11 SWAP2 DUP4 SWAP2 PUSH1 0x40 SWAP1 SWAP2 ADD SWAP1 JUMP JUMPDEST SUB SWAP3 GAS CALL SWAP2 DUP3 ISZERO PUSH2 0xDBC JUMPI SWAP1 PUSH2 0x554 SWAP3 SWAP2 PUSH1 0x20 SWAP7 SWAP3 PUSH2 0xD9F JUMPI POP POP PUSH2 0x185D JUMP JUMPDEST DUP6 MLOAD PUSH3 0x461BCD PUSH1 0xE5 SHL DUP2 MSTORE PUSH1 0x20 DUP2 DUP7 ADD MSTORE PUSH1 0x24 DUP1 DUP3 ADD MSTORE PUSH32 0x4D6F6E6F537761703A20494E53554646494349454E545F4F55545055545F414D PUSH1 0x44 DUP3 ADD MSTORE PUSH4 0x13D55395 PUSH1 0xE2 SHL PUSH1 0x64 DUP3 ADD MSTORE PUSH1 0x84 SWAP1 REVERT JUMPDEST PUSH4 0x4E487B71 PUSH1 0xE0 SHL DUP11 MSTORE PUSH1 0x11 DUP7 MSTORE PUSH1 0x24 DUP11 REVERT JUMPDEST PUSH4 0x4E487B71 PUSH1 0xE0 SHL DUP12 MSTORE PUSH1 0x11 DUP8 MSTORE PUSH1 0x24 DUP12 REVERT JUMPDEST SWAP1 POP SWAP1 PUSH2 0xC94 JUMP JUMPDEST DUP1 PUSH2 0xC7F JUMP JUMPDEST DUP4 MLOAD PUSH3 0x461BCD PUSH1 0xE5 SHL DUP2 MSTORE PUSH1 0x20 DUP2 DUP5 ADD MSTORE PUSH1 0x17 PUSH1 0x24 DUP3 ADD MSTORE PUSH32 0x4D6F6E6F537761703A20494E56414C49445F544F4B454E000000000000000000 PUSH1 0x44 DUP3 ADD MSTORE PUSH1 0x64 SWAP1 REVERT JUMPDEST SWAP1 POP DUP2 PUSH1 0x7 SLOAD AND EQ CODESIZE PUSH2 0xC56 JUMP JUMPDEST POP POP CALLVALUE PUSH2 0x15E JUMPI DUP1 PUSH1 0x3 NOT CALLDATASIZE ADD SLT PUSH2 0x15E JUMPI PUSH2 0x1E0 PUSH1 0x20 SWAP3 PUSH2 0xFB3 PUSH2 0xF8D PUSH2 0x129F JUMP JUMPDEST CALLER DUP4 MSTORE PUSH1 0x1 DUP7 MSTORE DUP5 DUP4 KECCAK256 PUSH1 0x1 PUSH1 0x1 PUSH1 0xA0 SHL SUB DUP3 AND DUP5 MSTORE DUP7 MSTORE SWAP2 DUP5 SWAP1 KECCAK256 SLOAD PUSH1 0x24 CALLDATALOAD SWAP1 PUSH2 0x1325 JUMP JUMPDEST SWAP1 CALLER PUSH2 0x14A4 JUMP JUMPDEST POP POP CALLVALUE PUSH2 0x15E JUMPI DUP2 PUSH1 0x3 NOT CALLDATASIZE ADD SLT PUSH2 0x15E JUMPI PUSH1 0x20 SWAP1 MLOAD PUSH1 0x12 DUP2 MSTORE RETURN JUMPDEST DUP4 SWAP2 POP CALLVALUE PUSH2 0x15E JUMPI PUSH1 0x60 CALLDATASIZE PUSH1 0x3 NOT ADD SLT PUSH2 0x15E JUMPI PUSH2 0xFF2 PUSH2 0x129F JUMP JUMPDEST PUSH2 0xFFA PUSH2 0x12BA JUMP JUMPDEST SWAP2 DUP5 PUSH1 0x44 CALLDATALOAD SWAP5 PUSH1 0x1 DUP1 PUSH1 0xA0 SHL SUB DUP5 AND DUP2 MSTORE PUSH1 0x1 PUSH1 0x20 MSTORE DUP2 DUP2 KECCAK256 CALLER DUP3 MSTORE PUSH1 0x20 MSTORE KECCAK256 SLOAD SWAP1 PUSH1 0x0 NOT DUP3 SUB PUSH2 0x1034 JUMPI JUMPDEST PUSH1 0x20 DUP7 PUSH2 0x1E0 DUP8 DUP8 DUP8 PUSH2 0x1348 JUMP JUMPDEST DUP5 DUP3 LT PUSH2 0x105D JUMPI POP SWAP2 DUP4 SWAP2 PUSH2 0x1052 PUSH1 0x20 SWAP7 SWAP6 PUSH2 0x1E0 SWAP6 SUB CALLER DUP4 PUSH2 0x14A4 JUMP JUMPDEST SWAP2 SWAP4 SWAP5 DUP2 SWAP4 POP PUSH2 0x1026 JUMP JUMPDEST PUSH1 0x64 SWAP1 PUSH1 0x20 DUP8 MLOAD SWAP2 PUSH3 0x461BCD PUSH1 0xE5 SHL DUP4 MSTORE DUP3 ADD MSTORE PUSH1 0x1D PUSH1 0x24 DUP3 ADD MSTORE PUSH32 0x45524332303A20696E73756666696369656E7420616C6C6F77616E6365000000 PUSH1 0x44 DUP3 ADD MSTORE REVERT JUMPDEST POP POP CALLVALUE PUSH2 0x15E JUMPI DUP2 PUSH1 0x3 NOT CALLDATASIZE ADD SLT PUSH2 0x15E JUMPI PUSH1 0x20 SWAP1 MLOAD PUSH1 0x3 DUP2 MSTORE RETURN JUMPDEST POP POP CALLVALUE PUSH2 0x15E JUMPI DUP2 PUSH1 0x3 NOT CALLDATASIZE ADD SLT PUSH2 0x15E JUMPI PUSH1 0x20 SWAP1 PUSH1 0x2 SLOAD SWAP1 MLOAD SWAP1 DUP2 MSTORE RETURN JUMPDEST POP POP CALLVALUE PUSH2 0x15E JUMPI DUP2 PUSH1 0x3 NOT CALLDATASIZE ADD SLT PUSH2 0x15E JUMPI PUSH1 0x6 SLOAD SWAP1 MLOAD PUSH1 0x1 PUSH1 0x1 PUSH1 0xA0 SHL SUB SWAP1 SWAP2 AND DUP2 MSTORE PUSH1 0x20 SWAP1 RETURN JUMPDEST POP POP CALLVALUE PUSH2 0x15E JUMPI DUP1 PUSH1 0x3 NOT CALLDATASIZE ADD SLT PUSH2 0x15E JUMPI PUSH1 0x20 SWAP1 PUSH2 0x1E0 PUSH2 0x1124 PUSH2 0x129F JUMP JUMPDEST PUSH1 0x24 CALLDATALOAD SWAP1 CALLER PUSH2 0x14A4 JUMP JUMPDEST DUP3 DUP5 CALLVALUE PUSH2 0x28C JUMPI DUP1 PUSH1 0x3 NOT CALLDATASIZE ADD SLT PUSH2 0x28C JUMPI POP PUSH2 0x1149 PUSH2 0x15F2 JUMP JUMPDEST DUP3 MLOAD PUSH1 0x1 PUSH1 0x1 PUSH1 0x70 SHL SUB SWAP3 DUP4 AND DUP2 MSTORE SWAP2 AND PUSH1 0x20 DUP3 ADD MSTORE RETURN JUMPDEST SWAP3 SWAP2 POP CALLVALUE PUSH2 0x1252 JUMPI DUP4 PUSH1 0x3 NOT CALLDATASIZE ADD SLT PUSH2 0x1252 JUMPI PUSH1 0x3 SLOAD PUSH1 0x1 DUP2 DUP2 SHR SWAP2 DUP7 SWAP1 DUP3 DUP2 AND DUP1 ISZERO PUSH2 0x1248 JUMPI JUMPDEST PUSH1 0x20 SWAP6 DUP7 DUP7 LT DUP3 EQ PUSH2 0x1235 JUMPI POP DUP5 DUP9 MSTORE SWAP1 DUP2 ISZERO PUSH2 0x1213 JUMPI POP PUSH1 0x1 EQ PUSH2 0x11BA JUMPI JUMPDEST PUSH2 0x9D1 DUP7 DUP7 PUSH2 0x9C7 DUP3 DUP12 SUB DUP4 PUSH2 0x12ED JUMP JUMPDEST SWAP3 SWAP6 POP PUSH1 0x3 DUP4 MSTORE PUSH32 0xC2575A0E9E593C00F959F8C92F12DB2869C3395A3B0502D05E2516446F71F85B JUMPDEST DUP3 DUP5 LT PUSH2 0x1200 JUMPI POP POP POP DUP3 PUSH2 0x9D1 SWAP5 PUSH2 0x9C7 SWAP3 DUP3 ADD ADD SWAP5 CODESIZE PUSH2 0x11A9 JUMP JUMPDEST DUP1 SLOAD DUP7 DUP6 ADD DUP9 ADD MSTORE SWAP3 DUP7 ADD SWAP3 DUP2 ADD PUSH2 0x11E3 JUMP JUMPDEST PUSH1 0xFF NOT AND DUP8 DUP7 ADD MSTORE POP POP POP ISZERO ISZERO PUSH1 0x5 SHL DUP4 ADD ADD SWAP3 POP PUSH2 0x9C7 DUP3 PUSH2 0x9D1 CODESIZE PUSH2 0x11A9 JUMP JUMPDEST PUSH4 0x4E487B71 PUSH1 0xE0 SHL DUP5 MSTORE PUSH1 0x22 SWAP1 MSTORE PUSH1 0x24 DUP4 REVERT JUMPDEST SWAP4 PUSH1 0x7F AND SWAP4 PUSH2 0x1189 JUMP JUMPDEST DUP4 DUP1 REVERT JUMPDEST PUSH1 0x20 DUP1 DUP3 MSTORE DUP3 MLOAD DUP2 DUP4 ADD DUP2 SWAP1 MSTORE SWAP1 SWAP4 SWAP3 PUSH1 0x0 JUMPDEST DUP3 DUP2 LT PUSH2 0x128B JUMPI POP POP PUSH1 0x40 SWAP3 SWAP4 POP PUSH1 0x0 DUP4 DUP3 DUP5 ADD ADD MSTORE PUSH1 0x1F DUP1 NOT SWAP2 ADD AND ADD ADD SWAP1 JUMP JUMPDEST DUP2 DUP2 ADD DUP7 ADD MLOAD DUP5 DUP3 ADD PUSH1 0x40 ADD MSTORE DUP6 ADD PUSH2 0x1269 JUMP JUMPDEST PUSH1 0x4 CALLDATALOAD SWAP1 PUSH1 0x1 PUSH1 0x1 PUSH1 0xA0 SHL SUB DUP3 AND DUP3 SUB PUSH2 0x12B5 JUMPI JUMP JUMPDEST PUSH1 0x0 DUP1 REVERT JUMPDEST PUSH1 0x24 CALLDATALOAD SWAP1 PUSH1 0x1 PUSH1 0x1 PUSH1 0xA0 SHL SUB DUP3 AND DUP3 SUB PUSH2 0x12B5 JUMPI JUMP JUMPDEST CALLVALUE PUSH2 0x12B5 JUMPI PUSH1 0x0 CALLDATASIZE PUSH1 0x3 NOT ADD SLT PUSH2 0x12B5 JUMPI PUSH1 0x20 PUSH1 0x40 MLOAD PUSH2 0x3E8 DUP2 MSTORE RETURN JUMPDEST SWAP1 PUSH1 0x1F DUP1 NOT SWAP2 ADD AND DUP2 ADD SWAP1 DUP2 LT PUSH8 0xFFFFFFFFFFFFFFFF DUP3 GT OR PUSH2 0x130F JUMPI PUSH1 0x40 MSTORE JUMP JUMPDEST PUSH4 0x4E487B71 PUSH1 0xE0 SHL PUSH1 0x0 MSTORE PUSH1 0x41 PUSH1 0x4 MSTORE PUSH1 0x24 PUSH1 0x0 REVERT JUMPDEST SWAP2 SWAP1 DUP3 ADD DUP1 SWAP3 GT PUSH2 0x1332 JUMPI JUMP JUMPDEST PUSH4 0x4E487B71 PUSH1 0xE0 SHL PUSH1 0x0 MSTORE PUSH1 0x11 PUSH1 0x4 MSTORE PUSH1 0x24 PUSH1 0x0 REVERT JUMPDEST PUSH1 0x1 PUSH1 0x1 PUSH1 0xA0 SHL SUB SWAP1 DUP2 AND SWAP2 DUP3 ISZERO PUSH2 0x1451 JUMPI AND SWAP2 DUP3 ISZERO PUSH2 0x1400 JUMPI PUSH1 0x0 DUP3 DUP2 MSTORE DUP1 PUSH1 0x20 MSTORE PUSH1 0x40 DUP2 KECCAK256 SLOAD SWAP2 DUP1 DUP4 LT PUSH2 0x13AC JUMPI PUSH1 0x40 DUP3 DUP3 PUSH1 0x0 DUP1 MLOAD PUSH1 0x20 PUSH2 0x189C DUP4 CODECOPY DUP2 MLOAD SWAP2 MSTORE SWAP6 DUP8 PUSH1 0x20 SWAP7 MSTORE DUP3 DUP7 MSTORE SUB DUP3 DUP3 KECCAK256 SSTORE DUP7 DUP2 MSTORE KECCAK256 DUP2 DUP2 SLOAD ADD SWAP1 SSTORE PUSH1 0x40 MLOAD SWAP1 DUP2 MSTORE LOG3 JUMP JUMPDEST PUSH1 0x40 MLOAD PUSH3 0x461BCD PUSH1 0xE5 SHL DUP2 MSTORE PUSH1 0x20 PUSH1 0x4 DUP3 ADD MSTORE PUSH1 0x26 PUSH1 0x24 DUP3 ADD MSTORE PUSH32 0x45524332303A207472616E7366657220616D6F756E7420657863656564732062 PUSH1 0x44 DUP3 ADD MSTORE PUSH6 0x616C616E6365 PUSH1 0xD0 SHL PUSH1 0x64 DUP3 ADD MSTORE PUSH1 0x84 SWAP1 REVERT JUMPDEST PUSH1 0x40 MLOAD PUSH3 0x461BCD PUSH1 0xE5 SHL DUP2 MSTORE PUSH1 0x20 PUSH1 0x4 DUP3 ADD MSTORE PUSH1 0x23 PUSH1 0x24 DUP3 ADD MSTORE PUSH32 0x45524332303A207472616E7366657220746F20746865207A65726F2061646472 PUSH1 0x44 DUP3 ADD MSTORE PUSH3 0x657373 PUSH1 0xE8 SHL PUSH1 0x64 DUP3 ADD MSTORE PUSH1 0x84 SWAP1 REVERT JUMPDEST PUSH1 0x40 MLOAD PUSH3 0x461BCD PUSH1 0xE5 SHL DUP2 MSTORE PUSH1 0x20 PUSH1 0x4 DUP3 ADD MSTORE PUSH1 0x25 PUSH1 0x24 DUP3 ADD MSTORE PUSH32 0x45524332303A207472616E736665722066726F6D20746865207A65726F206164 PUSH1 0x44 DUP3 ADD MSTORE PUSH5 0x6472657373 PUSH1 0xD8 SHL PUSH1 0x64 DUP3 ADD MSTORE PUSH1 0x84 SWAP1 REVERT JUMPDEST PUSH1 0x1 PUSH1 0x1 PUSH1 0xA0 SHL SUB SWAP1 DUP2 AND SWAP2 DUP3 ISZERO PUSH2 0x1555 JUMPI AND SWAP2 DUP3 ISZERO PUSH2 0x1505 JUMPI PUSH1 0x20 PUSH32 0x8C5BE1E5EBEC7D5BD14F71427D1E84F3DD0314C0F7B2291E5B200AC8C7C3B925 SWAP2 DUP4 PUSH1 0x0 MSTORE PUSH1 0x1 DUP3 MSTORE PUSH1 0x40 PUSH1 0x0 KECCAK256 DUP6 PUSH1 0x0 MSTORE DUP3 MSTORE DUP1 PUSH1 0x40 PUSH1 0x0 KECCAK256 SSTORE PUSH1 0x40 MLOAD SWAP1 DUP2 MSTORE LOG3 JUMP JUMPDEST PUSH1 0x40 MLOAD PUSH3 0x461BCD PUSH1 0xE5 SHL DUP2 MSTORE PUSH1 0x20 PUSH1 0x4 DUP3 ADD MSTORE PUSH1 0x22 PUSH1 0x24 DUP3 ADD MSTORE PUSH32 0x45524332303A20617070726F766520746F20746865207A65726F206164647265 PUSH1 0x44 DUP3 ADD MSTORE PUSH2 0x7373 PUSH1 0xF0 SHL PUSH1 0x64 DUP3 ADD MSTORE PUSH1 0x84 SWAP1 REVERT JUMPDEST PUSH1 0x40 MLOAD PUSH3 0x461BCD PUSH1 0xE5 SHL DUP2 MSTORE PUSH1 0x20 PUSH1 0x4 DUP3 ADD MSTORE PUSH1 0x24 DUP1 DUP3 ADD MSTORE PUSH32 0x45524332303A20617070726F76652066726F6D20746865207A65726F20616464 PUSH1 0x44 DUP3 ADD MSTORE PUSH4 0x72657373 PUSH1 0xE0 SHL PUSH1 0x64 DUP3 ADD MSTORE PUSH1 0x84 SWAP1 REVERT JUMPDEST ISZERO PUSH2 0x15AD JUMPI JUMP JUMPDEST PUSH1 0x40 MLOAD PUSH3 0x461BCD PUSH1 0xE5 SHL DUP2 MSTORE PUSH1 0x20 PUSH1 0x4 DUP3 ADD MSTORE PUSH1 0x19 PUSH1 0x24 DUP3 ADD MSTORE PUSH32 0x4D6F6E6F537761703A204E4F545F494E495449414C495A454400000000000000 PUSH1 0x44 DUP3 ADD MSTORE PUSH1 0x64 SWAP1 REVERT JUMPDEST PUSH1 0x7 SLOAD SWAP1 PUSH2 0x1605 PUSH1 0xFF DUP4 PUSH1 0xA0 SHR AND PUSH2 0x15A6 JUMP JUMPDEST PUSH1 0x6 SLOAD PUSH1 0x40 MLOAD PUSH4 0x70A08231 PUSH1 0xE0 SHL DUP1 DUP3 MSTORE ADDRESS PUSH1 0x4 DUP4 ADD MSTORE SWAP4 SWAP1 SWAP2 PUSH1 0x1 PUSH1 0x1 PUSH1 0xA0 SHL SUB SWAP2 PUSH1 0x20 SWAP2 DUP3 SWAP1 DUP6 SWAP1 PUSH1 0x24 SWAP1 DUP3 SWAP1 DUP8 AND GAS STATICCALL SWAP4 DUP5 ISZERO PUSH2 0x16AD JUMPI PUSH1 0x0 SWAP5 PUSH2 0x16B9 JUMPI JUMPDEST POP DUP2 SWAP1 PUSH1 0x24 PUSH1 0x1 PUSH1 0x1 PUSH1 0x70 SHL SUB DUP1 SWAP7 AND SWAP8 PUSH1 0x40 MLOAD SWAP6 DUP7 SWAP4 DUP5 SWAP3 DUP4 MSTORE ADDRESS PUSH1 0x4 DUP5 ADD MSTORE AND GAS STATICCALL SWAP1 DUP2 ISZERO PUSH2 0x16AD JUMPI PUSH1 0x0 SWAP2 PUSH2 0x1681 JUMPI JUMPDEST POP SWAP1 POP AND SWAP1 JUMP JUMPDEST DUP3 DUP2 RETURNDATASIZE DUP4 GT PUSH2 0x16A6 JUMPI JUMPDEST PUSH2 0x1695 DUP2 DUP4 PUSH2 0x12ED JUMP JUMPDEST DUP2 ADD SUB SLT PUSH2 0x28C JUMPI POP MLOAD DUP1 CODESIZE PUSH2 0x167A JUMP JUMPDEST POP RETURNDATASIZE PUSH2 0x168B JUMP JUMPDEST PUSH1 0x40 MLOAD RETURNDATASIZE PUSH1 0x0 DUP3 RETURNDATACOPY RETURNDATASIZE SWAP1 REVERT JUMPDEST SWAP1 SWAP4 DUP3 DUP3 DUP2 RETURNDATASIZE DUP4 GT PUSH2 0x16E1 JUMPI JUMPDEST PUSH2 0x16D0 DUP2 DUP4 PUSH2 0x12ED JUMP JUMPDEST DUP2 ADD SUB SLT PUSH2 0x28C JUMPI POP MLOAD SWAP3 DUP2 PUSH2 0x1647 JUMP JUMPDEST POP RETURNDATASIZE PUSH2 0x16C6 JUMP JUMPDEST SWAP1 DUP2 PUSH1 0x20 SWAP2 SUB SLT PUSH2 0x12B5 JUMPI MLOAD DUP1 ISZERO ISZERO DUP2 SUB PUSH2 0x12B5 JUMPI SWAP1 JUMP JUMPDEST ISZERO PUSH2 0x1707 JUMPI JUMP JUMPDEST PUSH1 0x40 MLOAD PUSH3 0x461BCD PUSH1 0xE5 SHL DUP2 MSTORE PUSH1 0x20 PUSH1 0x4 DUP3 ADD MSTORE PUSH1 0x14 PUSH1 0x24 DUP3 ADD MSTORE PUSH20 0x1514905394D1915497D19493D357D19052531151 PUSH1 0x62 SHL PUSH1 0x44 DUP3 ADD MSTORE PUSH1 0x64 SWAP1 REVERT JUMPDEST DUP2 DUP2 MUL SWAP3 SWAP2 DUP2 ISZERO SWAP2 DUP5 DIV EQ OR ISZERO PUSH2 0x1332 JUMPI JUMP JUMPDEST DUP2 ISZERO PUSH2 0x1760 JUMPI DIV SWAP1 JUMP JUMPDEST PUSH4 0x4E487B71 PUSH1 0xE0 SHL PUSH1 0x0 MSTORE PUSH1 0x12 PUSH1 0x4 MSTORE PUSH1 0x24 PUSH1 0x0 REVERT JUMPDEST PUSH1 0x2 PUSH1 0x5 SLOAD EQ PUSH2 0x1787 JUMPI PUSH1 0x2 PUSH1 0x5 SSTORE JUMP JUMPDEST PUSH1 0x40 MLOAD PUSH3 0x461BCD PUSH1 0xE5 SHL DUP2 MSTORE PUSH1 0x20 PUSH1 0x4 DUP3 ADD MSTORE PUSH1 0x1F PUSH1 0x24 DUP3 ADD MSTORE PUSH32 0x5265656E7472616E637947756172643A207265656E7472616E742063616C6C00 PUSH1 0x44 DUP3 ADD MSTORE PUSH1 0x64 SWAP1 REVERT JUMPDEST PUSH1 0x1 PUSH1 0x1 PUSH1 0xA0 SHL SUB AND SWAP1 DUP2 ISZERO PUSH2 0x1818 JUMPI PUSH1 0x0 DUP1 MLOAD PUSH1 0x20 PUSH2 0x189C DUP4 CODECOPY DUP2 MLOAD SWAP2 MSTORE PUSH1 0x20 DUP3 PUSH2 0x17FC PUSH1 0x0 SWAP5 PUSH1 0x2 SLOAD PUSH2 0x1325 JUMP JUMPDEST PUSH1 0x2 SSTORE DUP5 DUP5 MSTORE DUP4 DUP3 MSTORE PUSH1 0x40 DUP5 KECCAK256 DUP2 DUP2 SLOAD ADD SWAP1 SSTORE PUSH1 0x40 MLOAD SWAP1 DUP2 MSTORE LOG3 JUMP JUMPDEST PUSH1 0x40 MLOAD PUSH3 0x461BCD PUSH1 0xE5 SHL DUP2 MSTORE PUSH1 0x20 PUSH1 0x4 DUP3 ADD MSTORE PUSH1 0x1F PUSH1 0x24 DUP3 ADD MSTORE PUSH32 0x45524332303A206D696E7420746F20746865207A65726F206164647265737300 PUSH1 0x44 DUP3 ADD MSTORE PUSH1 0x64 SWAP1 REVERT JUMPDEST ISZERO PUSH2 0x1864 JUMPI JUMP JUMPDEST PUSH1 0x40 MLOAD PUSH3 0x461BCD PUSH1 0xE5 SHL DUP2 MSTORE PUSH1 0x20 PUSH1 0x4 DUP3 ADD MSTORE PUSH1 0xF PUSH1 0x24 DUP3 ADD MSTORE PUSH15 0x1514905394D1915497D19052531151 PUSH1 0x8A SHL PUSH1 0x44 DUP3 ADD MSTORE PUSH1 0x64 SWAP1 REVERT INVALID 0xDD CALLCODE MSTORE 0xAD SHL 0xE2 0xC8 SWAP12 PUSH10 0xC2B068FC378DAA952BA7 CALL PUSH4 0xC4A11628 CREATE2 GAS 0x4D CREATE2 0x23 0xB3 0xEF LOG2 PUSH5 0x6970667358 0x22 SLT KECCAK256 DUP16 0x4B SIGNEXTEND CALLDATASIZE TIMESTAMP 0xA5 0xB0 0xB8 CODECOPY PUSH9 0xCE9BD439D3E497650B SHL EQ LT 0xF8 0xE7 SDIV DUP14 NOT BYTE MSTORE SELFDESTRUCT 0xC8 0xC7 PUSH5 0x736F6C6343 STOP ADDMOD EQ STOP CALLER LOG2 PUSH5 0x6970667358 0x22 SLT KECCAK256 PREVRANDAO 0xC3 LOG2 0xC7 0xAB PUSH16 0x3B14CE16658AACBA876DCF42D30197AB SWAP9 PUSH12 0x3479505650E770164736F6C PUSH4 0x43000814 STOP CALLER "},"methodIdentifiers":{"allPairs(uint256)":"1e3dd18b","allPairsLength()":"574f2ba3","createPair(address,address)":"c9c65396","getPair(address,address)":"e6a43905"}}}}}